{
  "contractName": "Poof",
  "abi": [
    {
      "inputs": [
        {
          "internalType": "contract IERC20",
          "name": "_token",
          "type": "address"
        },
        {
          "internalType": "contract IVerifier[3]",
          "name": "_verifiers",
          "type": "address[3]"
        },
        {
          "internalType": "bytes32",
          "name": "_accountRoot",
          "type": "bytes32"
        }
      ],
      "stateMutability": "nonpayable",
      "type": "constructor"
    },
    {
      "anonymous": false,
      "inputs": [
        {
          "indexed": false,
          "internalType": "bytes32",
          "name": "commitment",
          "type": "bytes32"
        },
        {
          "indexed": false,
          "internalType": "bytes32",
          "name": "nullifier",
          "type": "bytes32"
        },
        {
          "indexed": false,
          "internalType": "bytes",
          "name": "encryptedAccount",
          "type": "bytes"
        },
        {
          "indexed": false,
          "internalType": "uint256",
          "name": "index",
          "type": "uint256"
        }
      ],
      "name": "NewAccount",
      "type": "event"
    },
    {
      "inputs": [],
      "name": "ACCOUNT_ROOT_HISTORY_SIZE",
      "outputs": [
        {
          "internalType": "uint256",
          "name": "",
          "type": "uint256"
        }
      ],
      "stateMutability": "view",
      "type": "function"
    },
    {
      "inputs": [],
      "name": "accountCount",
      "outputs": [
        {
          "internalType": "uint256",
          "name": "",
          "type": "uint256"
        }
      ],
      "stateMutability": "view",
      "type": "function"
    },
    {
      "inputs": [
        {
          "internalType": "bytes32",
          "name": "",
          "type": "bytes32"
        }
      ],
      "name": "accountNullifiers",
      "outputs": [
        {
          "internalType": "bool",
          "name": "",
          "type": "bool"
        }
      ],
      "stateMutability": "view",
      "type": "function"
    },
    {
      "inputs": [
        {
          "internalType": "uint256",
          "name": "",
          "type": "uint256"
        }
      ],
      "name": "accountRoots",
      "outputs": [
        {
          "internalType": "bytes32",
          "name": "",
          "type": "bytes32"
        }
      ],
      "stateMutability": "view",
      "type": "function"
    },
    {
      "inputs": [],
      "name": "depositVerifier",
      "outputs": [
        {
          "internalType": "contract IVerifier",
          "name": "",
          "type": "address"
        }
      ],
      "stateMutability": "view",
      "type": "function"
    },
    {
      "inputs": [],
      "name": "token",
      "outputs": [
        {
          "internalType": "contract IERC20",
          "name": "",
          "type": "address"
        }
      ],
      "stateMutability": "view",
      "type": "function"
    },
    {
      "inputs": [],
      "name": "treeUpdateVerifier",
      "outputs": [
        {
          "internalType": "contract IVerifier",
          "name": "",
          "type": "address"
        }
      ],
      "stateMutability": "view",
      "type": "function"
    },
    {
      "inputs": [],
      "name": "withdrawVerifier",
      "outputs": [
        {
          "internalType": "contract IVerifier",
          "name": "",
          "type": "address"
        }
      ],
      "stateMutability": "view",
      "type": "function"
    },
    {
      "inputs": [
        {
          "internalType": "bytes",
          "name": "_fromProof",
          "type": "bytes"
        },
        {
          "components": [
            {
              "internalType": "uint256",
              "name": "amount",
              "type": "uint256"
            },
            {
              "internalType": "bytes32",
              "name": "extDataHash",
              "type": "bytes32"
            },
            {
              "components": [
                {
                  "internalType": "uint256",
                  "name": "fee",
                  "type": "uint256"
                },
                {
                  "internalType": "address",
                  "name": "relayer",
                  "type": "address"
                },
                {
                  "internalType": "bytes32",
                  "name": "depositProofHash",
                  "type": "bytes32"
                },
                {
                  "internalType": "bytes",
                  "name": "encryptedAccount",
                  "type": "bytes"
                }
              ],
              "internalType": "struct Poof.TransferExtData",
              "name": "extData",
              "type": "tuple"
            },
            {
              "components": [
                {
                  "internalType": "bytes32",
                  "name": "inputRoot",
                  "type": "bytes32"
                },
                {
                  "internalType": "bytes32",
                  "name": "inputNullifierHash",
                  "type": "bytes32"
                },
                {
                  "internalType": "bytes32",
                  "name": "outputRoot",
                  "type": "bytes32"
                },
                {
                  "internalType": "uint256",
                  "name": "outputPathIndices",
                  "type": "uint256"
                },
                {
                  "internalType": "bytes32",
                  "name": "outputCommitment",
                  "type": "bytes32"
                }
              ],
              "internalType": "struct Poof.AccountUpdate",
              "name": "account",
              "type": "tuple"
            }
          ],
          "internalType": "struct Poof.TransferArgs",
          "name": "_fromArgs",
          "type": "tuple"
        },
        {
          "internalType": "bytes",
          "name": "_toProof",
          "type": "bytes"
        },
        {
          "components": [
            {
              "internalType": "uint256",
              "name": "amount",
              "type": "uint256"
            },
            {
              "internalType": "bytes32",
              "name": "extDataHash",
              "type": "bytes32"
            },
            {
              "components": [
                {
                  "internalType": "bytes",
                  "name": "encryptedAccount",
                  "type": "bytes"
                },
                {
                  "internalType": "enum Poof.Operation",
                  "name": "operation",
                  "type": "uint8"
                }
              ],
              "internalType": "struct Poof.DepositExtData",
              "name": "extData",
              "type": "tuple"
            },
            {
              "components": [
                {
                  "internalType": "bytes32",
                  "name": "inputRoot",
                  "type": "bytes32"
                },
                {
                  "internalType": "bytes32",
                  "name": "inputNullifierHash",
                  "type": "bytes32"
                },
                {
                  "internalType": "bytes32",
                  "name": "outputRoot",
                  "type": "bytes32"
                },
                {
                  "internalType": "uint256",
                  "name": "outputPathIndices",
                  "type": "uint256"
                },
                {
                  "internalType": "bytes32",
                  "name": "outputCommitment",
                  "type": "bytes32"
                }
              ],
              "internalType": "struct Poof.AccountUpdate",
              "name": "account",
              "type": "tuple"
            }
          ],
          "internalType": "struct Poof.DepositArgs",
          "name": "_toArgs",
          "type": "tuple"
        },
        {
          "internalType": "bytes",
          "name": "_fromTreeUpdateProof",
          "type": "bytes"
        },
        {
          "components": [
            {
              "internalType": "bytes32",
              "name": "oldRoot",
              "type": "bytes32"
            },
            {
              "internalType": "bytes32",
              "name": "newRoot",
              "type": "bytes32"
            },
            {
              "internalType": "bytes32",
              "name": "leaf",
              "type": "bytes32"
            },
            {
              "internalType": "uint256",
              "name": "pathIndices",
              "type": "uint256"
            }
          ],
          "internalType": "struct Poof.TreeUpdateArgs",
          "name": "_fromTreeUpdateArgs",
          "type": "tuple"
        },
        {
          "internalType": "bytes",
          "name": "_toTreeUpdateProof",
          "type": "bytes"
        },
        {
          "components": [
            {
              "internalType": "bytes32",
              "name": "oldRoot",
              "type": "bytes32"
            },
            {
              "internalType": "bytes32",
              "name": "newRoot",
              "type": "bytes32"
            },
            {
              "internalType": "bytes32",
              "name": "leaf",
              "type": "bytes32"
            },
            {
              "internalType": "uint256",
              "name": "pathIndices",
              "type": "uint256"
            }
          ],
          "internalType": "struct Poof.TreeUpdateArgs",
          "name": "_toTreeUpdateArgs",
          "type": "tuple"
        }
      ],
      "name": "transfer",
      "outputs": [],
      "stateMutability": "nonpayable",
      "type": "function"
    },
    {
      "inputs": [
        {
          "internalType": "bytes",
          "name": "_proof",
          "type": "bytes"
        },
        {
          "components": [
            {
              "internalType": "uint256",
              "name": "amount",
              "type": "uint256"
            },
            {
              "internalType": "bytes32",
              "name": "extDataHash",
              "type": "bytes32"
            },
            {
              "components": [
                {
                  "internalType": "bytes",
                  "name": "encryptedAccount",
                  "type": "bytes"
                },
                {
                  "internalType": "enum Poof.Operation",
                  "name": "operation",
                  "type": "uint8"
                }
              ],
              "internalType": "struct Poof.DepositExtData",
              "name": "extData",
              "type": "tuple"
            },
            {
              "components": [
                {
                  "internalType": "bytes32",
                  "name": "inputRoot",
                  "type": "bytes32"
                },
                {
                  "internalType": "bytes32",
                  "name": "inputNullifierHash",
                  "type": "bytes32"
                },
                {
                  "internalType": "bytes32",
                  "name": "outputRoot",
                  "type": "bytes32"
                },
                {
                  "internalType": "uint256",
                  "name": "outputPathIndices",
                  "type": "uint256"
                },
                {
                  "internalType": "bytes32",
                  "name": "outputCommitment",
                  "type": "bytes32"
                }
              ],
              "internalType": "struct Poof.AccountUpdate",
              "name": "account",
              "type": "tuple"
            }
          ],
          "internalType": "struct Poof.DepositArgs",
          "name": "_args",
          "type": "tuple"
        },
        {
          "internalType": "bytes",
          "name": "_treeUpdateProof",
          "type": "bytes"
        },
        {
          "components": [
            {
              "internalType": "bytes32",
              "name": "oldRoot",
              "type": "bytes32"
            },
            {
              "internalType": "bytes32",
              "name": "newRoot",
              "type": "bytes32"
            },
            {
              "internalType": "bytes32",
              "name": "leaf",
              "type": "bytes32"
            },
            {
              "internalType": "uint256",
              "name": "pathIndices",
              "type": "uint256"
            }
          ],
          "internalType": "struct Poof.TreeUpdateArgs",
          "name": "_treeUpdateArgs",
          "type": "tuple"
        }
      ],
      "name": "deposit",
      "outputs": [],
      "stateMutability": "nonpayable",
      "type": "function"
    },
    {
      "inputs": [
        {
          "internalType": "bytes",
          "name": "_proof",
          "type": "bytes"
        },
        {
          "components": [
            {
              "internalType": "uint256",
              "name": "amount",
              "type": "uint256"
            },
            {
              "internalType": "bytes32",
              "name": "extDataHash",
              "type": "bytes32"
            },
            {
              "components": [
                {
                  "internalType": "bytes",
                  "name": "encryptedAccount",
                  "type": "bytes"
                },
                {
                  "internalType": "enum Poof.Operation",
                  "name": "operation",
                  "type": "uint8"
                }
              ],
              "internalType": "struct Poof.DepositExtData",
              "name": "extData",
              "type": "tuple"
            },
            {
              "components": [
                {
                  "internalType": "bytes32",
                  "name": "inputRoot",
                  "type": "bytes32"
                },
                {
                  "internalType": "bytes32",
                  "name": "inputNullifierHash",
                  "type": "bytes32"
                },
                {
                  "internalType": "bytes32",
                  "name": "outputRoot",
                  "type": "bytes32"
                },
                {
                  "internalType": "uint256",
                  "name": "outputPathIndices",
                  "type": "uint256"
                },
                {
                  "internalType": "bytes32",
                  "name": "outputCommitment",
                  "type": "bytes32"
                }
              ],
              "internalType": "struct Poof.AccountUpdate",
              "name": "account",
              "type": "tuple"
            }
          ],
          "internalType": "struct Poof.DepositArgs",
          "name": "_args",
          "type": "tuple"
        }
      ],
      "name": "deposit",
      "outputs": [],
      "stateMutability": "nonpayable",
      "type": "function"
    },
    {
      "inputs": [
        {
          "internalType": "bytes",
          "name": "_proof",
          "type": "bytes"
        },
        {
          "components": [
            {
              "internalType": "uint256",
              "name": "amount",
              "type": "uint256"
            },
            {
              "internalType": "bytes32",
              "name": "extDataHash",
              "type": "bytes32"
            },
            {
              "components": [
                {
                  "internalType": "uint256",
                  "name": "fee",
                  "type": "uint256"
                },
                {
                  "internalType": "address",
                  "name": "recipient",
                  "type": "address"
                },
                {
                  "internalType": "address",
                  "name": "relayer",
                  "type": "address"
                },
                {
                  "internalType": "bytes",
                  "name": "encryptedAccount",
                  "type": "bytes"
                },
                {
                  "internalType": "enum Poof.Operation",
                  "name": "operation",
                  "type": "uint8"
                }
              ],
              "internalType": "struct Poof.WithdrawExtData",
              "name": "extData",
              "type": "tuple"
            },
            {
              "components": [
                {
                  "internalType": "bytes32",
                  "name": "inputRoot",
                  "type": "bytes32"
                },
                {
                  "internalType": "bytes32",
                  "name": "inputNullifierHash",
                  "type": "bytes32"
                },
                {
                  "internalType": "bytes32",
                  "name": "outputRoot",
                  "type": "bytes32"
                },
                {
                  "internalType": "uint256",
                  "name": "outputPathIndices",
                  "type": "uint256"
                },
                {
                  "internalType": "bytes32",
                  "name": "outputCommitment",
                  "type": "bytes32"
                }
              ],
              "internalType": "struct Poof.AccountUpdate",
              "name": "account",
              "type": "tuple"
            }
          ],
          "internalType": "struct Poof.WithdrawArgs",
          "name": "_args",
          "type": "tuple"
        }
      ],
      "name": "withdraw",
      "outputs": [],
      "stateMutability": "nonpayable",
      "type": "function"
    },
    {
      "inputs": [
        {
          "internalType": "bytes",
          "name": "_proof",
          "type": "bytes"
        },
        {
          "components": [
            {
              "internalType": "uint256",
              "name": "amount",
              "type": "uint256"
            },
            {
              "internalType": "bytes32",
              "name": "extDataHash",
              "type": "bytes32"
            },
            {
              "components": [
                {
                  "internalType": "uint256",
                  "name": "fee",
                  "type": "uint256"
                },
                {
                  "internalType": "address",
                  "name": "recipient",
                  "type": "address"
                },
                {
                  "internalType": "address",
                  "name": "relayer",
                  "type": "address"
                },
                {
                  "internalType": "bytes",
                  "name": "encryptedAccount",
                  "type": "bytes"
                },
                {
                  "internalType": "enum Poof.Operation",
                  "name": "operation",
                  "type": "uint8"
                }
              ],
              "internalType": "struct Poof.WithdrawExtData",
              "name": "extData",
              "type": "tuple"
            },
            {
              "components": [
                {
                  "internalType": "bytes32",
                  "name": "inputRoot",
                  "type": "bytes32"
                },
                {
                  "internalType": "bytes32",
                  "name": "inputNullifierHash",
                  "type": "bytes32"
                },
                {
                  "internalType": "bytes32",
                  "name": "outputRoot",
                  "type": "bytes32"
                },
                {
                  "internalType": "uint256",
                  "name": "outputPathIndices",
                  "type": "uint256"
                },
                {
                  "internalType": "bytes32",
                  "name": "outputCommitment",
                  "type": "bytes32"
                }
              ],
              "internalType": "struct Poof.AccountUpdate",
              "name": "account",
              "type": "tuple"
            }
          ],
          "internalType": "struct Poof.WithdrawArgs",
          "name": "_args",
          "type": "tuple"
        },
        {
          "internalType": "bytes",
          "name": "_treeUpdateProof",
          "type": "bytes"
        },
        {
          "components": [
            {
              "internalType": "bytes32",
              "name": "oldRoot",
              "type": "bytes32"
            },
            {
              "internalType": "bytes32",
              "name": "newRoot",
              "type": "bytes32"
            },
            {
              "internalType": "bytes32",
              "name": "leaf",
              "type": "bytes32"
            },
            {
              "internalType": "uint256",
              "name": "pathIndices",
              "type": "uint256"
            }
          ],
          "internalType": "struct Poof.TreeUpdateArgs",
          "name": "_treeUpdateArgs",
          "type": "tuple"
        }
      ],
      "name": "withdraw",
      "outputs": [],
      "stateMutability": "nonpayable",
      "type": "function"
    },
    {
      "inputs": [
        {
          "internalType": "bytes32",
          "name": "_root",
          "type": "bytes32"
        },
        {
          "internalType": "uint256",
          "name": "_index",
          "type": "uint256"
        }
      ],
      "name": "isKnownAccountRoot",
      "outputs": [
        {
          "internalType": "bool",
          "name": "",
          "type": "bool"
        }
      ],
      "stateMutability": "view",
      "type": "function"
    },
    {
      "inputs": [],
      "name": "getLastAccountRoot",
      "outputs": [
        {
          "internalType": "bytes32",
          "name": "",
          "type": "bytes32"
        }
      ],
      "stateMutability": "view",
      "type": "function"
    }
  ],
  "bytecode": "0x60806040523480156200001157600080fd5b5060405162002443380380620024438339810160408190526200003491620000ab565b600080546001600160a01b039485166001600160a01b0319918216179091556006919091558151600180549185169183169190911790556020820151600280549185169183169190911790556040909101516003805491909316911617905562000189565b8051620000a68162000170565b919050565b600080600060a08486031215620000c0578283fd5b8351620000cd8162000170565b92506020603f85018613620000e0578283fd5b604051606081016001600160401b03811182821017156200010557620001056200015a565b6040528086830160808801898111156200011d578687fd5b865b60038110156200014757620001348362000099565b845292850192918501916001016200011f565b5051969992985095965090945050505050565b634e487b7160e01b600052604160045260246000fd5b6001600160a01b03811681146200018657600080fd5b50565b6122aa80620001996000396000f3fe608060405234801561001057600080fd5b50600436106100f55760003560e01c8063864eb16411610097578063d3cc306511610066578063d3cc306514610202578063e4af29fc14610215578063e4b689401461021e578063fc0c546a14610231576100f5565b8063864eb164146101b657806395a1199e146101c957806397f098d7146101dc578063c6a4b053146101ef576100f5565b806342a660b0116100d357806342a660b0146101555780634a20de581461018857806352ef8e961461019b5780637cf32a9f146101a3576100f5565b80631311b6e8146100fa5780632236505c1461011557806326120c881461012a575b600080fd5b610102610244565b6040519081526020015b60405180910390f35b610128610123366004611ea3565b61027c565b005b60015461013d906001600160a01b031681565b6040516001600160a01b03909116815260200161010c565b610178610163366004611c5e565b60046020526000908152604090205460ff1681565b604051901515815260200161010c565b60035461013d906001600160a01b031681565b610102606481565b6101286101b1366004611d8e565b610305565b60025461013d906001600160a01b031681565b6101286101d7366004611cf8565b61097b565b6101786101ea366004611c76565b6109ab565b6101026101fd366004611c5e565b6109ee565b610128610210366004611efa565b610a05565b61010260055481565b61012861022c366004611c97565b610b7f565b60005461013d906001600160a01b031681565b60006006606460055461025791906121e7565b6064811061027557634e487b7160e01b600052603260045260246000fd5b0154905090565b600181604001516080015160038111156102a657634e487b7160e01b600052602160045260246000fd5b146102cc5760405162461bcd60e51b81526004016102c390612056565b60405180910390fd5b60408051600080825260a082018352602082018181529282018190526060820181905260808201526103019184918491610a05565b5050565b845160408801515188516103199190612189565b1461035b5760405162461bcd60e51b81526020600482015260126024820152712a3930b739b332b91034b9903ab73330b4b960711b60448201526064016102c3565b6103838660405160200161036f9190611fed565b604051602081830303815290604052610bfb565b876040015160400151146103f25760405162461bcd60e51b815260206004820152603060248201527f2766726f6d272070726f6f66206861736820646f6573206e6f74206d6174636860448201526f0404ee8de4e40e0e4dedecc40d0c2e6d60831b60648201526084016102c3565b6000856040015160200151600381111561041c57634e487b7160e01b600052602160045260246000fd5b146104395760405162461bcd60e51b81526004016102c390612056565b61044885606001518383610c11565b610460856040015160405160200161036f9190612083565b8560200151146104bc5760405162461bcd60e51b815260206004820152602160248201527f496e636f72726563742027746f272065787465726e616c2064617461206861736044820152600d60fb1b60648201526084016102c3565b6001546040805160e08101825287518152602080890151818301526060808a01805151848601528051909201518184015281519093015160808084019190915281519093015160a0830152519091015160c08201526001600160a01b0390911690631e8e1e1390889061052e90610d41565b6040518363ffffffff1660e01b815260040161054b929190612000565b60206040518083038186803b15801561056357600080fd5b505afa158015610577573d6000803e3d6000fd5b505050506040513d601f19601f8201168201806040525081019061059b9190611c3e565b6105df5760405162461bcd60e51b815260206004820152601560248201527424b73b30b634b2103232b837b9b4ba10383937b7b360591b60448201526064016102c3565b60608501516020908101516000908152600490915260409020805460ff1916600117905561063261060e610244565b6060870151511461062357816020015161062d565b8560600151604001515b610dde565b600080516020612255833981519152856060015160800151866060015160200151876040015160000151600160055461066b9190612189565b60405161067b9493929190611fbd565b60405180910390a161069287606001518585610c11565b6106aa876040015160405160200161036f91906120bb565b8760200151146107085760405162461bcd60e51b815260206004820152602360248201527f496e636f7272656374202766726f6d272065787465726e616c206461746120686044820152620c2e6d60eb1b60648201526084016102c3565b6002546040805160e081018252895181526020808b0151818301526060808c01805151848601528051909201518184015281519093015160808084019190915281519093015160a0830152519091015160c08201526001600160a01b0390911690631e8e1e13908a9061077a90610d41565b6040518363ffffffff1660e01b8152600401610797929190612000565b60206040518083038186803b1580156107af57600080fd5b505afa1580156107c3573d6000803e3d6000fd5b505050506040513d601f19601f820116820180604052508101906107e79190611c3e565b61082e5760405162461bcd60e51b815260206004820152601860248201527724b73b30b634b2103bb4ba34323930bbb0b610383937b7b360411b60448201526064016102c3565b604087015151156108ce5760005460408881015160208101519051915163a9059cbb60e01b81526001600160a01b03918216600482015260248101929092529091169063a9059cbb90604401602060405180830381600087803b15801561089457600080fd5b505af11580156108a8573d6000803e3d6000fd5b505050506040513d601f19601f820116820180604052508101906108cc9190611c3e565b505b60608701516020908101516000908152600490915260409020805460ff191660011790556109206108fd610244565b6060890151511461091257836020015161062d565b876060015160400151610dde565b60008051602061225583398151915287606001516080015188606001516020015189604001516060015160016005546109599190612189565b6040516109699493929190611fbd565b60405180910390a15050505050505050565b61098784848484610e24565b82516000546109a5916001600160a01b039091169033903090611069565b50505050565b600082158015906109e757508260066109c56064856121e7565b606481106109e357634e487b7160e01b600052603260045260246000fd5b0154145b9392505050565b600681606481106109fe57600080fd5b0154905081565b610a11848484846110c3565b6000610a418460400151600001516040518060600160405280602181526020016122346021913986519190611371565b90508015610ad95760005460408581015160200151905163a9059cbb60e01b81526001600160a01b0391821660048201526024810184905291169063a9059cbb90604401602060405180830381600087803b158015610a9f57600080fd5b505af1158015610ab3573d6000803e3d6000fd5b505050506040513d601f19601f82011682018060405250810190610ad79190611c3e565b505b60408401515115610b7857600054604085810151808201519051915163a9059cbb60e01b81526001600160a01b03918216600482015260248101929092529091169063a9059cbb90604401602060405180830381600087803b158015610b3e57600080fd5b505af1158015610b52573d6000803e3d6000fd5b505050506040513d601f19601f82011682018060405250810190610b769190611c3e565b505b5050505050565b60008160400151602001516003811115610ba957634e487b7160e01b600052602160045260246000fd5b14610bc65760405162461bcd60e51b81526004016102c390612056565b60408051600080825260a08201835260208201818152928201819052606082018190526080820152610301918491849161097b565b805160208201206001600160f81b03165b919050565b60208084015160009081526004909152604090205460ff1615610c6f5760405162461bcd60e51b81526020600482015260166024820152754f75746461746564206163636f756e7420737461746560501b60448201526064016102c3565b610c77610244565b835114610ce757610c90836000015184606001516109ab565b610cd35760405162461bcd60e51b8152602060048201526014602482015273125b9d985b1a59081858d8dbdd5b9d081c9bdbdd60621b60448201526064016102c3565b610ce28282856080015161139d565b610d3c565b600554836060015114610d3c5760405162461bcd60e51b815260206004820152601e60248201527f496e636f7272656374206163636f756e7420696e7365727420696e646578000060448201526064016102c3565b505050565b6040805160078082526101008201909252606091600091906020820160e08036833701905050905060005b6007811015610dd757838160078110610d9557634e487b7160e01b600052603260045260246000fd5b6020020151828281518110610dba57634e487b7160e01b600052603260045260246000fd5b602090810291909101015280610dcf816121cc565b915050610d6c565b5092915050565b8060066064600560008154610df2906121cc565b9182905550610e0191906121e7565b60648110610e1f57634e487b7160e01b600052603260045260246000fd5b015550565b610e3383606001518383610c11565b610e4b836040015160405160200161036f9190612083565b836020015114610e9d5760405162461bcd60e51b815260206004820152601c60248201527f496e636f72726563742065787465726e616c206461746120686173680000000060448201526064016102c3565b6001546040805160e08101825285518152602080870151818301526060808801805151848601528051909201518184015281519093015160808084019190915281519093015160a0830152519091015160c08201526001600160a01b0390911690631e8e1e13908690610f0f90610d41565b6040518363ffffffff1660e01b8152600401610f2c929190612000565b60206040518083038186803b158015610f4457600080fd5b505afa158015610f58573d6000803e3d6000fd5b505050506040513d601f19601f82011682018060405250810190610f7c9190611c3e565b610fc05760405162461bcd60e51b815260206004820152601560248201527424b73b30b634b2103232b837b9b4ba10383937b7b360591b60448201526064016102c3565b60608301516020908101516000908152600490915260409020805460ff19166001179055611012610fef610244565b6060850151511461100457816020015161062d565b836060015160400151610dde565b600080516020612255833981519152836060015160800151846060015160200151856040015160000151600160055461104b9190612189565b60405161105b9493929190611fbd565b60405180910390a150505050565b604080516001600160a01b0385811660248301528416604482015260648082018490528251808303909101815260849091019091526020810180516001600160e01b03166323b872dd60e01b1790526109a59085906115f3565b6110d283606001518383610c11565b6110ea836040015160405160200161036f91906120fc565b83602001511461113c5760405162461bcd60e51b815260206004820152601c60248201527f496e636f72726563742065787465726e616c206461746120686173680000000060448201526064016102c3565b8251600160f81b116111905760405162461bcd60e51b815260206004820152601960248201527f416d6f756e742076616c7565206f7574206f662072616e67650000000000000060448201526064016102c3565b604083015151835110156111e65760405162461bcd60e51b815260206004820152601c60248201527f416d6f756e742073686f756c64206265203e3d207468616e206665650000000060448201526064016102c3565b6002546040805160e08101825285518152602080870151818301526060808801805151848601528051909201518184015281519093015160808084019190915281519093015160a0830152519091015160c08201526001600160a01b0390911690631e8e1e1390869061125890610d41565b6040518363ffffffff1660e01b8152600401611275929190612000565b60206040518083038186803b15801561128d57600080fd5b505afa1580156112a1573d6000803e3d6000fd5b505050506040513d601f19601f820116820180604052508101906112c59190611c3e565b61130c5760405162461bcd60e51b815260206004820152601860248201527724b73b30b634b2103bb4ba34323930bbb0b610383937b7b360411b60448201526064016102c3565b611317610fef610244565b60608084018051602090810151600090815260048252604090819020805460ff1916600190811790915592516080810151920151908701519093015160055460008051602061225583398151915294929361104b91612189565b600081848411156113955760405162461bcd60e51b81526004016102c39190611fed565b505050900390565b60008351116113ee5760405162461bcd60e51b815260206004820152601c60248201527f4f75746461746564206163636f756e74206d65726b6c6520726f6f740000000060448201526064016102c3565b6113f6610244565b8251146114455760405162461bcd60e51b815260206004820181905260248201527f4f75746461746564207472656520757064617465206d65726b6c6520726f6f7460448201526064016102c3565b808260400151146114985760405162461bcd60e51b815260206004820152601d60248201527f496e636f727265637420636f6d6d69746d656e7420696e73657274656400000060448201526064016102c3565b6005548260600151146114ed5760405162461bcd60e51b815260206004820152601e60248201527f496e636f7272656374206163636f756e7420696e7365727420696e646578000060448201526064016102c3565b6003546040805160808101825284518152602080860151908201528482015191810191909152606080850151908201526001600160a01b0390911690631e8e1e1390859061153a906116c5565b6040518363ffffffff1660e01b8152600401611557929190612000565b60206040518083038186803b15801561156f57600080fd5b505afa158015611583573d6000803e3d6000fd5b505050506040513d601f19601f820116820180604052508101906115a79190611c3e565b610d3c5760405162461bcd60e51b815260206004820152601960248201527f496e76616c69642074726565207570646174652070726f6f660000000000000060448201526064016102c3565b6000611648826040518060400160405280602081526020017f5361666545524332303a206c6f772d6c6576656c2063616c6c206661696c6564815250856001600160a01b031661175a9092919063ffffffff16565b805190915015610d3c57808060200190518101906116669190611c3e565b610d3c5760405162461bcd60e51b815260206004820152602a60248201527f5361666545524332303a204552433230206f7065726174696f6e20646964206e6044820152691bdd081cdd58d8d9595960b21b60648201526084016102c3565b60408051600480825260a08201909252606091600091906020820160808036833701905050905060005b6004811015610dd75783816004811061171857634e487b7160e01b600052603260045260246000fd5b602002015182828151811061173d57634e487b7160e01b600052603260045260246000fd5b602090810291909101015280611752816121cc565b9150506116ef565b60606117698484600085611771565b949350505050565b6060824710156117d25760405162461bcd60e51b815260206004820152602660248201527f416464726573733a20696e73756666696369656e742062616c616e636520666f6044820152651c8818d85b1b60d21b60648201526084016102c3565b843b6118205760405162461bcd60e51b815260206004820152601d60248201527f416464726573733a2063616c6c20746f206e6f6e2d636f6e747261637400000060448201526064016102c3565b600080866001600160a01b0316858760405161183c9190611fa1565b60006040518083038185875af1925050503d8060008114611879576040519150601f19603f3d011682016040523d82523d6000602084013e61187e565b606091505b509150915061188e828286611899565b979650505050505050565b606083156118a85750816109e7565b8251156118b85782518084602001fd5b8160405162461bcd60e51b81526004016102c39190611fed565b80356001600160a01b0381168114610c0c57600080fd5b600082601f8301126118f9578081fd5b813567ffffffffffffffff8111156119135761191361221d565b611926601f8201601f1916602001612158565b81815284602083860101111561193a578283fd5b816020850160208301379081016020019190915292915050565b803560048110610c0c57600080fd5b600060a08284031215611974578081fd5b61197e60a0612158565b9050813581526020820135602082015260408201356040820152606082013560608201526080820135608082015292915050565b600061010082840312156119c4578081fd5b6119ce6080612158565b90508135815260208201356020820152604082013567ffffffffffffffff808211156119f957600080fd5b9083019060408286031215611a0d57600080fd5b611a176040612158565b823582811115611a2657600080fd5b611a32878286016118e9565b825250611a4160208401611954565b6020820152604084015250611a5b90508360608401611963565b606082015292915050565b60006101008284031215611a78578081fd5b611a826080612158565b90508135815260208201356020820152604082013567ffffffffffffffff80821115611aad57600080fd5b9083019060808286031215611ac157600080fd5b611acb6080612158565b82358152611adb602084016118d2565b602082015260408301356040820152606083013582811115611afc57600080fd5b611b08878286016118e9565b606083015250806040850152505050611a5b8360608401611963565b600060808284031215611b35578081fd5b611b3f6080612158565b90508135815260208201356020820152604082013560408201526060820135606082015292915050565b60006101008284031215611b7b578081fd5b611b856080612158565b90508135815260208201356020820152604082013567ffffffffffffffff80821115611bb057600080fd5b9083019060a08286031215611bc457600080fd5b611bce60a0612158565b82358152611bde602084016118d2565b6020820152611bef604084016118d2565b6040820152606083013582811115611c0657600080fd5b611c12878286016118e9565b606083015250611c2460808401611954565b6080820152604084015250611a5b90508360608401611963565b600060208284031215611c4f578081fd5b815180151581146109e7578182fd5b600060208284031215611c6f578081fd5b5035919050565b60008060408385031215611c88578081fd5b50508035926020909101359150565b60008060408385031215611ca9578182fd5b823567ffffffffffffffff80821115611cc0578384fd5b611ccc868387016118e9565b93506020850135915080821115611ce1578283fd5b50611cee858286016119b2565b9150509250929050565b60008060008060e08587031215611d0d578182fd5b843567ffffffffffffffff80821115611d24578384fd5b611d30888389016118e9565b95506020870135915080821115611d45578384fd5b611d51888389016119b2565b94506040870135915080821115611d66578384fd5b50611d73878288016118e9565b925050611d838660608701611b24565b905092959194509250565b6000806000806000806000806101c0898b031215611daa578586fd5b883567ffffffffffffffff80821115611dc1578788fd5b611dcd8c838d016118e9565b995060208b0135915080821115611de2578788fd5b611dee8c838d01611a66565b985060408b0135915080821115611e03578788fd5b611e0f8c838d016118e9565b975060608b0135915080821115611e24578586fd5b611e308c838d016119b2565b965060808b0135915080821115611e45578586fd5b611e518c838d016118e9565b9550611e608c60a08d01611b24565b94506101208b0135915080821115611e76578384fd5b50611e838b828c016118e9565b925050611e948a6101408b01611b24565b90509295985092959890939650565b60008060408385031215611eb5578182fd5b823567ffffffffffffffff80821115611ecc578384fd5b611ed8868387016118e9565b93506020850135915080821115611eed578283fd5b50611cee85828601611b69565b60008060008060e08587031215611f0f578182fd5b843567ffffffffffffffff80821115611f26578384fd5b611f32888389016118e9565b95506020870135915080821115611f47578384fd5b611d5188838901611b69565b60008151808452611f6b8160208601602086016121a0565b601f01601f19169290920160200192915050565b60048110611f9d57634e487b7160e01b600052602160045260246000fd5b9052565b60008251611fb38184602087016121a0565b9190910192915050565b600085825284602083015260806040830152611fdc6080830185611f53565b905082606083015295945050505050565b6000602082526109e76020830184611f53565b6000604082526120136040830185611f53565b828103602084810191909152845180835285820192820190845b818110156120495784518352938301939183019160010161202d565b5090979650505050505050565b60208082526013908201527224b731b7b93932b1ba1037b832b930ba34b7b760691b604082015260600190565b60006020825282516040602084015261209f6060840182611f53565b905060208401516120b36040850182611f7f565b509392505050565b6000602082528251602083015260018060a01b03602084015116604083015260408301516060830152606083015160808084015261176960a0840182611f53565b60006020825282516020830152602083015160018060a01b0380821660408501528060408601511660608501525050606083015160a0608084015261214460c0840182611f53565b905060808401516120b360a0850182611f7f565b604051601f8201601f1916810167ffffffffffffffff811182821017156121815761218161221d565b604052919050565b60008282101561219b5761219b612207565b500390565b60005b838110156121bb5781810151838201526020016121a3565b838111156109a55750506000910152565b60006000198214156121e0576121e0612207565b5060010190565b60008261220257634e487b7160e01b81526012600452602481fd5b500690565b634e487b7160e01b600052601160045260246000fd5b634e487b7160e01b600052604160045260246000fdfe416d6f756e742073686f756c642062652067726561746572207468616e20666565bd4a5ca11c6f082fd6d00dc9d1dced6ab22490039bc36154bfa748bf2bf74355a2646970667358221220ccc7cd4301cbd31c0f8723d1f0c8645aba1f1463f5e7b415978d5848ca04470c64736f6c63430008030033",
  "immutableReferences": {},
  "source": "// SPDX-License-Identifier: MIT\n\npragma solidity ^0.8.0;\n\nimport \"@openzeppelin/contracts/token/ERC20/utils/SafeERC20.sol\";\nimport \"@openzeppelin/contracts/token/ERC20/IERC20.sol\";\nimport \"@openzeppelin/contracts/utils/math/SafeMath.sol\";\n\nimport \"./interfaces/IVerifier.sol\";\n\ncontract Poof {\n  using SafeMath for uint256;\n  using SafeERC20 for IERC20;\n\n  enum Operation { DEPOSIT, WITHDRAW, MINT, BURN }\n\n  IERC20 public token;\n\n  IVerifier public depositVerifier;\n  IVerifier public withdrawVerifier;\n  IVerifier public treeUpdateVerifier;\n\n  mapping(bytes32 => bool) public accountNullifiers;\n\n  uint256 public accountCount;\n  uint256 public constant ACCOUNT_ROOT_HISTORY_SIZE = 100;\n  bytes32[ACCOUNT_ROOT_HISTORY_SIZE] public accountRoots;\n\n  event NewAccount(bytes32 commitment, bytes32 nullifier, bytes encryptedAccount, uint256 index);\n\n  struct TreeUpdateArgs {\n    bytes32 oldRoot;\n    bytes32 newRoot;\n    bytes32 leaf;\n    uint256 pathIndices;\n  }\n\n  struct AccountUpdate {\n    bytes32 inputRoot;\n    bytes32 inputNullifierHash;\n    bytes32 outputRoot;\n    uint256 outputPathIndices;\n    bytes32 outputCommitment;\n  }\n\n  struct DepositExtData {\n    bytes encryptedAccount;\n    Operation operation;\n  }\n\n  struct DepositArgs {\n    uint256 amount;\n    bytes32 extDataHash;\n    DepositExtData extData;\n    AccountUpdate account;\n  }\n\n  struct TransferExtData {\n    uint256 fee;\n    address relayer;\n    bytes32 depositProofHash;\n    bytes encryptedAccount;\n  }\n\n  struct TransferArgs {\n    uint256 amount;\n    bytes32 extDataHash;\n    TransferExtData extData;\n    AccountUpdate account;\n  }\n\n  struct WithdrawExtData {\n    uint256 fee;\n    address recipient;\n    address relayer;\n    bytes encryptedAccount;\n    Operation operation;\n  }\n\n  struct WithdrawArgs {\n    uint256 amount;\n    bytes32 extDataHash;\n    WithdrawExtData extData;\n    AccountUpdate account;\n  }\n\n  constructor(\n    IERC20 _token,\n    IVerifier[3] memory _verifiers,\n    bytes32 _accountRoot\n  ) {\n    token = _token;\n    accountRoots[0] = _accountRoot;\n    depositVerifier = _verifiers[0];\n    withdrawVerifier = _verifiers[1];\n    treeUpdateVerifier = _verifiers[2];\n  }\n\n  function toDynamicArray(uint256[4] memory arr) internal pure returns (uint256[] memory) {\n    uint256[] memory res = new uint256[](4);\n    for (uint i = 0; i < arr.length; i++) {\n      res[i] = arr[i];\n    }\n    return res;\n  }\n\n  function toDynamicArray(uint256[7] memory arr) internal pure returns (uint256[] memory) {\n    uint256[] memory res = new uint256[](7);\n    for (uint i = 0; i < arr.length; i++) {\n      res[i] = arr[i];\n    }\n    return res;\n  }\n\n  function transfer(\n    bytes memory _fromProof,\n    TransferArgs memory _fromArgs,\n    bytes memory _toProof,\n    DepositArgs memory _toArgs,\n    bytes memory _fromTreeUpdateProof,\n    TreeUpdateArgs memory _fromTreeUpdateArgs,\n    bytes memory _toTreeUpdateProof,\n    TreeUpdateArgs memory _toTreeUpdateArgs\n  ) public {\n    require(_fromArgs.amount - _fromArgs.extData.fee == _toArgs.amount, \"Transfer is unfair\");\n    require(_fromArgs.extData.depositProofHash == keccak248(abi.encode(_toProof)), \"'from' proof hash does not match 'to' proof hash\");\n    // Check operation here to ensure that the proof is not used for burning\n    require(_toArgs.extData.operation == Operation.DEPOSIT, \"Incorrect operation\");\n\n    // Validate and update the `to` account\n    validateAccountUpdate(_toArgs.account, _toTreeUpdateProof, _toTreeUpdateArgs);\n    require(_toArgs.extDataHash == keccak248(abi.encode(_toArgs.extData)), \"Incorrect 'to' external data hash\");\n    require(\n      depositVerifier.verifyProof(\n        _toProof,\n        toDynamicArray([\n          uint256(_toArgs.amount),\n          uint256(_toArgs.extDataHash),\n          uint256(_toArgs.account.inputRoot),\n          uint256(_toArgs.account.inputNullifierHash),\n          uint256(_toArgs.account.outputRoot),\n          uint256(_toArgs.account.outputPathIndices),\n          uint256(_toArgs.account.outputCommitment)\n        ])\n      ),\n      \"Invalid deposit proof\"\n    );\n\n    accountNullifiers[_toArgs.account.inputNullifierHash] = true;\n    insertAccountRoot(_toArgs.account.inputRoot == getLastAccountRoot() ? _toArgs.account.outputRoot : _toTreeUpdateArgs.newRoot);\n\n    emit NewAccount(\n      _toArgs.account.outputCommitment,\n      _toArgs.account.inputNullifierHash,\n      _toArgs.extData.encryptedAccount,\n      accountCount - 1\n    );\n\n    // Validate and update the `from` account\n    validateAccountUpdate(_fromArgs.account, _fromTreeUpdateProof, _fromTreeUpdateArgs);\n    require(_fromArgs.extDataHash == keccak248(abi.encode(_fromArgs.extData)), \"Incorrect 'from' external data hash\");\n    require(\n      withdrawVerifier.verifyProof(\n        _fromProof,\n        toDynamicArray([\n          uint256(_fromArgs.amount),\n          uint256(_fromArgs.extDataHash),\n          uint256(_fromArgs.account.inputRoot),\n          uint256(_fromArgs.account.inputNullifierHash),\n          uint256(_fromArgs.account.outputRoot),\n          uint256(_fromArgs.account.outputPathIndices),\n          uint256(_fromArgs.account.outputCommitment)\n        ])\n      ),\n      \"Invalid withdrawal proof\"\n    );\n\n    if (_fromArgs.extData.fee > 0) {\n      token.transfer(_fromArgs.extData.relayer, _fromArgs.extData.fee);\n    }\n\n    accountNullifiers[_fromArgs.account.inputNullifierHash] = true;\n    insertAccountRoot(_fromArgs.account.inputRoot == getLastAccountRoot() ? _fromArgs.account.outputRoot : _fromTreeUpdateArgs.newRoot);\n\n    emit NewAccount(\n      _fromArgs.account.outputCommitment,\n      _fromArgs.account.inputNullifierHash,\n      _fromArgs.extData.encryptedAccount,\n      accountCount - 1\n    );\n  }\n\n  function beforeDeposit(\n    bytes memory _proof,\n    DepositArgs memory _args,\n    bytes memory _treeUpdateProof,\n    TreeUpdateArgs memory _treeUpdateArgs\n  ) internal {\n    validateAccountUpdate(_args.account, _treeUpdateProof, _treeUpdateArgs);\n    require(_args.extDataHash == keccak248(abi.encode(_args.extData)), \"Incorrect external data hash\");\n    require(\n      depositVerifier.verifyProof(\n        _proof,\n        toDynamicArray([\n          uint256(_args.amount),\n          uint256(_args.extDataHash),\n          uint256(_args.account.inputRoot),\n          uint256(_args.account.inputNullifierHash),\n          uint256(_args.account.outputRoot),\n          uint256(_args.account.outputPathIndices),\n          uint256(_args.account.outputCommitment)\n        ])\n      ),\n      \"Invalid deposit proof\"\n    );\n\n    accountNullifiers[_args.account.inputNullifierHash] = true;\n    insertAccountRoot(_args.account.inputRoot == getLastAccountRoot() ? _args.account.outputRoot : _treeUpdateArgs.newRoot);\n\n    emit NewAccount(\n      _args.account.outputCommitment,\n      _args.account.inputNullifierHash,\n      _args.extData.encryptedAccount,\n      accountCount - 1\n    );\n  }\n\n  function deposit(bytes memory _proof, DepositArgs memory _args) public virtual {\n    // Check operation here to ensure that the proof is not used for burning\n    require(_args.extData.operation == Operation.DEPOSIT, \"Incorrect operation\");\n    deposit(_proof, _args, new bytes(0), TreeUpdateArgs(0, 0, 0, 0));\n  }\n\n  function deposit(\n    bytes memory _proof,\n    DepositArgs memory _args,\n    bytes memory _treeUpdateProof,\n    TreeUpdateArgs memory _treeUpdateArgs\n  ) public virtual {\n    beforeDeposit(_proof, _args, _treeUpdateProof, _treeUpdateArgs);\n    token.safeTransferFrom(msg.sender, address(this), _args.amount);\n  }\n\n  function beforeWithdraw(\n    bytes memory _proof,\n    WithdrawArgs memory _args,\n    bytes memory _treeUpdateProof,\n    TreeUpdateArgs memory _treeUpdateArgs\n  ) internal {\n    validateAccountUpdate(_args.account, _treeUpdateProof, _treeUpdateArgs);\n    require(_args.extDataHash == keccak248(abi.encode(_args.extData)), \"Incorrect external data hash\");\n    require(_args.amount < 2**248, \"Amount value out of range\");\n    require(_args.amount >= _args.extData.fee, \"Amount should be >= than fee\");\n    require(\n      withdrawVerifier.verifyProof(\n        _proof,\n        toDynamicArray([\n          uint256(_args.amount),\n          uint256(_args.extDataHash),\n          uint256(_args.account.inputRoot),\n          uint256(_args.account.inputNullifierHash),\n          uint256(_args.account.outputRoot),\n          uint256(_args.account.outputPathIndices),\n          uint256(_args.account.outputCommitment)\n        ])\n      ),\n      \"Invalid withdrawal proof\"\n    );\n\n    insertAccountRoot(_args.account.inputRoot == getLastAccountRoot() ? _args.account.outputRoot : _treeUpdateArgs.newRoot);\n    accountNullifiers[_args.account.inputNullifierHash] = true;\n\n    emit NewAccount(\n      _args.account.outputCommitment,\n      _args.account.inputNullifierHash,\n      _args.extData.encryptedAccount,\n      accountCount - 1\n    );\n  }\n\n  function withdraw(bytes memory _proof, WithdrawArgs memory _args) public virtual {\n    // Check operation here to ensure that the proof is not used for minting\n    require(_args.extData.operation == Operation.WITHDRAW, \"Incorrect operation\");\n    withdraw(_proof, _args, new bytes(0), TreeUpdateArgs(0, 0, 0, 0));\n  }\n\n  function withdraw(\n    bytes memory _proof,\n    WithdrawArgs memory _args,\n    bytes memory _treeUpdateProof,\n    TreeUpdateArgs memory _treeUpdateArgs\n  ) public virtual {\n    beforeWithdraw(_proof, _args, _treeUpdateProof, _treeUpdateArgs);\n    uint256 amount = _args.amount.sub(_args.extData.fee, \"Amount should be greater than fee\");\n    if (amount > 0) {\n      token.transfer(_args.extData.recipient, amount);\n    }\n    if (_args.extData.fee > 0) {\n      token.transfer(_args.extData.relayer, _args.extData.fee);\n    }\n  }\n\n  // ------VIEW-------\n\n  /**\n    @dev Whether the root is present in the root history\n    */\n  function isKnownAccountRoot(bytes32 _root, uint256 _index) public view returns (bool) {\n    return _root != 0 && accountRoots[_index % ACCOUNT_ROOT_HISTORY_SIZE] == _root;\n  }\n\n  /**\n    @dev Returns the last root\n    */\n  function getLastAccountRoot() public view returns (bytes32) {\n    return accountRoots[accountCount % ACCOUNT_ROOT_HISTORY_SIZE];\n  }\n\n  // -----INTERNAL-------\n\n  function keccak248(bytes memory _data) internal pure returns (bytes32) {\n    return keccak256(_data) & 0x00ffffffffffffffffffffffffffffffffffffffffffffffffffffffffffffff;\n  }\n\n  function validateTreeUpdate(\n    bytes memory _proof,\n    TreeUpdateArgs memory _args,\n    bytes32 _commitment\n  ) internal view {\n    require(_proof.length > 0, \"Outdated account merkle root\");\n    require(_args.oldRoot == getLastAccountRoot(), \"Outdated tree update merkle root\");\n    require(_args.leaf == _commitment, \"Incorrect commitment inserted\");\n    require(_args.pathIndices == accountCount, \"Incorrect account insert index\");\n    require(\n      treeUpdateVerifier.verifyProof(\n        _proof,\n        toDynamicArray([uint256(_args.oldRoot), uint256(_args.newRoot), uint256(_args.leaf), uint256(_args.pathIndices)])\n      ),\n      \"Invalid tree update proof\"\n    );\n  }\n\n  function validateAccountUpdate(\n    AccountUpdate memory _account,\n    bytes memory _treeUpdateProof,\n    TreeUpdateArgs memory _treeUpdateArgs\n  ) internal view {\n    // Has to be a new nullifier hash\n    require(!accountNullifiers[_account.inputNullifierHash], \"Outdated account state\");\n    if (_account.inputRoot != getLastAccountRoot()) {\n      // _account.outputPathIndices (= last tree leaf index) is always equal to root index in the history mapping\n      // because we always generate a new root for each new leaf\n      require(isKnownAccountRoot(_account.inputRoot, _account.outputPathIndices), \"Invalid account root\");\n      validateTreeUpdate(_treeUpdateProof, _treeUpdateArgs, _account.outputCommitment);\n    } else {\n      require(_account.outputPathIndices == accountCount, \"Incorrect account insert index\");\n    }\n  }\n\n  function insertAccountRoot(bytes32 _root) internal {\n    accountRoots[++accountCount % ACCOUNT_ROOT_HISTORY_SIZE] = _root;\n  }\n}\n",
  "sourcePath": "/home/home/poof-v2-core/contracts/Poof.sol",
  "compiler": {
    "name": "solc",
    "version": "0.8.3+commit.8d00100c.Emscripten.clang"
  },
  "schemaVersion": "3.4.3",
  "updatedAt": "2021-09-17T12:26:09.339Z",
  "devdoc": {
    "kind": "dev",
    "methods": {
      "getLastAccountRoot()": {
        "details": "Returns the last root"
      },
      "isKnownAccountRoot(bytes32,uint256)": {
        "details": "Whether the root is present in the root history"
      }
    },
    "version": 1
  },
  "userdoc": {
    "kind": "user",
    "methods": {},
    "version": 1
  }
}