{
  "contractName": "Poof",
  "abi": [
    {
      "inputs": [
        {
          "internalType": "contract IERC20",
          "name": "_token",
          "type": "address"
        },
        {
          "internalType": "address[3]",
          "name": "_verifiers",
          "type": "address[3]"
        },
        {
          "internalType": "bytes32",
          "name": "_accountRoot",
          "type": "bytes32"
        }
      ],
      "stateMutability": "nonpayable",
      "type": "constructor"
    },
    {
      "anonymous": false,
      "inputs": [
        {
          "indexed": false,
          "internalType": "bytes32",
          "name": "commitment",
          "type": "bytes32"
        },
        {
          "indexed": false,
          "internalType": "bytes32",
          "name": "nullifier",
          "type": "bytes32"
        },
        {
          "indexed": false,
          "internalType": "bytes",
          "name": "encryptedAccount",
          "type": "bytes"
        },
        {
          "indexed": false,
          "internalType": "uint256",
          "name": "index",
          "type": "uint256"
        }
      ],
      "name": "NewAccount",
      "type": "event"
    },
    {
      "anonymous": false,
      "inputs": [
        {
          "indexed": true,
          "internalType": "address",
          "name": "previousOwner",
          "type": "address"
        },
        {
          "indexed": true,
          "internalType": "address",
          "name": "newOwner",
          "type": "address"
        }
      ],
      "name": "OwnershipTransferred",
      "type": "event"
    },
    {
      "anonymous": false,
      "inputs": [
        {
          "indexed": false,
          "internalType": "address",
          "name": "deposit",
          "type": "address"
        },
        {
          "indexed": false,
          "internalType": "address",
          "name": "withdraw",
          "type": "address"
        },
        {
          "indexed": false,
          "internalType": "address",
          "name": "treeUpdate",
          "type": "address"
        }
      ],
      "name": "VerifiersUpdated",
      "type": "event"
    },
    {
      "inputs": [],
      "name": "ACCOUNT_ROOT_HISTORY_SIZE",
      "outputs": [
        {
          "internalType": "uint256",
          "name": "",
          "type": "uint256"
        }
      ],
      "stateMutability": "view",
      "type": "function",
      "constant": true
    },
    {
      "inputs": [],
      "name": "accountCount",
      "outputs": [
        {
          "internalType": "uint256",
          "name": "",
          "type": "uint256"
        }
      ],
      "stateMutability": "view",
      "type": "function",
      "constant": true
    },
    {
      "inputs": [
        {
          "internalType": "bytes32",
          "name": "",
          "type": "bytes32"
        }
      ],
      "name": "accountNullifiers",
      "outputs": [
        {
          "internalType": "bool",
          "name": "",
          "type": "bool"
        }
      ],
      "stateMutability": "view",
      "type": "function",
      "constant": true
    },
    {
      "inputs": [
        {
          "internalType": "uint256",
          "name": "",
          "type": "uint256"
        }
      ],
      "name": "accountRoots",
      "outputs": [
        {
          "internalType": "bytes32",
          "name": "",
          "type": "bytes32"
        }
      ],
      "stateMutability": "view",
      "type": "function",
      "constant": true
    },
    {
      "inputs": [],
      "name": "depositVerifier",
      "outputs": [
        {
          "internalType": "contract IVerifier",
          "name": "",
          "type": "address"
        }
      ],
      "stateMutability": "view",
      "type": "function",
      "constant": true
    },
    {
      "inputs": [],
      "name": "owner",
      "outputs": [
        {
          "internalType": "address",
          "name": "",
          "type": "address"
        }
      ],
      "stateMutability": "view",
      "type": "function",
      "constant": true
    },
    {
      "inputs": [],
      "name": "renounceOwnership",
      "outputs": [],
      "stateMutability": "nonpayable",
      "type": "function"
    },
    {
      "inputs": [],
      "name": "token",
      "outputs": [
        {
          "internalType": "contract IERC20",
          "name": "",
          "type": "address"
        }
      ],
      "stateMutability": "view",
      "type": "function",
      "constant": true
    },
    {
      "inputs": [
        {
          "internalType": "address",
          "name": "newOwner",
          "type": "address"
        }
      ],
      "name": "transferOwnership",
      "outputs": [],
      "stateMutability": "nonpayable",
      "type": "function"
    },
    {
      "inputs": [],
      "name": "treeUpdateVerifier",
      "outputs": [
        {
          "internalType": "contract IVerifier",
          "name": "",
          "type": "address"
        }
      ],
      "stateMutability": "view",
      "type": "function",
      "constant": true
    },
    {
      "inputs": [],
      "name": "withdrawVerifier",
      "outputs": [
        {
          "internalType": "contract IVerifier",
          "name": "",
          "type": "address"
        }
      ],
      "stateMutability": "view",
      "type": "function",
      "constant": true
    },
    {
      "inputs": [
        {
          "internalType": "bytes",
          "name": "_proof",
          "type": "bytes"
        },
        {
          "components": [
            {
              "internalType": "uint256",
              "name": "amount",
              "type": "uint256"
            },
            {
              "internalType": "bytes32",
              "name": "extDataHash",
              "type": "bytes32"
            },
            {
              "components": [
                {
                  "internalType": "bytes",
                  "name": "encryptedAccount",
                  "type": "bytes"
                }
              ],
              "internalType": "struct Poof.DepositExtData",
              "name": "extData",
              "type": "tuple"
            },
            {
              "components": [
                {
                  "internalType": "bytes32",
                  "name": "inputRoot",
                  "type": "bytes32"
                },
                {
                  "internalType": "bytes32",
                  "name": "inputNullifierHash",
                  "type": "bytes32"
                },
                {
                  "internalType": "bytes32",
                  "name": "outputRoot",
                  "type": "bytes32"
                },
                {
                  "internalType": "uint256",
                  "name": "outputPathIndices",
                  "type": "uint256"
                },
                {
                  "internalType": "bytes32",
                  "name": "outputCommitment",
                  "type": "bytes32"
                }
              ],
              "internalType": "struct Poof.AccountUpdate",
              "name": "account",
              "type": "tuple"
            }
          ],
          "internalType": "struct Poof.DepositArgs",
          "name": "_args",
          "type": "tuple"
        },
        {
          "internalType": "bytes",
          "name": "_treeUpdateProof",
          "type": "bytes"
        },
        {
          "components": [
            {
              "internalType": "bytes32",
              "name": "oldRoot",
              "type": "bytes32"
            },
            {
              "internalType": "bytes32",
              "name": "newRoot",
              "type": "bytes32"
            },
            {
              "internalType": "bytes32",
              "name": "leaf",
              "type": "bytes32"
            },
            {
              "internalType": "uint256",
              "name": "pathIndices",
              "type": "uint256"
            }
          ],
          "internalType": "struct Poof.TreeUpdateArgs",
          "name": "_treeUpdateArgs",
          "type": "tuple"
        }
      ],
      "name": "deposit",
      "outputs": [],
      "stateMutability": "nonpayable",
      "type": "function"
    },
    {
      "inputs": [
        {
          "internalType": "bytes",
          "name": "_proof",
          "type": "bytes"
        },
        {
          "components": [
            {
              "internalType": "uint256",
              "name": "amount",
              "type": "uint256"
            },
            {
              "internalType": "bytes32",
              "name": "extDataHash",
              "type": "bytes32"
            },
            {
              "components": [
                {
                  "internalType": "bytes",
                  "name": "encryptedAccount",
                  "type": "bytes"
                }
              ],
              "internalType": "struct Poof.DepositExtData",
              "name": "extData",
              "type": "tuple"
            },
            {
              "components": [
                {
                  "internalType": "bytes32",
                  "name": "inputRoot",
                  "type": "bytes32"
                },
                {
                  "internalType": "bytes32",
                  "name": "inputNullifierHash",
                  "type": "bytes32"
                },
                {
                  "internalType": "bytes32",
                  "name": "outputRoot",
                  "type": "bytes32"
                },
                {
                  "internalType": "uint256",
                  "name": "outputPathIndices",
                  "type": "uint256"
                },
                {
                  "internalType": "bytes32",
                  "name": "outputCommitment",
                  "type": "bytes32"
                }
              ],
              "internalType": "struct Poof.AccountUpdate",
              "name": "account",
              "type": "tuple"
            }
          ],
          "internalType": "struct Poof.DepositArgs",
          "name": "_args",
          "type": "tuple"
        }
      ],
      "name": "deposit",
      "outputs": [],
      "stateMutability": "nonpayable",
      "type": "function"
    },
    {
      "inputs": [
        {
          "internalType": "bytes",
          "name": "_proof",
          "type": "bytes"
        },
        {
          "components": [
            {
              "internalType": "uint256",
              "name": "amount",
              "type": "uint256"
            },
            {
              "internalType": "bytes32",
              "name": "extDataHash",
              "type": "bytes32"
            },
            {
              "components": [
                {
                  "internalType": "uint256",
                  "name": "fee",
                  "type": "uint256"
                },
                {
                  "internalType": "address",
                  "name": "recipient",
                  "type": "address"
                },
                {
                  "internalType": "address",
                  "name": "relayer",
                  "type": "address"
                },
                {
                  "internalType": "bytes",
                  "name": "encryptedAccount",
                  "type": "bytes"
                }
              ],
              "internalType": "struct Poof.WithdrawExtData",
              "name": "extData",
              "type": "tuple"
            },
            {
              "components": [
                {
                  "internalType": "bytes32",
                  "name": "inputRoot",
                  "type": "bytes32"
                },
                {
                  "internalType": "bytes32",
                  "name": "inputNullifierHash",
                  "type": "bytes32"
                },
                {
                  "internalType": "bytes32",
                  "name": "outputRoot",
                  "type": "bytes32"
                },
                {
                  "internalType": "uint256",
                  "name": "outputPathIndices",
                  "type": "uint256"
                },
                {
                  "internalType": "bytes32",
                  "name": "outputCommitment",
                  "type": "bytes32"
                }
              ],
              "internalType": "struct Poof.AccountUpdate",
              "name": "account",
              "type": "tuple"
            }
          ],
          "internalType": "struct Poof.WithdrawArgs",
          "name": "_args",
          "type": "tuple"
        }
      ],
      "name": "withdraw",
      "outputs": [],
      "stateMutability": "nonpayable",
      "type": "function"
    },
    {
      "inputs": [
        {
          "internalType": "bytes",
          "name": "_proof",
          "type": "bytes"
        },
        {
          "components": [
            {
              "internalType": "uint256",
              "name": "amount",
              "type": "uint256"
            },
            {
              "internalType": "bytes32",
              "name": "extDataHash",
              "type": "bytes32"
            },
            {
              "components": [
                {
                  "internalType": "uint256",
                  "name": "fee",
                  "type": "uint256"
                },
                {
                  "internalType": "address",
                  "name": "recipient",
                  "type": "address"
                },
                {
                  "internalType": "address",
                  "name": "relayer",
                  "type": "address"
                },
                {
                  "internalType": "bytes",
                  "name": "encryptedAccount",
                  "type": "bytes"
                }
              ],
              "internalType": "struct Poof.WithdrawExtData",
              "name": "extData",
              "type": "tuple"
            },
            {
              "components": [
                {
                  "internalType": "bytes32",
                  "name": "inputRoot",
                  "type": "bytes32"
                },
                {
                  "internalType": "bytes32",
                  "name": "inputNullifierHash",
                  "type": "bytes32"
                },
                {
                  "internalType": "bytes32",
                  "name": "outputRoot",
                  "type": "bytes32"
                },
                {
                  "internalType": "uint256",
                  "name": "outputPathIndices",
                  "type": "uint256"
                },
                {
                  "internalType": "bytes32",
                  "name": "outputCommitment",
                  "type": "bytes32"
                }
              ],
              "internalType": "struct Poof.AccountUpdate",
              "name": "account",
              "type": "tuple"
            }
          ],
          "internalType": "struct Poof.WithdrawArgs",
          "name": "_args",
          "type": "tuple"
        },
        {
          "internalType": "bytes",
          "name": "_treeUpdateProof",
          "type": "bytes"
        },
        {
          "components": [
            {
              "internalType": "bytes32",
              "name": "oldRoot",
              "type": "bytes32"
            },
            {
              "internalType": "bytes32",
              "name": "newRoot",
              "type": "bytes32"
            },
            {
              "internalType": "bytes32",
              "name": "leaf",
              "type": "bytes32"
            },
            {
              "internalType": "uint256",
              "name": "pathIndices",
              "type": "uint256"
            }
          ],
          "internalType": "struct Poof.TreeUpdateArgs",
          "name": "_treeUpdateArgs",
          "type": "tuple"
        }
      ],
      "name": "withdraw",
      "outputs": [],
      "stateMutability": "nonpayable",
      "type": "function"
    },
    {
      "inputs": [
        {
          "internalType": "contract IVerifier[3]",
          "name": "_verifiers",
          "type": "address[3]"
        }
      ],
      "name": "setVerifiers",
      "outputs": [],
      "stateMutability": "nonpayable",
      "type": "function"
    },
    {
      "inputs": [
        {
          "internalType": "bytes32",
          "name": "_root",
          "type": "bytes32"
        },
        {
          "internalType": "uint256",
          "name": "_index",
          "type": "uint256"
        }
      ],
      "name": "isKnownAccountRoot",
      "outputs": [
        {
          "internalType": "bool",
          "name": "",
          "type": "bool"
        }
      ],
      "stateMutability": "view",
      "type": "function",
      "constant": true
    },
    {
      "inputs": [],
      "name": "getLastAccountRoot",
      "outputs": [
        {
          "internalType": "bytes32",
          "name": "",
          "type": "bytes32"
        }
      ],
      "stateMutability": "view",
      "type": "function",
      "constant": true
    }
  ],
  "bytecode": "0x60806040523480156200001157600080fd5b5060405162001cea38038062001cea83398101604081905262000034916200018c565b6200003f336200009f565b600180546001600160a01b0319166001600160a01b038581169190911790915560078290556040805160608101825284518316815260208086015184169082015284820151909216908201526200009690620000ef565b5050506200026a565b600080546001600160a01b038381166001600160a01b0319831681178455604051919092169283917f8be0079c531659141344cd1fd0a4f28419497f9722a3daafe3b4186f6b6457e09190a35050565b8051600280546001600160a01b039283166001600160a01b031991821681179092556020808501516003805491861691841682179055604080870151600480549190971694168417909555845193845290830152918101919091527fcdb44c0a599b75813fe4a4593f032c7cfd38aa9e6461ba99a31aba3540b502109060600160405180910390a150565b8051620001878162000251565b919050565b600080600060a08486031215620001a1578283fd5b8351620001ae8162000251565b92506020603f85018613620001c1578283fd5b604051606081016001600160401b0381118282101715620001e657620001e66200023b565b604052808683016080880189811115620001fe578687fd5b865b6003811015620002285762000215836200017a565b8452928501929185019160010162000200565b5051969992985095965090945050505050565b634e487b7160e01b600052604160045260246000fd5b6001600160a01b03811681146200026757600080fd5b50565b611a70806200027a6000396000f3fe608060405234801561001057600080fd5b50600436106101165760003560e01c8063864eb164116100a2578063c6a4b05311610071578063c6a4b0531461023c578063e4af29fc1461024f578063f1b4899714610258578063f2fde38b1461026b578063fc0c546a1461027e57610116565b8063864eb164146101f25780638da5cb5b1461020557806397f098d714610216578063c2c267751461022957610116565b80634a20de58116100e95780634a20de58146101a957806352ef8e96146101bc578063715018a6146101c457806377c55be5146101cc5780637d9af914146101df57610116565b8063098757fe1461011b5780631311b6e81461013057806326120c881461014b57806342a660b014610176575b600080fd5b61012e61012936600461163e565b610291565b005b610138610511565b6040519081526020015b60405180910390f35b60025461015e906001600160a01b031681565b6040516001600160a01b039091168152602001610142565b6101996101843660046115a4565b60056020526000908152604090205460ff1681565b6040519015158152602001610142565b60045461015e906001600160a01b031681565b610138606481565b61012e610549565b61012e6101da36600461155e565b61057f565b61012e6101ed3660046116d4565b6105da565b60035461015e906001600160a01b031681565b6000546001600160a01b031661015e565b6101996102243660046115bc565b610613565b61012e61023736600461172b565b610656565b61013861024a3660046115a4565b610a5f565b61013860065481565b61012e6102663660046115dd565b610a76565b61012e610279366004611544565b610aab565b60015461015e906001600160a01b031681565b6102a083606001518383610b43565b6102cc83604001516040516020016102b891906118dc565b604051602081830303815290604052610c73565b8360200151146103235760405162461bcd60e51b815260206004820152601c60248201527f496e636f72726563742065787465726e616c206461746120686173680000000060448201526064015b60405180910390fd5b8251600154610341916001600160a01b039091169033903090610c89565b6002546040805160e081018252855181526020808701518183015260608088018051518486015280519092015181840152815184015160808085019190915282519091015160a08401529051015160c0820152905163598da1d160e01b81526001600160a01b039092169163598da1d1916103c191889190600401611857565b60206040518083038186803b1580156103d957600080fd5b505afa1580156103ed573d6000803e3d6000fd5b505050506040513d601f19601f820116820180604052508101906104119190611584565b6104555760405162461bcd60e51b815260206004820152601560248201527424b73b30b634b2103232b837b9b4ba10383937b7b360591b604482015260640161031a565b60608301516020908101516000908152600590915260409020805460ff191660011790556104a8610484610511565b606085015151146104995781602001516104a3565b8360600151604001515b610ce9565b7fbd4a5ca11c6f082fd6d00dc9d1dced6ab22490039bc36154bfa748bf2bf7435583606001516080015184606001516020015185604001516000015160016006546104f3919061196f565b60405161050394939291906117e1565b60405180910390a150505050565b60006007606460065461052491906119cd565b6064811061054257634e487b7160e01b600052603260045260246000fd5b0154905090565b6000546001600160a01b031633146105735760405162461bcd60e51b815260040161031a906118a7565b61057d6000610d2f565b565b6000546001600160a01b031633146105a95760405162461bcd60e51b815260040161031a906118a7565b6040805160608181019092526105d79183906003908390839080828437600092019190915250610d7f915050565b50565b60408051600080825260a0820183526020820181815292820181905260608201819052608082015261060f9184918491610656565b5050565b6000821580159061064f575082600761062d6064856119cd565b6064811061064b57634e487b7160e01b600052603260045260246000fd5b0154145b9392505050565b61066583606001518383610b43565b61067d83604001516040516020016102b891906118f7565b8360200151146106cf5760405162461bcd60e51b815260206004820152601c60248201527f496e636f72726563742065787465726e616c2064617461206861736800000000604482015260640161031a565b8251600160f81b116107235760405162461bcd60e51b815260206004820152601960248201527f416d6f756e742076616c7565206f7574206f662072616e676500000000000000604482015260640161031a565b6003546040805160e081018252855181526020808701518183015260608088018051518486015280519092015181840152815184015160808085019190915282519091015160a08401529051015160c0820152905163598da1d160e01b81526001600160a01b039092169163598da1d1916107a391889190600401611857565b60206040518083038186803b1580156107bb57600080fd5b505afa1580156107cf573d6000803e3d6000fd5b505050506040513d601f19601f820116820180604052508101906107f39190611584565b61083f5760405162461bcd60e51b815260206004820152601860248201527f496e76616c6964207769746864726177616c2070726f6f660000000000000000604482015260640161031a565b600061086f846040015160000151604051806060016040528060218152602001611a1a6021913986519190610e0a565b905080156109075760015460408581015160200151905163a9059cbb60e01b81526001600160a01b0391821660048201526024810184905291169063a9059cbb90604401602060405180830381600087803b1580156108cd57600080fd5b505af11580156108e1573d6000803e3d6000fd5b505050506040513d601f19601f820116820180604052508101906109059190611584565b505b604084015151156109a657600154604085810151808201519051915163a9059cbb60e01b81526001600160a01b03918216600482015260248101929092529091169063a9059cbb90604401602060405180830381600087803b15801561096c57600080fd5b505af1158015610980573d6000803e3d6000fd5b505050506040513d601f19601f820116820180604052508101906109a49190611584565b505b6109d46109b1610511565b606086015151146109c65782602001516104a3565b846060015160400151610ce9565b60608085018051602090810151600090815260058252604090819020805460ff191660019081179091559251608081015192015190880151909301516006547fbd4a5ca11c6f082fd6d00dc9d1dced6ab22490039bc36154bfa748bf2bf74355949293610a409161196f565b604051610a5094939291906117e1565b60405180910390a15050505050565b60078160648110610a6f57600080fd5b0154905081565b60408051600080825260a0820183526020820181815292820181905260608201819052608082015261060f9184918491610291565b6000546001600160a01b03163314610ad55760405162461bcd60e51b815260040161031a906118a7565b6001600160a01b038116610b3a5760405162461bcd60e51b815260206004820152602660248201527f4f776e61626c653a206e6577206f776e657220697320746865207a65726f206160448201526564647265737360d01b606482015260840161031a565b6105d781610d2f565b60208084015160009081526005909152604090205460ff1615610ba15760405162461bcd60e51b81526020600482015260166024820152754f75746461746564206163636f756e7420737461746560501b604482015260640161031a565b610ba9610511565b835114610c1957610bc283600001518460600151610613565b610c055760405162461bcd60e51b8152602060048201526014602482015273125b9d985b1a59081858d8dbdd5b9d081c9bdbdd60621b604482015260640161031a565b610c1482828560800151610e36565b610c6e565b600654836060015114610c6e5760405162461bcd60e51b815260206004820152601e60248201527f496e636f7272656374206163636f756e7420696e7365727420696e6465780000604482015260640161031a565b505050565b805160208201206001600160f81b03165b919050565b604080516001600160a01b0385811660248301528416604482015260648082018490528251808303909101815260849091019091526020810180516001600160e01b03166323b872dd60e01b179052610ce390859061107c565b50505050565b8060076064600660008154610cfd906119b2565b9182905550610d0c91906119cd565b60648110610d2a57634e487b7160e01b600052603260045260246000fd5b015550565b600080546001600160a01b038381166001600160a01b0319831681178455604051919092169283917f8be0079c531659141344cd1fd0a4f28419497f9722a3daafe3b4186f6b6457e09190a35050565b8051600280546001600160a01b039283166001600160a01b031991821681179092556020808501516003805491861691841682179055604080870151600480549190971694168417909555845193845290830152918101919091527fcdb44c0a599b75813fe4a4593f032c7cfd38aa9e6461ba99a31aba3540b502109060600160405180910390a150565b60008184841115610e2e5760405162461bcd60e51b815260040161031a9190611894565b505050900390565b6000835111610e875760405162461bcd60e51b815260206004820152601c60248201527f4f75746461746564206163636f756e74206d65726b6c6520726f6f7400000000604482015260640161031a565b610e8f610511565b825114610ede5760405162461bcd60e51b815260206004820181905260248201527f4f75746461746564207472656520757064617465206d65726b6c6520726f6f74604482015260640161031a565b80826040015114610f315760405162461bcd60e51b815260206004820152601d60248201527f496e636f727265637420636f6d6d69746d656e7420696e736572746564000000604482015260640161031a565b600654826060015114610f865760405162461bcd60e51b815260206004820152601e60248201527f496e636f7272656374206163636f756e7420696e7365727420696e6465780000604482015260640161031a565b6004805460408051608081018252855181526020808701519082015285820151818301526060808701519082015290516335f8315960e11b81526001600160a01b0390921692636bf062b292610fe0928892909101611811565b60206040518083038186803b158015610ff857600080fd5b505afa15801561100c573d6000803e3d6000fd5b505050506040513d601f19601f820116820180604052508101906110309190611584565b610c6e5760405162461bcd60e51b815260206004820152601960248201527f496e76616c69642074726565207570646174652070726f6f6600000000000000604482015260640161031a565b60006110d1826040518060400160405280602081526020017f5361666545524332303a206c6f772d6c6576656c2063616c6c206661696c6564815250856001600160a01b031661114e9092919063ffffffff16565b805190915015610c6e57808060200190518101906110ef9190611584565b610c6e5760405162461bcd60e51b815260206004820152602a60248201527f5361666545524332303a204552433230206f7065726174696f6e20646964206e6044820152691bdd081cdd58d8d9595960b21b606482015260840161031a565b606061115d8484600085611165565b949350505050565b6060824710156111c65760405162461bcd60e51b815260206004820152602660248201527f416464726573733a20696e73756666696369656e742062616c616e636520666f6044820152651c8818d85b1b60d21b606482015260840161031a565b843b6112145760405162461bcd60e51b815260206004820152601d60248201527f416464726573733a2063616c6c20746f206e6f6e2d636f6e7472616374000000604482015260640161031a565b600080866001600160a01b0316858760405161123091906117c5565b60006040518083038185875af1925050503d806000811461126d576040519150601f19603f3d011682016040523d82523d6000602084013e611272565b606091505b509150915061128282828661128d565b979650505050505050565b6060831561129c57508161064f565b8251156112ac5782518084602001fd5b8160405162461bcd60e51b815260040161031a9190611894565b80356001600160a01b0381168114610c8457600080fd5b600082601f8301126112ed578081fd5b813567ffffffffffffffff81111561130757611307611a03565b61131a601f8201601f191660200161193e565b81815284602083860101111561132e578283fd5b816020850160208301379081016020019190915292915050565b600060a08284031215611359578081fd5b61136360a061193e565b9050813581526020820135602082015260408201356040820152606082013560608201526080820135608082015292915050565b600061010082840312156113a9578081fd5b6113b3608061193e565b90508135815260208201356020820152604082013567ffffffffffffffff808211156113de57600080fd5b90830190602082860312156113f257600080fd5b6113fc602061193e565b82358281111561140b57600080fd5b611417878286016112dd565b82525060408401525061142f90508360608401611348565b606082015292915050565b60006080828403121561144b578081fd5b611455608061193e565b90508135815260208201356020820152604082013560408201526060820135606082015292915050565b60006101008284031215611491578081fd5b61149b608061193e565b90508135815260208201356020820152604082013567ffffffffffffffff808211156114c657600080fd5b90830190608082860312156114da57600080fd5b6114e4608061193e565b823581526114f4602084016112c6565b6020820152611505604084016112c6565b604082015260608301358281111561151c57600080fd5b611528878286016112dd565b60608301525080604085015250505061142f8360608401611348565b600060208284031215611555578081fd5b61064f826112c6565b60006060828403121561156f578081fd5b8260608301111561157e578081fd5b50919050565b600060208284031215611595578081fd5b8151801515811461064f578182fd5b6000602082840312156115b5578081fd5b5035919050565b600080604083850312156115ce578081fd5b50508035926020909101359150565b600080604083850312156115ef578182fd5b823567ffffffffffffffff80821115611606578384fd5b611612868387016112dd565b93506020850135915080821115611627578283fd5b5061163485828601611397565b9150509250929050565b60008060008060e08587031215611653578182fd5b843567ffffffffffffffff8082111561166a578384fd5b611676888389016112dd565b9550602087013591508082111561168b578384fd5b61169788838901611397565b945060408701359150808211156116ac578384fd5b506116b9878288016112dd565b9250506116c9866060870161143a565b905092959194509250565b600080604083850312156116e6578182fd5b823567ffffffffffffffff808211156116fd578384fd5b611709868387016112dd565b9350602085013591508082111561171e578283fd5b506116348582860161147f565b60008060008060e08587031215611740578081fd5b843567ffffffffffffffff80821115611757578283fd5b611763888389016112dd565b95506020870135915080821115611778578283fd5b6117848883890161147f565b945060408701359150808211156116ac578283fd5b600081518084526117b1816020860160208601611986565b601f01601f19169290920160200192915050565b600082516117d7818460208701611986565b9190910192915050565b6000858252846020830152608060408301526118006080830185611799565b905082606083015295945050505050565b600060a0825261182460a0830185611799565b905060208083018460005b600481101561184c5781518352918301919083019060010161182f565b505050509392505050565b600061010080835261186b81840186611799565b91505060208083018460005b600781101561184c57815183529183019190830190600101611877565b60006020825261064f6020830184611799565b6020808252818101527f4f776e61626c653a2063616c6c6572206973206e6f7420746865206f776e6572604082015260600190565b600060208252825160208084015261115d6040840182611799565b60006020825282516020830152602083015160018060a01b0380821660408501528060408601511660608501525050606083015160808084015261115d60a0840182611799565b604051601f8201601f1916810167ffffffffffffffff8111828210171561196757611967611a03565b604052919050565b600082821015611981576119816119ed565b500390565b60005b838110156119a1578181015183820152602001611989565b83811115610ce35750506000910152565b60006000198214156119c6576119c66119ed565b5060010190565b6000826119e857634e487b7160e01b81526012600452602481fd5b500690565b634e487b7160e01b600052601160045260246000fd5b634e487b7160e01b600052604160045260246000fdfe416d6f756e742073686f756c642062652067726561746572207468616e20666565a26469706673582212205ba948afc5f5cbc0293dccc7511484dc9ff42160fb643b1c6842c5ef5872a6b564736f6c63430008030033",
  "immutableReferences": {},
  "source": "// SPDX-License-Identifier: MIT\n\npragma solidity ^0.8.0;\n\nimport \"@openzeppelin/contracts/access/Ownable.sol\";\nimport \"@openzeppelin/contracts/token/ERC20/utils/SafeERC20.sol\";\nimport \"@openzeppelin/contracts/token/ERC20/IERC20.sol\";\nimport \"@openzeppelin/contracts/utils/math/SafeMath.sol\";\n\nimport \"./interfaces/IVerifier.sol\";\n\ncontract Poof is Ownable {\n  using SafeMath for uint256;\n  using SafeERC20 for IERC20;\n\n  IERC20 public token;\n\n  IVerifier public depositVerifier;\n  IVerifier public withdrawVerifier;\n  IVerifier public treeUpdateVerifier;\n\n  mapping(bytes32 => bool) public accountNullifiers;\n\n  uint256 public accountCount;\n  uint256 public constant ACCOUNT_ROOT_HISTORY_SIZE = 100;\n  bytes32[ACCOUNT_ROOT_HISTORY_SIZE] public accountRoots;\n\n  event NewAccount(bytes32 commitment, bytes32 nullifier, bytes encryptedAccount, uint256 index);\n  event VerifiersUpdated(address deposit, address withdraw, address treeUpdate);\n\n  struct TreeUpdateArgs {\n    bytes32 oldRoot;\n    bytes32 newRoot;\n    bytes32 leaf;\n    uint256 pathIndices;\n  }\n\n  struct AccountUpdate {\n    bytes32 inputRoot;\n    bytes32 inputNullifierHash;\n    bytes32 outputRoot;\n    uint256 outputPathIndices;\n    bytes32 outputCommitment;\n  }\n\n  struct DepositExtData {\n    bytes encryptedAccount;\n  }\n\n  struct DepositArgs {\n    uint256 amount;\n    bytes32 extDataHash;\n    DepositExtData extData;\n    AccountUpdate account;\n  }\n\n  struct WithdrawExtData {\n    uint256 fee;\n    address recipient;\n    address relayer;\n    bytes encryptedAccount;\n  }\n\n  struct WithdrawArgs {\n    uint256 amount;\n    bytes32 extDataHash;\n    WithdrawExtData extData;\n    AccountUpdate account;\n  }\n\n  struct Rate {\n    address instance;\n    uint256 value;\n  }\n\n  constructor(\n    IERC20 _token,\n    address[3] memory _verifiers,\n    bytes32 _accountRoot\n  ) {\n    token = _token;\n    accountRoots[0] = _accountRoot;\n    // prettier-ignore\n    _setVerifiers([\n      IVerifier(_verifiers[0]),\n      IVerifier(_verifiers[1]),\n      IVerifier(_verifiers[2])\n    ]);\n  }\n\n  function deposit(bytes memory _proof, DepositArgs memory _args) public {\n    deposit(_proof, _args, new bytes(0), TreeUpdateArgs(0, 0, 0, 0));\n  }\n\n  function deposit(\n    bytes memory _proof,\n    DepositArgs memory _args,\n    bytes memory _treeUpdateProof,\n    TreeUpdateArgs memory _treeUpdateArgs\n  ) public {\n    validateAccountUpdate(_args.account, _treeUpdateProof, _treeUpdateArgs);\n    require(_args.extDataHash == keccak248(abi.encode(_args.extData)), \"Incorrect external data hash\");\n    token.safeTransferFrom(msg.sender, address(this), _args.amount);\n    require(\n      depositVerifier.verifyProof(\n        _proof,\n        [\n          uint256(_args.amount),\n          uint256(_args.extDataHash),\n          uint256(_args.account.inputRoot),\n          uint256(_args.account.inputNullifierHash),\n          uint256(_args.account.outputRoot),\n          uint256(_args.account.outputPathIndices),\n          uint256(_args.account.outputCommitment)\n        ]\n      ),\n      \"Invalid deposit proof\"\n    );\n\n    accountNullifiers[_args.account.inputNullifierHash] = true;\n    insertAccountRoot(_args.account.inputRoot == getLastAccountRoot() ? _args.account.outputRoot : _treeUpdateArgs.newRoot);\n\n    emit NewAccount(\n      _args.account.outputCommitment,\n      _args.account.inputNullifierHash,\n      _args.extData.encryptedAccount,\n      accountCount - 1\n    );\n  }\n\n  function withdraw(bytes memory _proof, WithdrawArgs memory _args) public {\n    withdraw(_proof, _args, new bytes(0), TreeUpdateArgs(0, 0, 0, 0));\n  }\n\n  function withdraw(\n    bytes memory _proof,\n    WithdrawArgs memory _args,\n    bytes memory _treeUpdateProof,\n    TreeUpdateArgs memory _treeUpdateArgs\n  ) public {\n    validateAccountUpdate(_args.account, _treeUpdateProof, _treeUpdateArgs);\n    require(_args.extDataHash == keccak248(abi.encode(_args.extData)), \"Incorrect external data hash\");\n    require(_args.amount < 2**248, \"Amount value out of range\");\n    require(\n      withdrawVerifier.verifyProof(\n        _proof,\n        [\n          uint256(_args.amount),\n          uint256(_args.extDataHash),\n          uint256(_args.account.inputRoot),\n          uint256(_args.account.inputNullifierHash),\n          uint256(_args.account.outputRoot),\n          uint256(_args.account.outputPathIndices),\n          uint256(_args.account.outputCommitment)\n        ]\n      ),\n      \"Invalid withdrawal proof\"\n    );\n    uint256 amount = _args.amount.sub(_args.extData.fee, \"Amount should be greater than fee\");\n    if (amount > 0) {\n      token.transfer(_args.extData.recipient, amount);\n    }\n    // Note. The relayer swap rate always will be worse than estimated\n    if (_args.extData.fee > 0) {\n      token.transfer(_args.extData.relayer, _args.extData.fee);\n    }\n\n    insertAccountRoot(_args.account.inputRoot == getLastAccountRoot() ? _args.account.outputRoot : _treeUpdateArgs.newRoot);\n    accountNullifiers[_args.account.inputNullifierHash] = true;\n\n    emit NewAccount(\n      _args.account.outputCommitment,\n      _args.account.inputNullifierHash,\n      _args.extData.encryptedAccount,\n      accountCount - 1\n    );\n  }\n\n  function setVerifiers(IVerifier[3] calldata _verifiers) external onlyOwner {\n    _setVerifiers(_verifiers);\n  }\n\n  // ------VIEW-------\n\n  /**\n    @dev Whether the root is present in the root history\n    */\n  function isKnownAccountRoot(bytes32 _root, uint256 _index) public view returns (bool) {\n    return _root != 0 && accountRoots[_index % ACCOUNT_ROOT_HISTORY_SIZE] == _root;\n  }\n\n  /**\n    @dev Returns the last root\n    */\n  function getLastAccountRoot() public view returns (bytes32) {\n    return accountRoots[accountCount % ACCOUNT_ROOT_HISTORY_SIZE];\n  }\n\n  // -----INTERNAL-------\n\n  function keccak248(bytes memory _data) internal pure returns (bytes32) {\n    return keccak256(_data) & 0x00ffffffffffffffffffffffffffffffffffffffffffffffffffffffffffffff;\n  }\n\n  function validateTreeUpdate(\n    bytes memory _proof,\n    TreeUpdateArgs memory _args,\n    bytes32 _commitment\n  ) internal view {\n    require(_proof.length > 0, \"Outdated account merkle root\");\n    require(_args.oldRoot == getLastAccountRoot(), \"Outdated tree update merkle root\");\n    require(_args.leaf == _commitment, \"Incorrect commitment inserted\");\n    require(_args.pathIndices == accountCount, \"Incorrect account insert index\");\n    require(\n      treeUpdateVerifier.verifyProof(\n        _proof,\n        [uint256(_args.oldRoot), uint256(_args.newRoot), uint256(_args.leaf), uint256(_args.pathIndices)]\n      ),\n      \"Invalid tree update proof\"\n    );\n  }\n\n  function validateAccountUpdate(\n    AccountUpdate memory _account,\n    bytes memory _treeUpdateProof,\n    TreeUpdateArgs memory _treeUpdateArgs\n  ) internal view {\n    // Has to be a new nullifier hash\n    require(!accountNullifiers[_account.inputNullifierHash], \"Outdated account state\");\n    if (_account.inputRoot != getLastAccountRoot()) {\n      // _account.outputPathIndices (= last tree leaf index) is always equal to root index in the history mapping\n      // because we always generate a new root for each new leaf\n      require(isKnownAccountRoot(_account.inputRoot, _account.outputPathIndices), \"Invalid account root\");\n      validateTreeUpdate(_treeUpdateProof, _treeUpdateArgs, _account.outputCommitment);\n    } else {\n      require(_account.outputPathIndices == accountCount, \"Incorrect account insert index\");\n    }\n  }\n\n  function insertAccountRoot(bytes32 _root) internal {\n    accountRoots[++accountCount % ACCOUNT_ROOT_HISTORY_SIZE] = _root;\n  }\n\n  function _setVerifiers(IVerifier[3] memory _verifiers) internal {\n    depositVerifier = _verifiers[0];\n    withdrawVerifier = _verifiers[1];\n    treeUpdateVerifier = _verifiers[2];\n    emit VerifiersUpdated(address(_verifiers[0]), address(_verifiers[1]), address(_verifiers[2]));\n  }\n}\n",
  "sourcePath": "/home/home/poof2-core/contracts/Poof.sol",
  "compiler": {
    "name": "solc",
    "version": "0.8.3+commit.8d00100c.Emscripten.clang"
  },
  "schemaVersion": "3.4.3",
  "updatedAt": "2021-08-13T15:03:42.599Z",
  "networkType": "ethereum",
  "devdoc": {
    "kind": "dev",
    "methods": {
      "getLastAccountRoot()": {
        "details": "Returns the last root"
      },
      "isKnownAccountRoot(bytes32,uint256)": {
        "details": "Whether the root is present in the root history"
      },
      "owner()": {
        "details": "Returns the address of the current owner."
      },
      "renounceOwnership()": {
        "details": "Leaves the contract without owner. It will not be possible to call `onlyOwner` functions anymore. Can only be called by the current owner. NOTE: Renouncing ownership will leave the contract without an owner, thereby removing any functionality that is only available to the owner."
      },
      "transferOwnership(address)": {
        "details": "Transfers ownership of the contract to a new account (`newOwner`). Can only be called by the current owner."
      }
    },
    "version": 1
  },
  "userdoc": {
    "kind": "user",
    "methods": {},
    "version": 1
  }
}