{
  "contractName": "PoofMintableLendable",
  "abi": [
    {
      "inputs": [
        {
          "internalType": "string",
          "name": "_tokenName",
          "type": "string"
        },
        {
          "internalType": "string",
          "name": "_tokenSymbol",
          "type": "string"
        },
        {
          "internalType": "contract IWERC20",
          "name": "_debtToken",
          "type": "address"
        },
        {
          "internalType": "contract IVerifier[3]",
          "name": "_verifiers",
          "type": "address[3]"
        },
        {
          "internalType": "bytes32",
          "name": "_accountRoot",
          "type": "bytes32"
        }
      ],
      "stateMutability": "nonpayable",
      "type": "constructor"
    },
    {
      "anonymous": false,
      "inputs": [
        {
          "indexed": true,
          "internalType": "address",
          "name": "owner",
          "type": "address"
        },
        {
          "indexed": true,
          "internalType": "address",
          "name": "spender",
          "type": "address"
        },
        {
          "indexed": false,
          "internalType": "uint256",
          "name": "value",
          "type": "uint256"
        }
      ],
      "name": "Approval",
      "type": "event"
    },
    {
      "anonymous": false,
      "inputs": [
        {
          "indexed": false,
          "internalType": "bytes32",
          "name": "commitment",
          "type": "bytes32"
        },
        {
          "indexed": false,
          "internalType": "bytes32",
          "name": "nullifier",
          "type": "bytes32"
        },
        {
          "indexed": false,
          "internalType": "bytes",
          "name": "encryptedAccount",
          "type": "bytes"
        },
        {
          "indexed": false,
          "internalType": "uint256",
          "name": "index",
          "type": "uint256"
        }
      ],
      "name": "NewAccount",
      "type": "event"
    },
    {
      "anonymous": false,
      "inputs": [
        {
          "indexed": true,
          "internalType": "address",
          "name": "from",
          "type": "address"
        },
        {
          "indexed": true,
          "internalType": "address",
          "name": "to",
          "type": "address"
        },
        {
          "indexed": false,
          "internalType": "uint256",
          "name": "value",
          "type": "uint256"
        }
      ],
      "name": "Transfer",
      "type": "event"
    },
    {
      "inputs": [],
      "name": "ACCOUNT_ROOT_HISTORY_SIZE",
      "outputs": [
        {
          "internalType": "uint256",
          "name": "",
          "type": "uint256"
        }
      ],
      "stateMutability": "view",
      "type": "function",
      "constant": true
    },
    {
      "inputs": [],
      "name": "accountCount",
      "outputs": [
        {
          "internalType": "uint256",
          "name": "",
          "type": "uint256"
        }
      ],
      "stateMutability": "view",
      "type": "function",
      "constant": true
    },
    {
      "inputs": [
        {
          "internalType": "bytes32",
          "name": "",
          "type": "bytes32"
        }
      ],
      "name": "accountNullifiers",
      "outputs": [
        {
          "internalType": "bool",
          "name": "",
          "type": "bool"
        }
      ],
      "stateMutability": "view",
      "type": "function",
      "constant": true
    },
    {
      "inputs": [
        {
          "internalType": "uint256",
          "name": "",
          "type": "uint256"
        }
      ],
      "name": "accountRoots",
      "outputs": [
        {
          "internalType": "bytes32",
          "name": "",
          "type": "bytes32"
        }
      ],
      "stateMutability": "view",
      "type": "function",
      "constant": true
    },
    {
      "inputs": [
        {
          "internalType": "address",
          "name": "owner",
          "type": "address"
        },
        {
          "internalType": "address",
          "name": "spender",
          "type": "address"
        }
      ],
      "name": "allowance",
      "outputs": [
        {
          "internalType": "uint256",
          "name": "",
          "type": "uint256"
        }
      ],
      "stateMutability": "view",
      "type": "function",
      "constant": true
    },
    {
      "inputs": [
        {
          "internalType": "address",
          "name": "spender",
          "type": "address"
        },
        {
          "internalType": "uint256",
          "name": "amount",
          "type": "uint256"
        }
      ],
      "name": "approve",
      "outputs": [
        {
          "internalType": "bool",
          "name": "",
          "type": "bool"
        }
      ],
      "stateMutability": "nonpayable",
      "type": "function"
    },
    {
      "inputs": [
        {
          "internalType": "address",
          "name": "account",
          "type": "address"
        }
      ],
      "name": "balanceOf",
      "outputs": [
        {
          "internalType": "uint256",
          "name": "",
          "type": "uint256"
        }
      ],
      "stateMutability": "view",
      "type": "function",
      "constant": true
    },
    {
      "inputs": [],
      "name": "debtToken",
      "outputs": [
        {
          "internalType": "contract IWERC20",
          "name": "",
          "type": "address"
        }
      ],
      "stateMutability": "view",
      "type": "function",
      "constant": true
    },
    {
      "inputs": [],
      "name": "decimals",
      "outputs": [
        {
          "internalType": "uint8",
          "name": "",
          "type": "uint8"
        }
      ],
      "stateMutability": "view",
      "type": "function",
      "constant": true
    },
    {
      "inputs": [
        {
          "internalType": "address",
          "name": "spender",
          "type": "address"
        },
        {
          "internalType": "uint256",
          "name": "subtractedValue",
          "type": "uint256"
        }
      ],
      "name": "decreaseAllowance",
      "outputs": [
        {
          "internalType": "bool",
          "name": "",
          "type": "bool"
        }
      ],
      "stateMutability": "nonpayable",
      "type": "function"
    },
    {
      "inputs": [
        {
          "internalType": "bytes",
          "name": "_proof",
          "type": "bytes"
        },
        {
          "components": [
            {
              "internalType": "uint256",
              "name": "amount",
              "type": "uint256"
            },
            {
              "internalType": "uint256",
              "name": "debt",
              "type": "uint256"
            },
            {
              "internalType": "uint256",
              "name": "unitPerUnderlying",
              "type": "uint256"
            },
            {
              "internalType": "bytes32",
              "name": "extDataHash",
              "type": "bytes32"
            },
            {
              "components": [
                {
                  "internalType": "bytes",
                  "name": "encryptedAccount",
                  "type": "bytes"
                }
              ],
              "internalType": "struct Poof.DepositExtData",
              "name": "extData",
              "type": "tuple"
            },
            {
              "components": [
                {
                  "internalType": "bytes32",
                  "name": "inputRoot",
                  "type": "bytes32"
                },
                {
                  "internalType": "bytes32",
                  "name": "inputNullifierHash",
                  "type": "bytes32"
                },
                {
                  "internalType": "bytes32",
                  "name": "outputRoot",
                  "type": "bytes32"
                },
                {
                  "internalType": "uint256",
                  "name": "outputPathIndices",
                  "type": "uint256"
                },
                {
                  "internalType": "bytes32",
                  "name": "outputCommitment",
                  "type": "bytes32"
                }
              ],
              "internalType": "struct Poof.AccountUpdate",
              "name": "account",
              "type": "tuple"
            }
          ],
          "internalType": "struct Poof.DepositArgs",
          "name": "_args",
          "type": "tuple"
        }
      ],
      "name": "deposit",
      "outputs": [],
      "stateMutability": "nonpayable",
      "type": "function"
    },
    {
      "inputs": [
        {
          "internalType": "bytes",
          "name": "_proof",
          "type": "bytes"
        },
        {
          "components": [
            {
              "internalType": "uint256",
              "name": "amount",
              "type": "uint256"
            },
            {
              "internalType": "uint256",
              "name": "debt",
              "type": "uint256"
            },
            {
              "internalType": "uint256",
              "name": "unitPerUnderlying",
              "type": "uint256"
            },
            {
              "internalType": "bytes32",
              "name": "extDataHash",
              "type": "bytes32"
            },
            {
              "components": [
                {
                  "internalType": "bytes",
                  "name": "encryptedAccount",
                  "type": "bytes"
                }
              ],
              "internalType": "struct Poof.DepositExtData",
              "name": "extData",
              "type": "tuple"
            },
            {
              "components": [
                {
                  "internalType": "bytes32",
                  "name": "inputRoot",
                  "type": "bytes32"
                },
                {
                  "internalType": "bytes32",
                  "name": "inputNullifierHash",
                  "type": "bytes32"
                },
                {
                  "internalType": "bytes32",
                  "name": "outputRoot",
                  "type": "bytes32"
                },
                {
                  "internalType": "uint256",
                  "name": "outputPathIndices",
                  "type": "uint256"
                },
                {
                  "internalType": "bytes32",
                  "name": "outputCommitment",
                  "type": "bytes32"
                }
              ],
              "internalType": "struct Poof.AccountUpdate",
              "name": "account",
              "type": "tuple"
            }
          ],
          "internalType": "struct Poof.DepositArgs",
          "name": "_args",
          "type": "tuple"
        },
        {
          "internalType": "bytes",
          "name": "_treeUpdateProof",
          "type": "bytes"
        },
        {
          "components": [
            {
              "internalType": "bytes32",
              "name": "oldRoot",
              "type": "bytes32"
            },
            {
              "internalType": "bytes32",
              "name": "newRoot",
              "type": "bytes32"
            },
            {
              "internalType": "bytes32",
              "name": "leaf",
              "type": "bytes32"
            },
            {
              "internalType": "uint256",
              "name": "pathIndices",
              "type": "uint256"
            }
          ],
          "internalType": "struct Poof.TreeUpdateArgs",
          "name": "_treeUpdateArgs",
          "type": "tuple"
        }
      ],
      "name": "deposit",
      "outputs": [],
      "stateMutability": "nonpayable",
      "type": "function"
    },
    {
      "inputs": [],
      "name": "depositVerifier",
      "outputs": [
        {
          "internalType": "contract IVerifier",
          "name": "",
          "type": "address"
        }
      ],
      "stateMutability": "view",
      "type": "function",
      "constant": true
    },
    {
      "inputs": [],
      "name": "getLastAccountRoot",
      "outputs": [
        {
          "internalType": "bytes32",
          "name": "",
          "type": "bytes32"
        }
      ],
      "stateMutability": "view",
      "type": "function",
      "constant": true
    },
    {
      "inputs": [
        {
          "internalType": "address",
          "name": "spender",
          "type": "address"
        },
        {
          "internalType": "uint256",
          "name": "addedValue",
          "type": "uint256"
        }
      ],
      "name": "increaseAllowance",
      "outputs": [
        {
          "internalType": "bool",
          "name": "",
          "type": "bool"
        }
      ],
      "stateMutability": "nonpayable",
      "type": "function"
    },
    {
      "inputs": [
        {
          "internalType": "bytes32",
          "name": "_root",
          "type": "bytes32"
        },
        {
          "internalType": "uint256",
          "name": "_index",
          "type": "uint256"
        }
      ],
      "name": "isKnownAccountRoot",
      "outputs": [
        {
          "internalType": "bool",
          "name": "",
          "type": "bool"
        }
      ],
      "stateMutability": "view",
      "type": "function",
      "constant": true
    },
    {
      "inputs": [],
      "name": "name",
      "outputs": [
        {
          "internalType": "string",
          "name": "",
          "type": "string"
        }
      ],
      "stateMutability": "view",
      "type": "function",
      "constant": true
    },
    {
      "inputs": [],
      "name": "symbol",
      "outputs": [
        {
          "internalType": "string",
          "name": "",
          "type": "string"
        }
      ],
      "stateMutability": "view",
      "type": "function",
      "constant": true
    },
    {
      "inputs": [],
      "name": "token",
      "outputs": [
        {
          "internalType": "contract IERC20",
          "name": "",
          "type": "address"
        }
      ],
      "stateMutability": "view",
      "type": "function",
      "constant": true
    },
    {
      "inputs": [],
      "name": "totalSupply",
      "outputs": [
        {
          "internalType": "uint256",
          "name": "",
          "type": "uint256"
        }
      ],
      "stateMutability": "view",
      "type": "function",
      "constant": true
    },
    {
      "inputs": [
        {
          "internalType": "address",
          "name": "recipient",
          "type": "address"
        },
        {
          "internalType": "uint256",
          "name": "amount",
          "type": "uint256"
        }
      ],
      "name": "transfer",
      "outputs": [
        {
          "internalType": "bool",
          "name": "",
          "type": "bool"
        }
      ],
      "stateMutability": "nonpayable",
      "type": "function"
    },
    {
      "inputs": [
        {
          "internalType": "bytes",
          "name": "_fromProof",
          "type": "bytes"
        },
        {
          "components": [
            {
              "internalType": "uint256",
              "name": "amount",
              "type": "uint256"
            },
            {
              "internalType": "uint256",
              "name": "debt",
              "type": "uint256"
            },
            {
              "internalType": "uint256",
              "name": "unitPerUnderlying",
              "type": "uint256"
            },
            {
              "internalType": "bytes32",
              "name": "extDataHash",
              "type": "bytes32"
            },
            {
              "components": [
                {
                  "internalType": "uint256",
                  "name": "fee",
                  "type": "uint256"
                },
                {
                  "internalType": "address",
                  "name": "recipient",
                  "type": "address"
                },
                {
                  "internalType": "address",
                  "name": "relayer",
                  "type": "address"
                },
                {
                  "internalType": "bytes32",
                  "name": "depositProofHash",
                  "type": "bytes32"
                },
                {
                  "internalType": "bytes",
                  "name": "encryptedAccount",
                  "type": "bytes"
                }
              ],
              "internalType": "struct Poof.WithdrawExtData",
              "name": "extData",
              "type": "tuple"
            },
            {
              "components": [
                {
                  "internalType": "bytes32",
                  "name": "inputRoot",
                  "type": "bytes32"
                },
                {
                  "internalType": "bytes32",
                  "name": "inputNullifierHash",
                  "type": "bytes32"
                },
                {
                  "internalType": "bytes32",
                  "name": "outputRoot",
                  "type": "bytes32"
                },
                {
                  "internalType": "uint256",
                  "name": "outputPathIndices",
                  "type": "uint256"
                },
                {
                  "internalType": "bytes32",
                  "name": "outputCommitment",
                  "type": "bytes32"
                }
              ],
              "internalType": "struct Poof.AccountUpdate",
              "name": "account",
              "type": "tuple"
            }
          ],
          "internalType": "struct Poof.WithdrawArgs",
          "name": "_fromArgs",
          "type": "tuple"
        },
        {
          "internalType": "bytes",
          "name": "_toProof",
          "type": "bytes"
        },
        {
          "components": [
            {
              "internalType": "uint256",
              "name": "amount",
              "type": "uint256"
            },
            {
              "internalType": "uint256",
              "name": "debt",
              "type": "uint256"
            },
            {
              "internalType": "uint256",
              "name": "unitPerUnderlying",
              "type": "uint256"
            },
            {
              "internalType": "bytes32",
              "name": "extDataHash",
              "type": "bytes32"
            },
            {
              "components": [
                {
                  "internalType": "bytes",
                  "name": "encryptedAccount",
                  "type": "bytes"
                }
              ],
              "internalType": "struct Poof.DepositExtData",
              "name": "extData",
              "type": "tuple"
            },
            {
              "components": [
                {
                  "internalType": "bytes32",
                  "name": "inputRoot",
                  "type": "bytes32"
                },
                {
                  "internalType": "bytes32",
                  "name": "inputNullifierHash",
                  "type": "bytes32"
                },
                {
                  "internalType": "bytes32",
                  "name": "outputRoot",
                  "type": "bytes32"
                },
                {
                  "internalType": "uint256",
                  "name": "outputPathIndices",
                  "type": "uint256"
                },
                {
                  "internalType": "bytes32",
                  "name": "outputCommitment",
                  "type": "bytes32"
                }
              ],
              "internalType": "struct Poof.AccountUpdate",
              "name": "account",
              "type": "tuple"
            }
          ],
          "internalType": "struct Poof.DepositArgs",
          "name": "_toArgs",
          "type": "tuple"
        },
        {
          "internalType": "bytes",
          "name": "_fromTreeUpdateProof",
          "type": "bytes"
        },
        {
          "components": [
            {
              "internalType": "bytes32",
              "name": "oldRoot",
              "type": "bytes32"
            },
            {
              "internalType": "bytes32",
              "name": "newRoot",
              "type": "bytes32"
            },
            {
              "internalType": "bytes32",
              "name": "leaf",
              "type": "bytes32"
            },
            {
              "internalType": "uint256",
              "name": "pathIndices",
              "type": "uint256"
            }
          ],
          "internalType": "struct Poof.TreeUpdateArgs",
          "name": "_fromTreeUpdateArgs",
          "type": "tuple"
        },
        {
          "internalType": "bytes",
          "name": "_toTreeUpdateProof",
          "type": "bytes"
        },
        {
          "components": [
            {
              "internalType": "bytes32",
              "name": "oldRoot",
              "type": "bytes32"
            },
            {
              "internalType": "bytes32",
              "name": "newRoot",
              "type": "bytes32"
            },
            {
              "internalType": "bytes32",
              "name": "leaf",
              "type": "bytes32"
            },
            {
              "internalType": "uint256",
              "name": "pathIndices",
              "type": "uint256"
            }
          ],
          "internalType": "struct Poof.TreeUpdateArgs",
          "name": "_toTreeUpdateArgs",
          "type": "tuple"
        }
      ],
      "name": "transfer",
      "outputs": [],
      "stateMutability": "nonpayable",
      "type": "function"
    },
    {
      "inputs": [
        {
          "internalType": "address",
          "name": "sender",
          "type": "address"
        },
        {
          "internalType": "address",
          "name": "recipient",
          "type": "address"
        },
        {
          "internalType": "uint256",
          "name": "amount",
          "type": "uint256"
        }
      ],
      "name": "transferFrom",
      "outputs": [
        {
          "internalType": "bool",
          "name": "",
          "type": "bool"
        }
      ],
      "stateMutability": "nonpayable",
      "type": "function"
    },
    {
      "inputs": [],
      "name": "treeUpdateVerifier",
      "outputs": [
        {
          "internalType": "contract IVerifier",
          "name": "",
          "type": "address"
        }
      ],
      "stateMutability": "view",
      "type": "function",
      "constant": true
    },
    {
      "inputs": [],
      "name": "underlyingToken",
      "outputs": [
        {
          "internalType": "contract IERC20",
          "name": "",
          "type": "address"
        }
      ],
      "stateMutability": "view",
      "type": "function",
      "constant": true
    },
    {
      "inputs": [],
      "name": "unitPerUnderlying",
      "outputs": [
        {
          "internalType": "uint256",
          "name": "",
          "type": "uint256"
        }
      ],
      "stateMutability": "view",
      "type": "function",
      "constant": true
    },
    {
      "inputs": [
        {
          "internalType": "bytes",
          "name": "_proof",
          "type": "bytes"
        },
        {
          "components": [
            {
              "internalType": "uint256",
              "name": "amount",
              "type": "uint256"
            },
            {
              "internalType": "uint256",
              "name": "debt",
              "type": "uint256"
            },
            {
              "internalType": "uint256",
              "name": "unitPerUnderlying",
              "type": "uint256"
            },
            {
              "internalType": "bytes32",
              "name": "extDataHash",
              "type": "bytes32"
            },
            {
              "components": [
                {
                  "internalType": "uint256",
                  "name": "fee",
                  "type": "uint256"
                },
                {
                  "internalType": "address",
                  "name": "recipient",
                  "type": "address"
                },
                {
                  "internalType": "address",
                  "name": "relayer",
                  "type": "address"
                },
                {
                  "internalType": "bytes32",
                  "name": "depositProofHash",
                  "type": "bytes32"
                },
                {
                  "internalType": "bytes",
                  "name": "encryptedAccount",
                  "type": "bytes"
                }
              ],
              "internalType": "struct Poof.WithdrawExtData",
              "name": "extData",
              "type": "tuple"
            },
            {
              "components": [
                {
                  "internalType": "bytes32",
                  "name": "inputRoot",
                  "type": "bytes32"
                },
                {
                  "internalType": "bytes32",
                  "name": "inputNullifierHash",
                  "type": "bytes32"
                },
                {
                  "internalType": "bytes32",
                  "name": "outputRoot",
                  "type": "bytes32"
                },
                {
                  "internalType": "uint256",
                  "name": "outputPathIndices",
                  "type": "uint256"
                },
                {
                  "internalType": "bytes32",
                  "name": "outputCommitment",
                  "type": "bytes32"
                }
              ],
              "internalType": "struct Poof.AccountUpdate",
              "name": "account",
              "type": "tuple"
            }
          ],
          "internalType": "struct Poof.WithdrawArgs",
          "name": "_args",
          "type": "tuple"
        },
        {
          "internalType": "bytes",
          "name": "_treeUpdateProof",
          "type": "bytes"
        },
        {
          "components": [
            {
              "internalType": "bytes32",
              "name": "oldRoot",
              "type": "bytes32"
            },
            {
              "internalType": "bytes32",
              "name": "newRoot",
              "type": "bytes32"
            },
            {
              "internalType": "bytes32",
              "name": "leaf",
              "type": "bytes32"
            },
            {
              "internalType": "uint256",
              "name": "pathIndices",
              "type": "uint256"
            }
          ],
          "internalType": "struct Poof.TreeUpdateArgs",
          "name": "_treeUpdateArgs",
          "type": "tuple"
        }
      ],
      "name": "withdraw",
      "outputs": [],
      "stateMutability": "nonpayable",
      "type": "function"
    },
    {
      "inputs": [
        {
          "internalType": "bytes",
          "name": "_proof",
          "type": "bytes"
        },
        {
          "components": [
            {
              "internalType": "uint256",
              "name": "amount",
              "type": "uint256"
            },
            {
              "internalType": "uint256",
              "name": "debt",
              "type": "uint256"
            },
            {
              "internalType": "uint256",
              "name": "unitPerUnderlying",
              "type": "uint256"
            },
            {
              "internalType": "bytes32",
              "name": "extDataHash",
              "type": "bytes32"
            },
            {
              "components": [
                {
                  "internalType": "uint256",
                  "name": "fee",
                  "type": "uint256"
                },
                {
                  "internalType": "address",
                  "name": "recipient",
                  "type": "address"
                },
                {
                  "internalType": "address",
                  "name": "relayer",
                  "type": "address"
                },
                {
                  "internalType": "bytes32",
                  "name": "depositProofHash",
                  "type": "bytes32"
                },
                {
                  "internalType": "bytes",
                  "name": "encryptedAccount",
                  "type": "bytes"
                }
              ],
              "internalType": "struct Poof.WithdrawExtData",
              "name": "extData",
              "type": "tuple"
            },
            {
              "components": [
                {
                  "internalType": "bytes32",
                  "name": "inputRoot",
                  "type": "bytes32"
                },
                {
                  "internalType": "bytes32",
                  "name": "inputNullifierHash",
                  "type": "bytes32"
                },
                {
                  "internalType": "bytes32",
                  "name": "outputRoot",
                  "type": "bytes32"
                },
                {
                  "internalType": "uint256",
                  "name": "outputPathIndices",
                  "type": "uint256"
                },
                {
                  "internalType": "bytes32",
                  "name": "outputCommitment",
                  "type": "bytes32"
                }
              ],
              "internalType": "struct Poof.AccountUpdate",
              "name": "account",
              "type": "tuple"
            }
          ],
          "internalType": "struct Poof.WithdrawArgs",
          "name": "_args",
          "type": "tuple"
        }
      ],
      "name": "withdraw",
      "outputs": [],
      "stateMutability": "nonpayable",
      "type": "function"
    },
    {
      "inputs": [],
      "name": "withdrawVerifier",
      "outputs": [
        {
          "internalType": "contract IVerifier",
          "name": "",
          "type": "address"
        }
      ],
      "stateMutability": "view",
      "type": "function",
      "constant": true
    },
    {
      "inputs": [
        {
          "internalType": "bytes",
          "name": "_proof",
          "type": "bytes"
        },
        {
          "components": [
            {
              "internalType": "uint256",
              "name": "amount",
              "type": "uint256"
            },
            {
              "internalType": "uint256",
              "name": "debt",
              "type": "uint256"
            },
            {
              "internalType": "uint256",
              "name": "unitPerUnderlying",
              "type": "uint256"
            },
            {
              "internalType": "bytes32",
              "name": "extDataHash",
              "type": "bytes32"
            },
            {
              "components": [
                {
                  "internalType": "bytes",
                  "name": "encryptedAccount",
                  "type": "bytes"
                }
              ],
              "internalType": "struct Poof.DepositExtData",
              "name": "extData",
              "type": "tuple"
            },
            {
              "components": [
                {
                  "internalType": "bytes32",
                  "name": "inputRoot",
                  "type": "bytes32"
                },
                {
                  "internalType": "bytes32",
                  "name": "inputNullifierHash",
                  "type": "bytes32"
                },
                {
                  "internalType": "bytes32",
                  "name": "outputRoot",
                  "type": "bytes32"
                },
                {
                  "internalType": "uint256",
                  "name": "outputPathIndices",
                  "type": "uint256"
                },
                {
                  "internalType": "bytes32",
                  "name": "outputCommitment",
                  "type": "bytes32"
                }
              ],
              "internalType": "struct Poof.AccountUpdate",
              "name": "account",
              "type": "tuple"
            }
          ],
          "internalType": "struct Poof.DepositArgs",
          "name": "_args",
          "type": "tuple"
        },
        {
          "internalType": "bytes",
          "name": "_treeUpdateProof",
          "type": "bytes"
        },
        {
          "components": [
            {
              "internalType": "bytes32",
              "name": "oldRoot",
              "type": "bytes32"
            },
            {
              "internalType": "bytes32",
              "name": "newRoot",
              "type": "bytes32"
            },
            {
              "internalType": "bytes32",
              "name": "leaf",
              "type": "bytes32"
            },
            {
              "internalType": "uint256",
              "name": "pathIndices",
              "type": "uint256"
            }
          ],
          "internalType": "struct Poof.TreeUpdateArgs",
          "name": "_treeUpdateArgs",
          "type": "tuple"
        }
      ],
      "name": "burn",
      "outputs": [],
      "stateMutability": "nonpayable",
      "type": "function"
    },
    {
      "inputs": [
        {
          "internalType": "bytes",
          "name": "_proof",
          "type": "bytes"
        },
        {
          "components": [
            {
              "internalType": "uint256",
              "name": "amount",
              "type": "uint256"
            },
            {
              "internalType": "uint256",
              "name": "debt",
              "type": "uint256"
            },
            {
              "internalType": "uint256",
              "name": "unitPerUnderlying",
              "type": "uint256"
            },
            {
              "internalType": "bytes32",
              "name": "extDataHash",
              "type": "bytes32"
            },
            {
              "components": [
                {
                  "internalType": "bytes",
                  "name": "encryptedAccount",
                  "type": "bytes"
                }
              ],
              "internalType": "struct Poof.DepositExtData",
              "name": "extData",
              "type": "tuple"
            },
            {
              "components": [
                {
                  "internalType": "bytes32",
                  "name": "inputRoot",
                  "type": "bytes32"
                },
                {
                  "internalType": "bytes32",
                  "name": "inputNullifierHash",
                  "type": "bytes32"
                },
                {
                  "internalType": "bytes32",
                  "name": "outputRoot",
                  "type": "bytes32"
                },
                {
                  "internalType": "uint256",
                  "name": "outputPathIndices",
                  "type": "uint256"
                },
                {
                  "internalType": "bytes32",
                  "name": "outputCommitment",
                  "type": "bytes32"
                }
              ],
              "internalType": "struct Poof.AccountUpdate",
              "name": "account",
              "type": "tuple"
            }
          ],
          "internalType": "struct Poof.DepositArgs",
          "name": "_args",
          "type": "tuple"
        }
      ],
      "name": "burn",
      "outputs": [],
      "stateMutability": "nonpayable",
      "type": "function"
    },
    {
      "inputs": [
        {
          "internalType": "bytes",
          "name": "_proof",
          "type": "bytes"
        },
        {
          "components": [
            {
              "internalType": "uint256",
              "name": "amount",
              "type": "uint256"
            },
            {
              "internalType": "uint256",
              "name": "debt",
              "type": "uint256"
            },
            {
              "internalType": "uint256",
              "name": "unitPerUnderlying",
              "type": "uint256"
            },
            {
              "internalType": "bytes32",
              "name": "extDataHash",
              "type": "bytes32"
            },
            {
              "components": [
                {
                  "internalType": "uint256",
                  "name": "fee",
                  "type": "uint256"
                },
                {
                  "internalType": "address",
                  "name": "recipient",
                  "type": "address"
                },
                {
                  "internalType": "address",
                  "name": "relayer",
                  "type": "address"
                },
                {
                  "internalType": "bytes32",
                  "name": "depositProofHash",
                  "type": "bytes32"
                },
                {
                  "internalType": "bytes",
                  "name": "encryptedAccount",
                  "type": "bytes"
                }
              ],
              "internalType": "struct Poof.WithdrawExtData",
              "name": "extData",
              "type": "tuple"
            },
            {
              "components": [
                {
                  "internalType": "bytes32",
                  "name": "inputRoot",
                  "type": "bytes32"
                },
                {
                  "internalType": "bytes32",
                  "name": "inputNullifierHash",
                  "type": "bytes32"
                },
                {
                  "internalType": "bytes32",
                  "name": "outputRoot",
                  "type": "bytes32"
                },
                {
                  "internalType": "uint256",
                  "name": "outputPathIndices",
                  "type": "uint256"
                },
                {
                  "internalType": "bytes32",
                  "name": "outputCommitment",
                  "type": "bytes32"
                }
              ],
              "internalType": "struct Poof.AccountUpdate",
              "name": "account",
              "type": "tuple"
            }
          ],
          "internalType": "struct Poof.WithdrawArgs",
          "name": "_args",
          "type": "tuple"
        },
        {
          "internalType": "bytes",
          "name": "_treeUpdateProof",
          "type": "bytes"
        },
        {
          "components": [
            {
              "internalType": "bytes32",
              "name": "oldRoot",
              "type": "bytes32"
            },
            {
              "internalType": "bytes32",
              "name": "newRoot",
              "type": "bytes32"
            },
            {
              "internalType": "bytes32",
              "name": "leaf",
              "type": "bytes32"
            },
            {
              "internalType": "uint256",
              "name": "pathIndices",
              "type": "uint256"
            }
          ],
          "internalType": "struct Poof.TreeUpdateArgs",
          "name": "_treeUpdateArgs",
          "type": "tuple"
        }
      ],
      "name": "mint",
      "outputs": [],
      "stateMutability": "nonpayable",
      "type": "function"
    },
    {
      "inputs": [
        {
          "internalType": "bytes",
          "name": "_proof",
          "type": "bytes"
        },
        {
          "components": [
            {
              "internalType": "uint256",
              "name": "amount",
              "type": "uint256"
            },
            {
              "internalType": "uint256",
              "name": "debt",
              "type": "uint256"
            },
            {
              "internalType": "uint256",
              "name": "unitPerUnderlying",
              "type": "uint256"
            },
            {
              "internalType": "bytes32",
              "name": "extDataHash",
              "type": "bytes32"
            },
            {
              "components": [
                {
                  "internalType": "uint256",
                  "name": "fee",
                  "type": "uint256"
                },
                {
                  "internalType": "address",
                  "name": "recipient",
                  "type": "address"
                },
                {
                  "internalType": "address",
                  "name": "relayer",
                  "type": "address"
                },
                {
                  "internalType": "bytes32",
                  "name": "depositProofHash",
                  "type": "bytes32"
                },
                {
                  "internalType": "bytes",
                  "name": "encryptedAccount",
                  "type": "bytes"
                }
              ],
              "internalType": "struct Poof.WithdrawExtData",
              "name": "extData",
              "type": "tuple"
            },
            {
              "components": [
                {
                  "internalType": "bytes32",
                  "name": "inputRoot",
                  "type": "bytes32"
                },
                {
                  "internalType": "bytes32",
                  "name": "inputNullifierHash",
                  "type": "bytes32"
                },
                {
                  "internalType": "bytes32",
                  "name": "outputRoot",
                  "type": "bytes32"
                },
                {
                  "internalType": "uint256",
                  "name": "outputPathIndices",
                  "type": "uint256"
                },
                {
                  "internalType": "bytes32",
                  "name": "outputCommitment",
                  "type": "bytes32"
                }
              ],
              "internalType": "struct Poof.AccountUpdate",
              "name": "account",
              "type": "tuple"
            }
          ],
          "internalType": "struct Poof.WithdrawArgs",
          "name": "_args",
          "type": "tuple"
        }
      ],
      "name": "mint",
      "outputs": [],
      "stateMutability": "nonpayable",
      "type": "function"
    },
    {
      "inputs": [
        {
          "internalType": "address",
          "name": "owner",
          "type": "address"
        }
      ],
      "name": "underlyingBalanceOf",
      "outputs": [
        {
          "internalType": "uint256",
          "name": "",
          "type": "uint256"
        }
      ],
      "stateMutability": "view",
      "type": "function",
      "constant": true
    }
  ],
  "bytecode": "0x60806040523480156200001157600080fd5b5060405162003186380380620031868339810160408190526200003491620002d5565b600080546001600160a01b03199081166001600160a01b0386811691821790935560068490558451600180548416918516919091179055602080860151600280548516918616919091179055604080870151600380549095169516949094179092558251632495a59960e01b81529251889388938893889388939192632495a5999260048181019391829003018186803b158015620000d257600080fd5b505afa158015620000e7573d6000803e3d6000fd5b505050506040513d601f19601f820116820180604052508101906200010d9190620002af565b606a80546001600160a01b039283166001600160a01b031991821617909155606b805495909216941693909317909255505081516200015490606f90602085019062000178565b5080516200016a90607090602084019062000178565b50505050505050506200045d565b8280546200018690620003f1565b90600052602060002090601f016020900481019282620001aa5760008555620001f5565b82601f10620001c557805160ff1916838001178555620001f5565b82800160010185558215620001f5579182015b82811115620001f5578251825591602001919060010190620001d8565b506200020392915062000207565b5090565b5b8082111562000203576000815560010162000208565b600082601f8301126200022f578081fd5b81516001600160401b038111156200024b576200024b6200042e565b602062000261601f8301601f19168201620003be565b828152858284870101111562000275578384fd5b835b838110156200029457858101830151828201840152820162000277565b83811115620002a557848385840101525b5095945050505050565b600060208284031215620002c1578081fd5b8151620002ce8162000444565b9392505050565b600080600080600060e08688031215620002ed578081fd5b85516001600160401b038082111562000304578283fd5b6200031289838a016200021e565b965060209150818801518181111562000329578384fd5b620003378a828b016200021e565b9650505060408701516200034b8162000444565b9350607f870188136200035c578182fd5b620003686060620003be565b806060890160c08a018b8111156200037e578586fd5b855b6003811015620003aa578251620003978162000444565b8552938501939185019160010162000380565b5051989b979a509598509695945050505050565b604051601f8201601f191681016001600160401b0381118282101715620003e957620003e96200042e565b604052919050565b600181811c908216806200040657607f821691505b602082108114156200042857634e487b7160e01b600052602260045260246000fd5b50919050565b634e487b7160e01b600052604160045260246000fd5b6001600160a01b03811681146200045a57600080fd5b50565b612d19806200046d6000396000f3fe608060405234801561001057600080fd5b50600436106102055760003560e01c80639128dfe91161011a578063b46b6691116100ad578063dd62ed3e1161007c578063dd62ed3e14610449578063df31649c14610482578063e4af29fc14610495578063f8d898981461049e578063fc0c546a146104b157610205565b8063b46b669114610408578063bdd2231c1461041b578063c6a4b0531461042e578063d1a0c3001461044157610205565b8063a457c2d7116100e9578063a457c2d7146103bc578063a81f2bb5146103cf578063a9059cbb146103e2578063b3239e9a146103f557610205565b80639128dfe91461037b578063935a8b841461038e57806395d89b41146103a157806397f098d7146103a957610205565b8063313ce5671161019d5780634a20de581161016c5780634a20de581461032757806352ef8e961461033a57806370a0823114610342578063864eb164146103555780638e9bce421461036857610205565b8063313ce567146102cf57806339509351146102de57806342a660b0146102f1578063477ef10b1461031457610205565b806318160ddd116101d957806318160ddd1461027657806323b872dd1461027e5780632495a5991461029157806326120c88146102bc57610205565b80627153181461020a57806306fdde031461021f578063095ea7b31461023d5780631311b6e814610260575b600080fd5b61021d6102183660046129b6565b6104c4565b005b6102276105e6565b6040516102349190612a9f565b60405180910390f35b61025061024b3660046126d1565b610678565b6040519015158152602001610234565b61026861068e565b604051908152602001610234565b606e54610268565b61025061028c366004612696565b6106c6565b606a546102a4906001600160a01b031681565b6040516001600160a01b039091168152602001610234565b6001546102a4906001600160a01b031681565b60405160128152602001610234565b6102506102ec3660046126d1565b610772565b6102506102ff36600461271a565b60046020526000908152604090205460ff1681565b61021d610322366004612753565b6107ae565b6003546102a4906001600160a01b031681565b610268606481565b61026861035036600461264a565b6107e7565b6002546102a4906001600160a01b031681565b61021d6103763660046129b6565b610806565b61021d61038936600461284a565b610a52565b61026861039c36600461264a565b610a87565b610227610b10565b6102506103b7366004612732565b610b1f565b6102506103ca3660046126d1565b610b61565b61021d6103dd36600461284a565b610bfa565b6102506103f03660046126d1565b610c2f565b61021d6104033660046127b4565b610c3c565b61021d610416366004612753565b610ca5565b61021d6104293660046127b4565b610cda565b61026861043c36600461271a565b610eab565b610268610ec2565b610268610457366004612664565b6001600160a01b039182166000908152606d6020908152604080832093909416825291909152205490565b61021d6104903660046128a1565b610f44565b61026860055481565b606b546102a4906001600160a01b031681565b6000546102a4906001600160a01b031681565b60808301515183511461051e5760405162461bcd60e51b815260206004820152601f60248201527f416d6f756e742063616e206f6e6c79206265207573656420666f72206665650060448201526064015b60405180910390fd5b608083015160600151156105855760405162461bcd60e51b815260206004820152602860248201527f6465706f73697450726f6f66486173682073686f756c64206265203020666f72604482015267206d696e74696e6760c01b6064820152608401610515565b61059184848484611091565b6020830151156105b1576105b18360800151602001518460200151611432565b608083015151156105e0576080830151604081015190516000546105e0926001600160a01b0390911691611512565b50505050565b6060606f80546105f590612c41565b80601f016020809104026020016040519081016040528092919081815260200182805461062190612c41565b801561066e5780601f106106435761010080835404028352916020019161066e565b820191906000526020600020905b81548152906001019060200180831161065157829003601f168201915b5050505050905090565b600061068533848461157a565b50600192915050565b6000600660646005546106a19190612c97565b606481106106bf57634e487b7160e01b600052603260045260246000fd5b0154905090565b60006106d384848461169e565b6001600160a01b0384166000908152606d60209081526040808320338452909152902054828110156107585760405162461bcd60e51b815260206004820152602860248201527f45524332303a207472616e7366657220616d6f756e74206578636565647320616044820152676c6c6f77616e636560c01b6064820152608401610515565b610765853385840361157a565b60019150505b9392505050565b336000818152606d602090815260408083206001600160a01b038716845290915281205490916106859185906107a9908690612be6565b61157a565b60408051600080825260a082018352602082018181529282018190526060820181905260808201526107e39184918491610cda565b5050565b6001600160a01b0381166000908152606c60205260409020545b919050565b61081284848484611091565b608083015151835110156108725760405162461bcd60e51b815260206004820152602160248201527f4665652063616e6e6f742062652067726561746572207468616e20616d6f756e6044820152601d60fa1b6064820152608401610515565b606b5460808401515184516000926001600160a01b0316916304626a64916108999161186c565b6040518263ffffffff1660e01b81526004016108b791815260200190565b60206040518083038186803b1580156108cf57600080fd5b505afa1580156108e3573d6000803e3d6000fd5b505050506040513d601f19601f820116820180604052508101906109079190612a0f565b606b546080860151516040516301189a9960e21b81529293506000926001600160a01b03909216916304626a64916109459160040190815260200190565b60206040518083038186803b15801561095d57600080fd5b505afa158015610971573d6000803e3d6000fd5b505050506040513d601f19601f820116820180604052508101906109959190612a0f565b606b548651604051636f074d1f60e11b815260048101919091529192506001600160a01b03169063de0e9a3e90602401600060405180830381600087803b1580156109df57600080fd5b505af11580156109f3573d6000803e3d6000fd5b505050506000821115610a2257608085015160200151606a54610a22916001600160a01b039091169084611512565b8015610a4a57608085015160400151606a54610a4a916001600160a01b039091169083611512565b505050505050565b60408051600080825260a082018352602082018181529282018190526060820181905260808201526107e39184918491610806565b600080610a93836107e7565b606b546040516301189a9960e21b8152600481018390529192506001600160a01b0316906304626a649060240160206040518083038186803b158015610ad857600080fd5b505afa158015610aec573d6000803e3d6000fd5b505050506040513d601f19601f8201168201806040525081019061076b9190612a0f565b6060607080546105f590612c41565b6000821580159061076b5750826006610b39606485612c97565b60648110610b5757634e487b7160e01b600052603260045260246000fd5b0154149392505050565b336000908152606d602090815260408083206001600160a01b038616845290915281205482811015610be35760405162461bcd60e51b815260206004820152602560248201527f45524332303a2064656372656173656420616c6c6f77616e63652062656c6f77604482015264207a65726f60d81b6064820152608401610515565b610bf0338585840361157a565b5060019392505050565b60408051600080825260a082018352602082018181529282018190526060820181905260808201526107e391849184916104c4565b600061068533848461169e565b825115610c8b5760405162461bcd60e51b815260206004820152601d60248201527f43616e6e6f742075736520616d6f756e7420666f72206275726e696e670000006044820152606401610515565b610c9784848484611878565b6105e0338460200151611ad0565b60408051600080825260a082018352602082018181529282018190526060820181905260808201526107e39184918491610c3c565b610ce684848484611878565b606b5483516040516301189a9960e21b815260048101919091526000916001600160a01b0316906304626a649060240160206040518083038186803b158015610d2e57600080fd5b505afa158015610d42573d6000803e3d6000fd5b505050506040513d601f19601f82011682018060405250810190610d669190612a0f565b606a54909150610d81906001600160a01b0316333084611c1e565b606a54606b5460405163095ea7b360e01b81526001600160a01b0391821660048201526024810184905291169063095ea7b390604401602060405180830381600087803b158015610dd157600080fd5b505af1158015610de5573d6000803e3d6000fd5b505050506040513d601f19601f82011682018060405250810190610e0991906126fa565b610e465760405162461bcd60e51b815260206004820152600e60248201526d105c1c1c9bdd994819985a5b195960921b6044820152606401610515565b606b54604051630ea598cb60e41b8152600481018390526001600160a01b039091169063ea598cb090602401600060405180830381600087803b158015610e8c57600080fd5b505af1158015610ea0573d6000803e3d6000fd5b505050505050505050565b60068160648110610ebb57600080fd5b0154905081565b606b546040516307be638960e51b8152600160048201526000916001600160a01b03169063f7cc71209060240160206040518083038186803b158015610f0757600080fd5b505afa158015610f1b573d6000803e3d6000fd5b505050506040513d601f19601f82011682018060405250810190610f3f9190612a0f565b905090565b84516080880151518851610f589190612bfe565b14610f9a5760405162461bcd60e51b81526020600482015260126024820152712a3930b739b332b91034b9903ab73330b4b960711b6044820152606401610515565b610fd186604051602001610fae9190612a9f565b60405160208183030381529060405280516020909101206001600160f81b031690565b876080015160600151146110405760405162461bcd60e51b815260206004820152603060248201527f2766726f6d272070726f6f66206861736820646f6573206e6f74206d6174636860448201526f0404ee8de4e40e0e4dedecc40d0c2e6d60831b6064820152608401610515565b61104c86868484611878565b61105888888686611091565b6080870151511561108757608087015160408101519051600054611087926001600160a01b0390911691611512565b5050505050505050565b6110a08360a001518383611c56565b6110b88360800151604051602001610fae9190612b64565b83606001511461110a5760405162461bcd60e51b815260206004820152601c60248201527f496e636f72726563742065787465726e616c20646174612068617368000000006044820152606401610515565b8251600160f81b1161115e5760405162461bcd60e51b815260206004820152601960248201527f416d6f756e742076616c7565206f7574206f662072616e6765000000000000006044820152606401610515565b600160f81b8360200151106111b55760405162461bcd60e51b815260206004820152601760248201527f446562742076616c7565206f7574206f662072616e67650000000000000000006044820152606401610515565b6080830151518351101561120b5760405162461bcd60e51b815260206004820152601c60248201527f416d6f756e742073686f756c64206265203e3d207468616e20666565000000006044820152606401610515565b611213610ec2565b836040015110156112365760405162461bcd60e51b815260040161051590612b08565b6002546040805161012081018252855181526020808701518183015286830151828401526060808801518184015260a08089018051516080808701919091528151909401519185019190915280519094015160c08401528351015160e08301529151909101516101008201526001600160a01b0390911690631e8e1e139086906112bf90611d81565b6040518363ffffffff1660e01b81526004016112dc929190612ab2565b60206040518083038186803b1580156112f457600080fd5b505afa158015611308573d6000803e3d6000fd5b505050506040513d601f19601f8201168201806040525081019061132c91906126fa565b6113785760405162461bcd60e51b815260206004820152601860248201527f496e76616c6964207769746864726177616c2070726f6f6600000000000000006044820152606401610515565b6113a761138361068e565b60a085015151146113985781602001516113a2565b8360a00151604001515b611e1f565b60a08301805160209081015160009081526004825260409020805460ff191660019081179091559151608080820151919092015182870151909201516005547fbd4a5ca11c6f082fd6d00dc9d1dced6ab22490039bc36154bfa748bf2bf743559492939261141491612bfe565b6040516114249493929190612a6f565b60405180910390a150505050565b6001600160a01b0382166114885760405162461bcd60e51b815260206004820152601f60248201527f45524332303a206d696e7420746f20746865207a65726f2061646472657373006044820152606401610515565b80606e600082825461149a9190612be6565b90915550506001600160a01b0382166000908152606c6020526040812080548392906114c7908490612be6565b90915550506040518181526001600160a01b038316906000907fddf252ad1be2c89b69c2b068fc378daa952ba7f163c4a11628f55a4df523b3ef9060200160405180910390a36107e3565b6040516001600160a01b03831660248201526044810182905261157590849063a9059cbb60e01b906064015b60408051601f198184030181529190526020810180516001600160e01b03166001600160e01b031990931692909217909152611e65565b505050565b6001600160a01b0383166115dc5760405162461bcd60e51b8152602060048201526024808201527f45524332303a20617070726f76652066726f6d20746865207a65726f206164646044820152637265737360e01b6064820152608401610515565b6001600160a01b03821661163d5760405162461bcd60e51b815260206004820152602260248201527f45524332303a20617070726f766520746f20746865207a65726f206164647265604482015261737360f01b6064820152608401610515565b6001600160a01b038381166000818152606d602090815260408083209487168084529482529182902085905590518481527f8c5be1e5ebec7d5bd14f71427d1e84f3dd0314c0f7b2291e5b200ac8c7c3b925910160405180910390a3505050565b6001600160a01b0383166117025760405162461bcd60e51b815260206004820152602560248201527f45524332303a207472616e736665722066726f6d20746865207a65726f206164604482015264647265737360d81b6064820152608401610515565b6001600160a01b0382166117645760405162461bcd60e51b815260206004820152602360248201527f45524332303a207472616e7366657220746f20746865207a65726f206164647260448201526265737360e81b6064820152608401610515565b6001600160a01b0383166000908152606c6020526040902054818110156117dc5760405162461bcd60e51b815260206004820152602660248201527f45524332303a207472616e7366657220616d6f756e7420657863656564732062604482015265616c616e636560d01b6064820152608401610515565b6001600160a01b038085166000908152606c6020526040808220858503905591851681529081208054849290611813908490612be6565b92505081905550826001600160a01b0316846001600160a01b03167fddf252ad1be2c89b69c2b068fc378daa952ba7f163c4a11628f55a4df523b3ef8460405161185f91815260200190565b60405180910390a36105e0565b600061076b8284612bfe565b6118878360a001518383611c56565b61189f8360800151604051602001610fae9190612b49565b8360600151146118f15760405162461bcd60e51b815260206004820152601c60248201527f496e636f72726563742065787465726e616c20646174612068617368000000006044820152606401610515565b6118f9610ec2565b8360400151101561191c5760405162461bcd60e51b815260040161051590612b08565b6001546040805161012081018252855181526020808701518183015286830151828401526060808801518184015260a08089018051516080808701919091528151909401519185019190915280519094015160c08401528351015160e08301529151909101516101008201526001600160a01b0390911690631e8e1e139086906119a590611d81565b6040518363ffffffff1660e01b81526004016119c2929190612ab2565b60206040518083038186803b1580156119da57600080fd5b505afa1580156119ee573d6000803e3d6000fd5b505050506040513d601f19601f82011682018060405250810190611a1291906126fa565b611a565760405162461bcd60e51b815260206004820152601560248201527424b73b30b634b2103232b837b9b4ba10383937b7b360591b6044820152606401610515565b60a08301516020908101516000908152600490915260409020805460ff19166001179055611a8561138361068e565b7fbd4a5ca11c6f082fd6d00dc9d1dced6ab22490039bc36154bfa748bf2bf743558360a00151608001518460a001516020015185608001516000015160016005546114149190612bfe565b6001600160a01b038216611b305760405162461bcd60e51b815260206004820152602160248201527f45524332303a206275726e2066726f6d20746865207a65726f206164647265736044820152607360f81b6064820152608401610515565b6001600160a01b0382166000908152606c602052604090205481811015611ba45760405162461bcd60e51b815260206004820152602260248201527f45524332303a206275726e20616d6f756e7420657863656564732062616c616e604482015261636560f01b6064820152608401610515565b6001600160a01b0383166000908152606c602052604081208383039055606e8054849290611bd3908490612bfe565b90915550506040518281526000906001600160a01b038516907fddf252ad1be2c89b69c2b068fc378daa952ba7f163c4a11628f55a4df523b3ef9060200160405180910390a3611575565b6040516001600160a01b03808516602483015283166044820152606481018290526105e09085906323b872dd60e01b9060840161153e565b60208084015160009081526004909152604090205460ff1615611cb45760405162461bcd60e51b81526020600482015260166024820152754f75746461746564206163636f756e7420737461746560501b6044820152606401610515565b611cbc61068e565b835114611d2c57611cd583600001518460600151610b1f565b611d185760405162461bcd60e51b8152602060048201526014602482015273125b9d985b1a59081858d8dbdd5b9d081c9bdbdd60621b6044820152606401610515565b611d2782828560800151611f37565b611575565b6005548360600151146115755760405162461bcd60e51b815260206004820152601e60248201527f496e636f7272656374206163636f756e7420696e7365727420696e64657800006044820152606401610515565b604080516009808252610140820190925260609160009190602082016101208036833701905050905060005b6009811015611e1857838160098110611dd657634e487b7160e01b600052603260045260246000fd5b6020020151828281518110611dfb57634e487b7160e01b600052603260045260246000fd5b602090810291909101015280611e1081612c7c565b915050611dad565b5092915050565b8060066064600560008154611e3390612c7c565b9182905550611e429190612c97565b60648110611e6057634e487b7160e01b600052603260045260246000fd5b015550565b6000611eba826040518060400160405280602081526020017f5361666545524332303a206c6f772d6c6576656c2063616c6c206661696c6564815250856001600160a01b031661218d9092919063ffffffff16565b8051909150156115755780806020019051810190611ed891906126fa565b6115755760405162461bcd60e51b815260206004820152602a60248201527f5361666545524332303a204552433230206f7065726174696f6e20646964206e6044820152691bdd081cdd58d8d9595960b21b6064820152608401610515565b6000835111611f885760405162461bcd60e51b815260206004820152601c60248201527f4f75746461746564206163636f756e74206d65726b6c6520726f6f74000000006044820152606401610515565b611f9061068e565b825114611fdf5760405162461bcd60e51b815260206004820181905260248201527f4f75746461746564207472656520757064617465206d65726b6c6520726f6f746044820152606401610515565b808260400151146120325760405162461bcd60e51b815260206004820152601d60248201527f496e636f727265637420636f6d6d69746d656e7420696e7365727465640000006044820152606401610515565b6005548260600151146120875760405162461bcd60e51b815260206004820152601e60248201527f496e636f7272656374206163636f756e7420696e7365727420696e64657800006044820152606401610515565b6003546040805160808101825284518152602080860151908201528482015191810191909152606080850151908201526001600160a01b0390911690631e8e1e139085906120d4906121a4565b6040518363ffffffff1660e01b81526004016120f1929190612ab2565b60206040518083038186803b15801561210957600080fd5b505afa15801561211d573d6000803e3d6000fd5b505050506040513d601f19601f8201168201806040525081019061214191906126fa565b6115755760405162461bcd60e51b815260206004820152601960248201527f496e76616c69642074726565207570646174652070726f6f66000000000000006044820152606401610515565b606061219c8484600085612239565b949350505050565b60408051600480825260a08201909252606091600091906020820160808036833701905050905060005b6004811015611e18578381600481106121f757634e487b7160e01b600052603260045260246000fd5b602002015182828151811061221c57634e487b7160e01b600052603260045260246000fd5b60209081029190910101528061223181612c7c565b9150506121ce565b60608247101561229a5760405162461bcd60e51b815260206004820152602660248201527f416464726573733a20696e73756666696369656e742062616c616e636520666f6044820152651c8818d85b1b60d21b6064820152608401610515565b843b6122e85760405162461bcd60e51b815260206004820152601d60248201527f416464726573733a2063616c6c20746f206e6f6e2d636f6e74726163740000006044820152606401610515565b600080866001600160a01b031685876040516123049190612a53565b60006040518083038185875af1925050503d8060008114612341576040519150601f19603f3d011682016040523d82523d6000602084013e612346565b606091505b5091509150612356828286612361565b979650505050505050565b6060831561237057508161076b565b8251156123805782518084602001fd5b8160405162461bcd60e51b81526004016105159190612a9f565b80356001600160a01b038116811461080157600080fd5b600082601f8301126123c1578081fd5b813567ffffffffffffffff8111156123db576123db612ccd565b6123ee601f8201601f1916602001612bb5565b818152846020838601011115612402578283fd5b816020850160208301379081016020019190915292915050565b600060a0828403121561242d578081fd5b61243760a0612bb5565b9050813581526020820135602082015260408201356040820152606082013560608201526080820135608082015292915050565b6000610140828403121561247d578081fd5b61248760c0612bb5565b905081358152602082013560208201526040820135604082015260608201356060820152608082013567ffffffffffffffff808211156124c657600080fd5b90830190602082860312156124da57600080fd5b6124e46020612bb5565b8235828111156124f357600080fd5b6124ff878286016123b1565b82525060808401525061251790508360a0840161241c565b60a082015292915050565b600060808284031215612533578081fd5b61253d6080612bb5565b90508135815260208201356020820152604082013560408201526060820135606082015292915050565b60006101408284031215612579578081fd5b61258360c0612bb5565b905081358152602082013560208201526040820135604082015260608201356060820152608082013567ffffffffffffffff808211156125c257600080fd5b9083019060a082860312156125d657600080fd5b6125e060a0612bb5565b823581526125f06020840161239a565b60208201526126016040840161239a565b60408201526060830135606082015260808301358281111561262257600080fd5b61262e878286016123b1565b6080830152508060808501525050506125178360a0840161241c565b60006020828403121561265b578081fd5b61076b8261239a565b60008060408385031215612676578081fd5b61267f8361239a565b915061268d6020840161239a565b90509250929050565b6000806000606084860312156126aa578081fd5b6126b38461239a565b92506126c16020850161239a565b9150604084013590509250925092565b600080604083850312156126e3578182fd5b6126ec8361239a565b946020939093013593505050565b60006020828403121561270b578081fd5b8151801515811461076b578182fd5b60006020828403121561272b578081fd5b5035919050565b60008060408385031215612744578182fd5b50508035926020909101359150565b60008060408385031215612765578182fd5b823567ffffffffffffffff8082111561277c578384fd5b612788868387016123b1565b9350602085013591508082111561279d578283fd5b506127aa8582860161246b565b9150509250929050565b60008060008060e085870312156127c9578182fd5b843567ffffffffffffffff808211156127e0578384fd5b6127ec888389016123b1565b95506020870135915080821115612801578384fd5b61280d8883890161246b565b94506040870135915080821115612822578384fd5b5061282f878288016123b1565b92505061283f8660608701612522565b905092959194509250565b6000806040838503121561285c578182fd5b823567ffffffffffffffff80821115612873578384fd5b61287f868387016123b1565b93506020850135915080821115612894578283fd5b506127aa85828601612567565b6000806000806000806000806101c0898b0312156128bd578586fd5b883567ffffffffffffffff808211156128d4578788fd5b6128e08c838d016123b1565b995060208b01359150808211156128f5578788fd5b6129018c838d01612567565b985060408b0135915080821115612916578788fd5b6129228c838d016123b1565b975060608b0135915080821115612937578586fd5b6129438c838d0161246b565b965060808b0135915080821115612958578586fd5b6129648c838d016123b1565b95506129738c60a08d01612522565b94506101208b0135915080821115612989578384fd5b506129968b828c016123b1565b9250506129a78a6101408b01612522565b90509295985092959890939650565b60008060008060e085870312156129cb578182fd5b843567ffffffffffffffff808211156129e2578384fd5b6129ee888389016123b1565b95506020870135915080821115612a03578384fd5b61280d88838901612567565b600060208284031215612a20578081fd5b5051919050565b60008151808452612a3f816020860160208601612c15565b601f01601f19169290920160200192915050565b60008251612a65818460208701612c15565b9190910192915050565b600085825284602083015260806040830152612a8e6080830185612a27565b905082606083015295945050505050565b60006020825261076b6020830184612a27565b600060408252612ac56040830185612a27565b828103602084810191909152845180835285820192820190845b81811015612afb57845183529383019391830191600101612adf565b5090979650505050505050565b60208082526021908201527f556e6465726c79696e672070657220756e6974206973206f76657273746174656040820152601960fa1b606082015260800190565b600060208252825160208084015261219c6040840182612a27565b60006020825282516020830152602083015160018060a01b038082166040850152806040860151166060850152505060608301516080830152608083015160a08084015261219c60c0840182612a27565b604051601f8201601f1916810167ffffffffffffffff81118282101715612bde57612bde612ccd565b604052919050565b60008219821115612bf957612bf9612cb7565b500190565b600082821015612c1057612c10612cb7565b500390565b60005b83811015612c30578181015183820152602001612c18565b838111156105e05750506000910152565b600181811c90821680612c5557607f821691505b60208210811415612c7657634e487b7160e01b600052602260045260246000fd5b50919050565b6000600019821415612c9057612c90612cb7565b5060010190565b600082612cb257634e487b7160e01b81526012600452602481fd5b500690565b634e487b7160e01b600052601160045260246000fd5b634e487b7160e01b600052604160045260246000fdfea26469706673582212202fdd44e51b7d6905d34fa7c91bda1f9276ab32ea988f194b8875fc84c143dc9164736f6c63430008030033",
  "immutableReferences": {},
  "source": "// SPDX-License-Identifier: MIT\n\npragma solidity ^0.8.0;\n\nimport \"@openzeppelin/contracts/token/ERC20/utils/SafeERC20.sol\";\nimport \"@openzeppelin/contracts/token/ERC20/IERC20.sol\";\nimport \"@openzeppelin/contracts/token/ERC20/ERC20.sol\";\nimport \"@openzeppelin/contracts/utils/math/SafeMath.sol\";\n\nimport \"./PoofLendable.sol\";\nimport \"./interfaces/IVerifier.sol\";\nimport \"./interfaces/IWERC20.sol\";\n\ncontract PoofMintableLendable is PoofLendable, ERC20 {\n  using SafeMath for uint256;\n  using SafeERC20 for IERC20;\n\n  constructor(\n    string memory _tokenName,\n    string memory _tokenSymbol,\n    IWERC20 _debtToken,\n    IVerifier[3] memory _verifiers,\n    bytes32 _accountRoot\n  ) ERC20(_tokenName, _tokenSymbol) PoofLendable(_debtToken, _verifiers, _accountRoot) {}\n\n  function burn(bytes memory _proof, DepositArgs memory _args) external {\n    burn(_proof, _args, new bytes(0), TreeUpdateArgs(0, 0, 0, 0));\n  }\n\n  function burn(\n    bytes memory _proof,\n    DepositArgs memory _args,\n    bytes memory _treeUpdateProof,\n    TreeUpdateArgs memory _treeUpdateArgs\n  ) public {\n    require(_args.amount == 0, \"Cannot use amount for burning\");\n    beforeDeposit(_proof, _args, _treeUpdateProof, _treeUpdateArgs);\n    _burn(msg.sender, _args.debt);\n  }\n\n  function mint(bytes memory _proof, WithdrawArgs memory _args) external {\n    mint(_proof, _args, new bytes(0), TreeUpdateArgs(0, 0, 0, 0));\n  }\n\n  function mint(\n    bytes memory _proof,\n    WithdrawArgs memory _args,\n    bytes memory _treeUpdateProof,\n    TreeUpdateArgs memory _treeUpdateArgs\n  ) public {\n    require(_args.amount == _args.extData.fee, \"Amount can only be used for fee\");\n    require(_args.extData.depositProofHash == bytes32(0), \"depositProofHash should be 0 for minting\");\n    beforeWithdraw(_proof, _args, _treeUpdateProof, _treeUpdateArgs);\n    if (_args.debt > 0) {\n      _mint(_args.extData.recipient, _args.debt);\n    }\n    if (_args.extData.fee > 0) {\n      token.safeTransfer(_args.extData.relayer, _args.extData.fee);\n    }\n  }\n\n  function underlyingBalanceOf(address owner) external view returns (uint256) {\n    uint256 balanceOf = balanceOf(owner);\n    return debtToken.debtToUnderlying(balanceOf);\n  }\n}\n\n",
  "sourcePath": "/home/home/poof-v2-core/contracts/PoofMintableLendable.sol",
  "compiler": {
    "name": "solc",
    "version": "0.8.3+commit.8d00100c.Emscripten.clang"
  },
  "schemaVersion": "3.4.3",
  "updatedAt": "2021-09-29T13:37:06.431Z",
  "networkType": "ethereum",
  "devdoc": {
    "kind": "dev",
    "methods": {
      "allowance(address,address)": {
        "details": "See {IERC20-allowance}."
      },
      "approve(address,uint256)": {
        "details": "See {IERC20-approve}. Requirements: - `spender` cannot be the zero address."
      },
      "balanceOf(address)": {
        "details": "See {IERC20-balanceOf}."
      },
      "decimals()": {
        "details": "Returns the number of decimals used to get its user representation. For example, if `decimals` equals `2`, a balance of `505` tokens should be displayed to a user as `5.05` (`505 / 10 ** 2`). Tokens usually opt for a value of 18, imitating the relationship between Ether and Wei. This is the value {ERC20} uses, unless this function is overridden; NOTE: This information is only used for _display_ purposes: it in no way affects any of the arithmetic of the contract, including {IERC20-balanceOf} and {IERC20-transfer}."
      },
      "decreaseAllowance(address,uint256)": {
        "details": "Atomically decreases the allowance granted to `spender` by the caller. This is an alternative to {approve} that can be used as a mitigation for problems described in {IERC20-approve}. Emits an {Approval} event indicating the updated allowance. Requirements: - `spender` cannot be the zero address. - `spender` must have allowance for the caller of at least `subtractedValue`."
      },
      "getLastAccountRoot()": {
        "details": "Returns the last root"
      },
      "increaseAllowance(address,uint256)": {
        "details": "Atomically increases the allowance granted to `spender` by the caller. This is an alternative to {approve} that can be used as a mitigation for problems described in {IERC20-approve}. Emits an {Approval} event indicating the updated allowance. Requirements: - `spender` cannot be the zero address."
      },
      "isKnownAccountRoot(bytes32,uint256)": {
        "details": "Whether the root is present in the root history"
      },
      "name()": {
        "details": "Returns the name of the token."
      },
      "symbol()": {
        "details": "Returns the symbol of the token, usually a shorter version of the name."
      },
      "totalSupply()": {
        "details": "See {IERC20-totalSupply}."
      },
      "transfer(address,uint256)": {
        "details": "See {IERC20-transfer}. Requirements: - `recipient` cannot be the zero address. - the caller must have a balance of at least `amount`."
      },
      "transferFrom(address,address,uint256)": {
        "details": "See {IERC20-transferFrom}. Emits an {Approval} event indicating the updated allowance. This is not required by the EIP. See the note at the beginning of {ERC20}. Requirements: - `sender` and `recipient` cannot be the zero address. - `sender` must have a balance of at least `amount`. - the caller must have allowance for ``sender``'s tokens of at least `amount`."
      }
    },
    "version": 1
  },
  "userdoc": {
    "kind": "user",
    "methods": {},
    "version": 1
  }
}