{
  "contractName": "PoofMintableLendable",
  "abi": [
    {
      "inputs": [
        {
          "internalType": "string",
          "name": "_tokenName",
          "type": "string"
        },
        {
          "internalType": "string",
          "name": "_tokenSymbol",
          "type": "string"
        },
        {
          "internalType": "contract IWERC20",
          "name": "_debtToken",
          "type": "address"
        },
        {
          "internalType": "contract IVerifier[5]",
          "name": "_verifiers",
          "type": "address[5]"
        },
        {
          "internalType": "bytes32",
          "name": "_accountRoot",
          "type": "bytes32"
        }
      ],
      "stateMutability": "nonpayable",
      "type": "constructor"
    },
    {
      "anonymous": false,
      "inputs": [
        {
          "indexed": true,
          "internalType": "address",
          "name": "owner",
          "type": "address"
        },
        {
          "indexed": true,
          "internalType": "address",
          "name": "spender",
          "type": "address"
        },
        {
          "indexed": false,
          "internalType": "uint256",
          "name": "value",
          "type": "uint256"
        }
      ],
      "name": "Approval",
      "type": "event"
    },
    {
      "anonymous": false,
      "inputs": [
        {
          "indexed": false,
          "internalType": "bytes32",
          "name": "commitment",
          "type": "bytes32"
        },
        {
          "indexed": false,
          "internalType": "bytes32",
          "name": "nullifier",
          "type": "bytes32"
        },
        {
          "indexed": false,
          "internalType": "bytes",
          "name": "encryptedAccount",
          "type": "bytes"
        },
        {
          "indexed": false,
          "internalType": "uint256",
          "name": "index",
          "type": "uint256"
        }
      ],
      "name": "NewAccount",
      "type": "event"
    },
    {
      "anonymous": false,
      "inputs": [
        {
          "indexed": true,
          "internalType": "address",
          "name": "from",
          "type": "address"
        },
        {
          "indexed": true,
          "internalType": "address",
          "name": "to",
          "type": "address"
        },
        {
          "indexed": false,
          "internalType": "uint256",
          "name": "value",
          "type": "uint256"
        }
      ],
      "name": "Transfer",
      "type": "event"
    },
    {
      "inputs": [],
      "name": "ACCOUNT_ROOT_HISTORY_SIZE",
      "outputs": [
        {
          "internalType": "uint256",
          "name": "",
          "type": "uint256"
        }
      ],
      "stateMutability": "view",
      "type": "function",
      "constant": true
    },
    {
      "inputs": [],
      "name": "accountCount",
      "outputs": [
        {
          "internalType": "uint256",
          "name": "",
          "type": "uint256"
        }
      ],
      "stateMutability": "view",
      "type": "function",
      "constant": true
    },
    {
      "inputs": [
        {
          "internalType": "bytes32",
          "name": "",
          "type": "bytes32"
        }
      ],
      "name": "accountNullifiers",
      "outputs": [
        {
          "internalType": "bool",
          "name": "",
          "type": "bool"
        }
      ],
      "stateMutability": "view",
      "type": "function",
      "constant": true
    },
    {
      "inputs": [
        {
          "internalType": "uint256",
          "name": "",
          "type": "uint256"
        }
      ],
      "name": "accountRoots",
      "outputs": [
        {
          "internalType": "bytes32",
          "name": "",
          "type": "bytes32"
        }
      ],
      "stateMutability": "view",
      "type": "function",
      "constant": true
    },
    {
      "inputs": [
        {
          "internalType": "address",
          "name": "owner",
          "type": "address"
        },
        {
          "internalType": "address",
          "name": "spender",
          "type": "address"
        }
      ],
      "name": "allowance",
      "outputs": [
        {
          "internalType": "uint256",
          "name": "",
          "type": "uint256"
        }
      ],
      "stateMutability": "view",
      "type": "function",
      "constant": true
    },
    {
      "inputs": [
        {
          "internalType": "address",
          "name": "spender",
          "type": "address"
        },
        {
          "internalType": "uint256",
          "name": "amount",
          "type": "uint256"
        }
      ],
      "name": "approve",
      "outputs": [
        {
          "internalType": "bool",
          "name": "",
          "type": "bool"
        }
      ],
      "stateMutability": "nonpayable",
      "type": "function"
    },
    {
      "inputs": [
        {
          "internalType": "address",
          "name": "account",
          "type": "address"
        }
      ],
      "name": "balanceOf",
      "outputs": [
        {
          "internalType": "uint256",
          "name": "",
          "type": "uint256"
        }
      ],
      "stateMutability": "view",
      "type": "function",
      "constant": true
    },
    {
      "inputs": [],
      "name": "debtToken",
      "outputs": [
        {
          "internalType": "contract IWERC20",
          "name": "",
          "type": "address"
        }
      ],
      "stateMutability": "view",
      "type": "function",
      "constant": true
    },
    {
      "inputs": [],
      "name": "decimals",
      "outputs": [
        {
          "internalType": "uint8",
          "name": "",
          "type": "uint8"
        }
      ],
      "stateMutability": "view",
      "type": "function",
      "constant": true
    },
    {
      "inputs": [
        {
          "internalType": "address",
          "name": "spender",
          "type": "address"
        },
        {
          "internalType": "uint256",
          "name": "subtractedValue",
          "type": "uint256"
        }
      ],
      "name": "decreaseAllowance",
      "outputs": [
        {
          "internalType": "bool",
          "name": "",
          "type": "bool"
        }
      ],
      "stateMutability": "nonpayable",
      "type": "function"
    },
    {
      "inputs": [
        {
          "internalType": "bytes[3]",
          "name": "_proofs",
          "type": "bytes[3]"
        },
        {
          "components": [
            {
              "internalType": "uint256",
              "name": "amount",
              "type": "uint256"
            },
            {
              "internalType": "uint256",
              "name": "debt",
              "type": "uint256"
            },
            {
              "internalType": "uint256",
              "name": "unitPerUnderlying",
              "type": "uint256"
            },
            {
              "internalType": "bytes32",
              "name": "extDataHash",
              "type": "bytes32"
            },
            {
              "components": [
                {
                  "internalType": "bytes",
                  "name": "encryptedAccount",
                  "type": "bytes"
                }
              ],
              "internalType": "struct PoofBase.DepositExtData",
              "name": "extData",
              "type": "tuple"
            },
            {
              "components": [
                {
                  "internalType": "bytes32",
                  "name": "inputRoot",
                  "type": "bytes32"
                },
                {
                  "internalType": "bytes32",
                  "name": "inputNullifierHash",
                  "type": "bytes32"
                },
                {
                  "internalType": "bytes32",
                  "name": "inputAccountHash",
                  "type": "bytes32"
                },
                {
                  "internalType": "bytes32",
                  "name": "outputRoot",
                  "type": "bytes32"
                },
                {
                  "internalType": "uint256",
                  "name": "outputPathIndices",
                  "type": "uint256"
                },
                {
                  "internalType": "bytes32",
                  "name": "outputCommitment",
                  "type": "bytes32"
                },
                {
                  "internalType": "bytes32",
                  "name": "outputAccountHash",
                  "type": "bytes32"
                }
              ],
              "internalType": "struct PoofBase.AccountUpdate",
              "name": "account",
              "type": "tuple"
            }
          ],
          "internalType": "struct PoofBase.DepositArgs",
          "name": "_args",
          "type": "tuple"
        },
        {
          "internalType": "bytes",
          "name": "_treeUpdateProof",
          "type": "bytes"
        },
        {
          "components": [
            {
              "internalType": "bytes32",
              "name": "oldRoot",
              "type": "bytes32"
            },
            {
              "internalType": "bytes32",
              "name": "newRoot",
              "type": "bytes32"
            },
            {
              "internalType": "bytes32",
              "name": "leaf",
              "type": "bytes32"
            },
            {
              "internalType": "uint256",
              "name": "pathIndices",
              "type": "uint256"
            }
          ],
          "internalType": "struct PoofBase.TreeUpdateArgs",
          "name": "_treeUpdateArgs",
          "type": "tuple"
        }
      ],
      "name": "deposit",
      "outputs": [],
      "stateMutability": "nonpayable",
      "type": "function"
    },
    {
      "inputs": [
        {
          "internalType": "bytes[3]",
          "name": "_proofs",
          "type": "bytes[3]"
        },
        {
          "components": [
            {
              "internalType": "uint256",
              "name": "amount",
              "type": "uint256"
            },
            {
              "internalType": "uint256",
              "name": "debt",
              "type": "uint256"
            },
            {
              "internalType": "uint256",
              "name": "unitPerUnderlying",
              "type": "uint256"
            },
            {
              "internalType": "bytes32",
              "name": "extDataHash",
              "type": "bytes32"
            },
            {
              "components": [
                {
                  "internalType": "bytes",
                  "name": "encryptedAccount",
                  "type": "bytes"
                }
              ],
              "internalType": "struct PoofBase.DepositExtData",
              "name": "extData",
              "type": "tuple"
            },
            {
              "components": [
                {
                  "internalType": "bytes32",
                  "name": "inputRoot",
                  "type": "bytes32"
                },
                {
                  "internalType": "bytes32",
                  "name": "inputNullifierHash",
                  "type": "bytes32"
                },
                {
                  "internalType": "bytes32",
                  "name": "inputAccountHash",
                  "type": "bytes32"
                },
                {
                  "internalType": "bytes32",
                  "name": "outputRoot",
                  "type": "bytes32"
                },
                {
                  "internalType": "uint256",
                  "name": "outputPathIndices",
                  "type": "uint256"
                },
                {
                  "internalType": "bytes32",
                  "name": "outputCommitment",
                  "type": "bytes32"
                },
                {
                  "internalType": "bytes32",
                  "name": "outputAccountHash",
                  "type": "bytes32"
                }
              ],
              "internalType": "struct PoofBase.AccountUpdate",
              "name": "account",
              "type": "tuple"
            }
          ],
          "internalType": "struct PoofBase.DepositArgs",
          "name": "_args",
          "type": "tuple"
        }
      ],
      "name": "deposit",
      "outputs": [],
      "stateMutability": "nonpayable",
      "type": "function"
    },
    {
      "inputs": [],
      "name": "depositVerifier",
      "outputs": [
        {
          "internalType": "contract IVerifier",
          "name": "",
          "type": "address"
        }
      ],
      "stateMutability": "view",
      "type": "function",
      "constant": true
    },
    {
      "inputs": [],
      "name": "getLastAccountRoot",
      "outputs": [
        {
          "internalType": "bytes32",
          "name": "",
          "type": "bytes32"
        }
      ],
      "stateMutability": "view",
      "type": "function",
      "constant": true
    },
    {
      "inputs": [
        {
          "internalType": "address",
          "name": "spender",
          "type": "address"
        },
        {
          "internalType": "uint256",
          "name": "addedValue",
          "type": "uint256"
        }
      ],
      "name": "increaseAllowance",
      "outputs": [
        {
          "internalType": "bool",
          "name": "",
          "type": "bool"
        }
      ],
      "stateMutability": "nonpayable",
      "type": "function"
    },
    {
      "inputs": [],
      "name": "inputRootVerifier",
      "outputs": [
        {
          "internalType": "contract IVerifier",
          "name": "",
          "type": "address"
        }
      ],
      "stateMutability": "view",
      "type": "function",
      "constant": true
    },
    {
      "inputs": [
        {
          "internalType": "bytes32",
          "name": "_root",
          "type": "bytes32"
        },
        {
          "internalType": "uint256",
          "name": "_index",
          "type": "uint256"
        }
      ],
      "name": "isKnownAccountRoot",
      "outputs": [
        {
          "internalType": "bool",
          "name": "",
          "type": "bool"
        }
      ],
      "stateMutability": "view",
      "type": "function",
      "constant": true
    },
    {
      "inputs": [],
      "name": "name",
      "outputs": [
        {
          "internalType": "string",
          "name": "",
          "type": "string"
        }
      ],
      "stateMutability": "view",
      "type": "function",
      "constant": true
    },
    {
      "inputs": [],
      "name": "outputRootVerifier",
      "outputs": [
        {
          "internalType": "contract IVerifier",
          "name": "",
          "type": "address"
        }
      ],
      "stateMutability": "view",
      "type": "function",
      "constant": true
    },
    {
      "inputs": [],
      "name": "symbol",
      "outputs": [
        {
          "internalType": "string",
          "name": "",
          "type": "string"
        }
      ],
      "stateMutability": "view",
      "type": "function",
      "constant": true
    },
    {
      "inputs": [],
      "name": "token",
      "outputs": [
        {
          "internalType": "contract IERC20",
          "name": "",
          "type": "address"
        }
      ],
      "stateMutability": "view",
      "type": "function",
      "constant": true
    },
    {
      "inputs": [],
      "name": "totalSupply",
      "outputs": [
        {
          "internalType": "uint256",
          "name": "",
          "type": "uint256"
        }
      ],
      "stateMutability": "view",
      "type": "function",
      "constant": true
    },
    {
      "inputs": [
        {
          "internalType": "address",
          "name": "recipient",
          "type": "address"
        },
        {
          "internalType": "uint256",
          "name": "amount",
          "type": "uint256"
        }
      ],
      "name": "transfer",
      "outputs": [
        {
          "internalType": "bool",
          "name": "",
          "type": "bool"
        }
      ],
      "stateMutability": "nonpayable",
      "type": "function"
    },
    {
      "inputs": [
        {
          "internalType": "address",
          "name": "sender",
          "type": "address"
        },
        {
          "internalType": "address",
          "name": "recipient",
          "type": "address"
        },
        {
          "internalType": "uint256",
          "name": "amount",
          "type": "uint256"
        }
      ],
      "name": "transferFrom",
      "outputs": [
        {
          "internalType": "bool",
          "name": "",
          "type": "bool"
        }
      ],
      "stateMutability": "nonpayable",
      "type": "function"
    },
    {
      "inputs": [],
      "name": "treeUpdateVerifier",
      "outputs": [
        {
          "internalType": "contract IVerifier",
          "name": "",
          "type": "address"
        }
      ],
      "stateMutability": "view",
      "type": "function",
      "constant": true
    },
    {
      "inputs": [],
      "name": "underlyingToken",
      "outputs": [
        {
          "internalType": "contract IERC20",
          "name": "",
          "type": "address"
        }
      ],
      "stateMutability": "view",
      "type": "function",
      "constant": true
    },
    {
      "inputs": [],
      "name": "unitPerUnderlying",
      "outputs": [
        {
          "internalType": "uint256",
          "name": "",
          "type": "uint256"
        }
      ],
      "stateMutability": "view",
      "type": "function",
      "constant": true
    },
    {
      "inputs": [
        {
          "internalType": "bytes[3]",
          "name": "_proofs",
          "type": "bytes[3]"
        },
        {
          "components": [
            {
              "internalType": "uint256",
              "name": "amount",
              "type": "uint256"
            },
            {
              "internalType": "uint256",
              "name": "debt",
              "type": "uint256"
            },
            {
              "internalType": "uint256",
              "name": "unitPerUnderlying",
              "type": "uint256"
            },
            {
              "internalType": "bytes32",
              "name": "extDataHash",
              "type": "bytes32"
            },
            {
              "components": [
                {
                  "internalType": "uint256",
                  "name": "fee",
                  "type": "uint256"
                },
                {
                  "internalType": "address",
                  "name": "recipient",
                  "type": "address"
                },
                {
                  "internalType": "address",
                  "name": "relayer",
                  "type": "address"
                },
                {
                  "internalType": "bytes",
                  "name": "encryptedAccount",
                  "type": "bytes"
                }
              ],
              "internalType": "struct PoofBase.WithdrawExtData",
              "name": "extData",
              "type": "tuple"
            },
            {
              "components": [
                {
                  "internalType": "bytes32",
                  "name": "inputRoot",
                  "type": "bytes32"
                },
                {
                  "internalType": "bytes32",
                  "name": "inputNullifierHash",
                  "type": "bytes32"
                },
                {
                  "internalType": "bytes32",
                  "name": "inputAccountHash",
                  "type": "bytes32"
                },
                {
                  "internalType": "bytes32",
                  "name": "outputRoot",
                  "type": "bytes32"
                },
                {
                  "internalType": "uint256",
                  "name": "outputPathIndices",
                  "type": "uint256"
                },
                {
                  "internalType": "bytes32",
                  "name": "outputCommitment",
                  "type": "bytes32"
                },
                {
                  "internalType": "bytes32",
                  "name": "outputAccountHash",
                  "type": "bytes32"
                }
              ],
              "internalType": "struct PoofBase.AccountUpdate",
              "name": "account",
              "type": "tuple"
            }
          ],
          "internalType": "struct PoofBase.WithdrawArgs",
          "name": "_args",
          "type": "tuple"
        },
        {
          "internalType": "bytes",
          "name": "_treeUpdateProof",
          "type": "bytes"
        },
        {
          "components": [
            {
              "internalType": "bytes32",
              "name": "oldRoot",
              "type": "bytes32"
            },
            {
              "internalType": "bytes32",
              "name": "newRoot",
              "type": "bytes32"
            },
            {
              "internalType": "bytes32",
              "name": "leaf",
              "type": "bytes32"
            },
            {
              "internalType": "uint256",
              "name": "pathIndices",
              "type": "uint256"
            }
          ],
          "internalType": "struct PoofBase.TreeUpdateArgs",
          "name": "_treeUpdateArgs",
          "type": "tuple"
        }
      ],
      "name": "withdraw",
      "outputs": [],
      "stateMutability": "nonpayable",
      "type": "function"
    },
    {
      "inputs": [
        {
          "internalType": "bytes[3]",
          "name": "_proofs",
          "type": "bytes[3]"
        },
        {
          "components": [
            {
              "internalType": "uint256",
              "name": "amount",
              "type": "uint256"
            },
            {
              "internalType": "uint256",
              "name": "debt",
              "type": "uint256"
            },
            {
              "internalType": "uint256",
              "name": "unitPerUnderlying",
              "type": "uint256"
            },
            {
              "internalType": "bytes32",
              "name": "extDataHash",
              "type": "bytes32"
            },
            {
              "components": [
                {
                  "internalType": "uint256",
                  "name": "fee",
                  "type": "uint256"
                },
                {
                  "internalType": "address",
                  "name": "recipient",
                  "type": "address"
                },
                {
                  "internalType": "address",
                  "name": "relayer",
                  "type": "address"
                },
                {
                  "internalType": "bytes",
                  "name": "encryptedAccount",
                  "type": "bytes"
                }
              ],
              "internalType": "struct PoofBase.WithdrawExtData",
              "name": "extData",
              "type": "tuple"
            },
            {
              "components": [
                {
                  "internalType": "bytes32",
                  "name": "inputRoot",
                  "type": "bytes32"
                },
                {
                  "internalType": "bytes32",
                  "name": "inputNullifierHash",
                  "type": "bytes32"
                },
                {
                  "internalType": "bytes32",
                  "name": "inputAccountHash",
                  "type": "bytes32"
                },
                {
                  "internalType": "bytes32",
                  "name": "outputRoot",
                  "type": "bytes32"
                },
                {
                  "internalType": "uint256",
                  "name": "outputPathIndices",
                  "type": "uint256"
                },
                {
                  "internalType": "bytes32",
                  "name": "outputCommitment",
                  "type": "bytes32"
                },
                {
                  "internalType": "bytes32",
                  "name": "outputAccountHash",
                  "type": "bytes32"
                }
              ],
              "internalType": "struct PoofBase.AccountUpdate",
              "name": "account",
              "type": "tuple"
            }
          ],
          "internalType": "struct PoofBase.WithdrawArgs",
          "name": "_args",
          "type": "tuple"
        }
      ],
      "name": "withdraw",
      "outputs": [],
      "stateMutability": "nonpayable",
      "type": "function"
    },
    {
      "inputs": [],
      "name": "withdrawVerifier",
      "outputs": [
        {
          "internalType": "contract IVerifier",
          "name": "",
          "type": "address"
        }
      ],
      "stateMutability": "view",
      "type": "function",
      "constant": true
    },
    {
      "inputs": [
        {
          "internalType": "bytes[3]",
          "name": "_proofs",
          "type": "bytes[3]"
        },
        {
          "components": [
            {
              "internalType": "uint256",
              "name": "amount",
              "type": "uint256"
            },
            {
              "internalType": "uint256",
              "name": "debt",
              "type": "uint256"
            },
            {
              "internalType": "uint256",
              "name": "unitPerUnderlying",
              "type": "uint256"
            },
            {
              "internalType": "bytes32",
              "name": "extDataHash",
              "type": "bytes32"
            },
            {
              "components": [
                {
                  "internalType": "bytes",
                  "name": "encryptedAccount",
                  "type": "bytes"
                }
              ],
              "internalType": "struct PoofBase.DepositExtData",
              "name": "extData",
              "type": "tuple"
            },
            {
              "components": [
                {
                  "internalType": "bytes32",
                  "name": "inputRoot",
                  "type": "bytes32"
                },
                {
                  "internalType": "bytes32",
                  "name": "inputNullifierHash",
                  "type": "bytes32"
                },
                {
                  "internalType": "bytes32",
                  "name": "inputAccountHash",
                  "type": "bytes32"
                },
                {
                  "internalType": "bytes32",
                  "name": "outputRoot",
                  "type": "bytes32"
                },
                {
                  "internalType": "uint256",
                  "name": "outputPathIndices",
                  "type": "uint256"
                },
                {
                  "internalType": "bytes32",
                  "name": "outputCommitment",
                  "type": "bytes32"
                },
                {
                  "internalType": "bytes32",
                  "name": "outputAccountHash",
                  "type": "bytes32"
                }
              ],
              "internalType": "struct PoofBase.AccountUpdate",
              "name": "account",
              "type": "tuple"
            }
          ],
          "internalType": "struct PoofBase.DepositArgs",
          "name": "_args",
          "type": "tuple"
        },
        {
          "internalType": "bytes",
          "name": "_treeUpdateProof",
          "type": "bytes"
        },
        {
          "components": [
            {
              "internalType": "bytes32",
              "name": "oldRoot",
              "type": "bytes32"
            },
            {
              "internalType": "bytes32",
              "name": "newRoot",
              "type": "bytes32"
            },
            {
              "internalType": "bytes32",
              "name": "leaf",
              "type": "bytes32"
            },
            {
              "internalType": "uint256",
              "name": "pathIndices",
              "type": "uint256"
            }
          ],
          "internalType": "struct PoofBase.TreeUpdateArgs",
          "name": "_treeUpdateArgs",
          "type": "tuple"
        }
      ],
      "name": "burn",
      "outputs": [],
      "stateMutability": "nonpayable",
      "type": "function"
    },
    {
      "inputs": [
        {
          "internalType": "bytes[3]",
          "name": "_proofs",
          "type": "bytes[3]"
        },
        {
          "components": [
            {
              "internalType": "uint256",
              "name": "amount",
              "type": "uint256"
            },
            {
              "internalType": "uint256",
              "name": "debt",
              "type": "uint256"
            },
            {
              "internalType": "uint256",
              "name": "unitPerUnderlying",
              "type": "uint256"
            },
            {
              "internalType": "bytes32",
              "name": "extDataHash",
              "type": "bytes32"
            },
            {
              "components": [
                {
                  "internalType": "bytes",
                  "name": "encryptedAccount",
                  "type": "bytes"
                }
              ],
              "internalType": "struct PoofBase.DepositExtData",
              "name": "extData",
              "type": "tuple"
            },
            {
              "components": [
                {
                  "internalType": "bytes32",
                  "name": "inputRoot",
                  "type": "bytes32"
                },
                {
                  "internalType": "bytes32",
                  "name": "inputNullifierHash",
                  "type": "bytes32"
                },
                {
                  "internalType": "bytes32",
                  "name": "inputAccountHash",
                  "type": "bytes32"
                },
                {
                  "internalType": "bytes32",
                  "name": "outputRoot",
                  "type": "bytes32"
                },
                {
                  "internalType": "uint256",
                  "name": "outputPathIndices",
                  "type": "uint256"
                },
                {
                  "internalType": "bytes32",
                  "name": "outputCommitment",
                  "type": "bytes32"
                },
                {
                  "internalType": "bytes32",
                  "name": "outputAccountHash",
                  "type": "bytes32"
                }
              ],
              "internalType": "struct PoofBase.AccountUpdate",
              "name": "account",
              "type": "tuple"
            }
          ],
          "internalType": "struct PoofBase.DepositArgs",
          "name": "_args",
          "type": "tuple"
        }
      ],
      "name": "burn",
      "outputs": [],
      "stateMutability": "nonpayable",
      "type": "function"
    },
    {
      "inputs": [
        {
          "internalType": "bytes[3]",
          "name": "_proofs",
          "type": "bytes[3]"
        },
        {
          "components": [
            {
              "internalType": "uint256",
              "name": "amount",
              "type": "uint256"
            },
            {
              "internalType": "uint256",
              "name": "debt",
              "type": "uint256"
            },
            {
              "internalType": "uint256",
              "name": "unitPerUnderlying",
              "type": "uint256"
            },
            {
              "internalType": "bytes32",
              "name": "extDataHash",
              "type": "bytes32"
            },
            {
              "components": [
                {
                  "internalType": "uint256",
                  "name": "fee",
                  "type": "uint256"
                },
                {
                  "internalType": "address",
                  "name": "recipient",
                  "type": "address"
                },
                {
                  "internalType": "address",
                  "name": "relayer",
                  "type": "address"
                },
                {
                  "internalType": "bytes",
                  "name": "encryptedAccount",
                  "type": "bytes"
                }
              ],
              "internalType": "struct PoofBase.WithdrawExtData",
              "name": "extData",
              "type": "tuple"
            },
            {
              "components": [
                {
                  "internalType": "bytes32",
                  "name": "inputRoot",
                  "type": "bytes32"
                },
                {
                  "internalType": "bytes32",
                  "name": "inputNullifierHash",
                  "type": "bytes32"
                },
                {
                  "internalType": "bytes32",
                  "name": "inputAccountHash",
                  "type": "bytes32"
                },
                {
                  "internalType": "bytes32",
                  "name": "outputRoot",
                  "type": "bytes32"
                },
                {
                  "internalType": "uint256",
                  "name": "outputPathIndices",
                  "type": "uint256"
                },
                {
                  "internalType": "bytes32",
                  "name": "outputCommitment",
                  "type": "bytes32"
                },
                {
                  "internalType": "bytes32",
                  "name": "outputAccountHash",
                  "type": "bytes32"
                }
              ],
              "internalType": "struct PoofBase.AccountUpdate",
              "name": "account",
              "type": "tuple"
            }
          ],
          "internalType": "struct PoofBase.WithdrawArgs",
          "name": "_args",
          "type": "tuple"
        },
        {
          "internalType": "bytes",
          "name": "_treeUpdateProof",
          "type": "bytes"
        },
        {
          "components": [
            {
              "internalType": "bytes32",
              "name": "oldRoot",
              "type": "bytes32"
            },
            {
              "internalType": "bytes32",
              "name": "newRoot",
              "type": "bytes32"
            },
            {
              "internalType": "bytes32",
              "name": "leaf",
              "type": "bytes32"
            },
            {
              "internalType": "uint256",
              "name": "pathIndices",
              "type": "uint256"
            }
          ],
          "internalType": "struct PoofBase.TreeUpdateArgs",
          "name": "_treeUpdateArgs",
          "type": "tuple"
        }
      ],
      "name": "mint",
      "outputs": [],
      "stateMutability": "nonpayable",
      "type": "function"
    },
    {
      "inputs": [
        {
          "internalType": "bytes[3]",
          "name": "_proofs",
          "type": "bytes[3]"
        },
        {
          "components": [
            {
              "internalType": "uint256",
              "name": "amount",
              "type": "uint256"
            },
            {
              "internalType": "uint256",
              "name": "debt",
              "type": "uint256"
            },
            {
              "internalType": "uint256",
              "name": "unitPerUnderlying",
              "type": "uint256"
            },
            {
              "internalType": "bytes32",
              "name": "extDataHash",
              "type": "bytes32"
            },
            {
              "components": [
                {
                  "internalType": "uint256",
                  "name": "fee",
                  "type": "uint256"
                },
                {
                  "internalType": "address",
                  "name": "recipient",
                  "type": "address"
                },
                {
                  "internalType": "address",
                  "name": "relayer",
                  "type": "address"
                },
                {
                  "internalType": "bytes",
                  "name": "encryptedAccount",
                  "type": "bytes"
                }
              ],
              "internalType": "struct PoofBase.WithdrawExtData",
              "name": "extData",
              "type": "tuple"
            },
            {
              "components": [
                {
                  "internalType": "bytes32",
                  "name": "inputRoot",
                  "type": "bytes32"
                },
                {
                  "internalType": "bytes32",
                  "name": "inputNullifierHash",
                  "type": "bytes32"
                },
                {
                  "internalType": "bytes32",
                  "name": "inputAccountHash",
                  "type": "bytes32"
                },
                {
                  "internalType": "bytes32",
                  "name": "outputRoot",
                  "type": "bytes32"
                },
                {
                  "internalType": "uint256",
                  "name": "outputPathIndices",
                  "type": "uint256"
                },
                {
                  "internalType": "bytes32",
                  "name": "outputCommitment",
                  "type": "bytes32"
                },
                {
                  "internalType": "bytes32",
                  "name": "outputAccountHash",
                  "type": "bytes32"
                }
              ],
              "internalType": "struct PoofBase.AccountUpdate",
              "name": "account",
              "type": "tuple"
            }
          ],
          "internalType": "struct PoofBase.WithdrawArgs",
          "name": "_args",
          "type": "tuple"
        }
      ],
      "name": "mint",
      "outputs": [],
      "stateMutability": "nonpayable",
      "type": "function"
    },
    {
      "inputs": [
        {
          "internalType": "address",
          "name": "owner",
          "type": "address"
        }
      ],
      "name": "underlyingBalanceOf",
      "outputs": [
        {
          "internalType": "uint256",
          "name": "",
          "type": "uint256"
        }
      ],
      "stateMutability": "view",
      "type": "function",
      "constant": true
    }
  ],
  "bytecode": "0x60806040523480156200001157600080fd5b506040516200357f3803806200357f8339810160408190526200003491620002f7565b60078190558151600080546001600160a01b03199081166001600160a01b039384161790915560208085015160018054841691851691909117905560408086015160028054851691861691909117905560608601516003805485169186169190911790556080860151600480548516918616919091178155606b80549094169488169485179093558051632495a59960e01b8152905189948994899489948994632495a599938281019392829003018186803b158015620000f457600080fd5b505afa15801562000109573d6000803e3d6000fd5b505050506040513d601f19601f820116820180604052508101906200012f9190620002d1565b606c80546001600160a01b039283166001600160a01b031991821617909155606d80549590921694169390931790925550508151620001769060719060208501906200019a565b5080516200018c9060729060208401906200019a565b505050505050505062000481565b828054620001a89062000415565b90600052602060002090601f016020900481019282620001cc576000855562000217565b82601f10620001e757805160ff191683800117855562000217565b8280016001018555821562000217579182015b8281111562000217578251825591602001919060010190620001fa565b506200022592915062000229565b5090565b5b808211156200022557600081556001016200022a565b600082601f83011262000251578081fd5b81516001600160401b038111156200026d576200026d62000452565b602062000283601f8301601f19168201620003e2565b828152858284870101111562000297578384fd5b835b83811015620002b657858101830151828201840152820162000299565b83811115620002c757848385840101525b5095945050505050565b600060208284031215620002e3578081fd5b8151620002f08162000468565b9392505050565b6000806000806000610120868803121562000310578081fd5b85516001600160401b038082111562000327578283fd5b6200033589838a0162000240565b96506020915081880151818111156200034c578384fd5b6200035a8a828b0162000240565b9650505060408701516200036e8162000468565b9350607f870188136200037f578182fd5b6200038b60a0620003e2565b80606089016101008a018b811115620003a2578586fd5b855b6005811015620003ce578251620003bb8162000468565b85529385019391850191600101620003a4565b5051989b979a509598509695945050505050565b604051601f8201601f191681016001600160401b03811182821017156200040d576200040d62000452565b604052919050565b600181811c908216806200042a57607f821691505b602082108114156200044c57634e487b7160e01b600052602260045260246000fd5b50919050565b634e487b7160e01b600052604160045260246000fd5b6001600160a01b03811681146200047e57600080fd5b50565b6130ee80620004916000396000f3fe608060405234801561001057600080fd5b50600436106102115760003560e01c8063703c64d011610125578063c14a0b62116100ad578063dd62ed3e1161007c578063dd62ed3e14610468578063e4af29fc146104a1578063f15d0b3a146104aa578063f8d89898146104bd578063fc0c546a146104d057610211565b8063c14a0b6214610427578063c6a4b0531461043a578063cab9ecc21461044d578063d1a0c3001461046057610211565b8063935a8b84116100f4578063935a8b84146103d357806395d89b41146103e657806397f098d7146103ee578063a457c2d714610401578063a9059cbb1461041457610211565b8063703c64d01461038757806370a082311461039a57806371f43e3c146103ad578063864eb164146103c057610211565b80632495a599116101a85780633950935111610177578063395093511461032357806342a660b0146103365780634a20de581461035957806352ef8e961461036c578063538d2f801461037457610211565b80632495a599146102db57806326120c88146102ee5780632c58ae4e14610301578063313ce5671461031457610211565b80631311b6e8116101e45780631311b6e81461027f57806318160ddd1461029557806320d43b3b1461029d57806323b872dd146102c857610211565b806306fdde0314610216578063095ea7b3146102345780630af8d2401461025757806311beac241461026c575b600080fd5b61021e6104e3565b60405161022b9190612ed4565b60405180910390f35b610247610242366004612bc5565b610575565b604051901515815260200161022b565b61026a610265366004612d3c565b61058b565b005b61026a61027a366004612c4f565b6107dc565b61028761084b565b60405190815260200161022b565b607054610287565b6002546102b0906001600160a01b031681565b6040516001600160a01b03909116815260200161022b565b6102476102d6366004612b8a565b610883565b606c546102b0906001600160a01b031681565b6000546102b0906001600160a01b031681565b61026a61030f366004612d3c565b61092f565b6040516012815260200161022b565b610247610331366004612bc5565b610ac5565b610247610344366004612db5565b60056020526000908152604090205460ff1681565b6004546102b0906001600160a01b031681565b610287606481565b61026a610382366004612bee565b610b01565b61026a610395366004612c4f565b610b3a565b6102876103a8366004612b3e565b610d0b565b61026a6103bb366004612ce5565b610d2a565b6001546102b0906001600160a01b031681565b6102876103e1366004612b3e565b610d5f565b61021e610de8565b6102476103fc366004612dcd565b610df7565b61024761040f366004612bc5565b610e39565b610247610422366004612bc5565b610ed2565b61026a610435366004612bee565b610edf565b610287610448366004612db5565b610f14565b61026a61045b366004612ce5565b610f2b565b610287610f60565b610287610476366004612b58565b6001600160a01b039182166000908152606f6020908152604080832093909416825291909152205490565b61028760065481565b6003546102b0906001600160a01b031681565b606d546102b0906001600160a01b031681565b606b546102b0906001600160a01b031681565b6060607180546104f290613016565b80601f016020809104026020016040519081016040528092919081815260200182805461051e90613016565b801561056b5780601f106105405761010080835404028352916020019161056b565b820191906000526020600020905b81548152906001019060200180831161054e57829003601f168201915b5050505050905090565b6000610582338484610fe2565b50600192915050565b61059784848484611106565b608083015151835110156105fc5760405162461bcd60e51b815260206004820152602160248201527f4665652063616e6e6f742062652067726561746572207468616e20616d6f756e6044820152601d60fa1b60648201526084015b60405180910390fd5b606d5460808401515184516000926001600160a01b0316916304626a6491610623916116c3565b6040518263ffffffff1660e01b815260040161064191815260200190565b60206040518083038186803b15801561065957600080fd5b505afa15801561066d573d6000803e3d6000fd5b505050506040513d601f19601f820116820180604052508101906106919190612dee565b606d546080860151516040516301189a9960e21b81529293506000926001600160a01b03909216916304626a64916106cf9160040190815260200190565b60206040518083038186803b1580156106e757600080fd5b505afa1580156106fb573d6000803e3d6000fd5b505050506040513d601f19601f8201168201806040525081019061071f9190612dee565b606d548651604051636f074d1f60e11b815260048101919091529192506001600160a01b03169063de0e9a3e90602401600060405180830381600087803b15801561076957600080fd5b505af115801561077d573d6000803e3d6000fd5b5050505060008211156107ac57608085015160200151606c546107ac916001600160a01b0390911690846116cf565b80156107d457608085015160400151606c546107d4916001600160a01b0390911690836116cf565b505050505050565b6107e884848484611737565b8251156108375760405162461bcd60e51b815260206004820152601d60248201527f43616e6e6f742075736520616d6f756e7420666f72206275726e696e6700000060448201526064016105f3565b610845338460200151611b8c565b50505050565b60006007606460065461085e919061306c565b6064811061087c57634e487b7160e01b600052603260045260246000fd5b0154905090565b6000610890848484611cda565b6001600160a01b0384166000908152606f60209081526040808320338452909152902054828110156109155760405162461bcd60e51b815260206004820152602860248201527f45524332303a207472616e7366657220616d6f756e74206578636565647320616044820152676c6c6f77616e636560c01b60648201526084016105f3565b6109228533858403610fe2565b60019150505b9392505050565b61093b84848484611106565b6080830151518351146109905760405162461bcd60e51b815260206004820152601f60248201527f416d6f756e742063616e206f6e6c79206265207573656420666f72206665650060448201526064016105f3565b606d546080840151516040516301189a9960e21b815260048101919091526000916001600160a01b0316906304626a649060240160206040518083038186803b1580156109dc57600080fd5b505afa1580156109f0573d6000803e3d6000fd5b505050506040513d601f19601f82011682018060405250810190610a149190612dee565b606d548551604051636f074d1f60e11b815260048101919091529192506001600160a01b03169063de0e9a3e90602401600060405180830381600087803b158015610a5e57600080fd5b505af1158015610a72573d6000803e3d6000fd5b50505050602084015115610a9657610a968460800151602001518560200151611ea8565b8015610abe57608084015160400151606c54610abe916001600160a01b0390911690836116cf565b5050505050565b336000818152606f602090815260408083206001600160a01b03871684529091528120549091610582918590610afc908690612fbb565b610fe2565b60408051600080825260a08201835260208201818152928201819052606082018190526080820152610b3691849184916107dc565b5050565b610b4684848484611737565b606d5483516040516301189a9960e21b815260048101919091526000916001600160a01b0316906304626a649060240160206040518083038186803b158015610b8e57600080fd5b505afa158015610ba2573d6000803e3d6000fd5b505050506040513d601f19601f82011682018060405250810190610bc69190612dee565b606c54909150610be1906001600160a01b0316333084611f88565b606c54606d5460405163095ea7b360e01b81526001600160a01b0391821660048201526024810184905291169063095ea7b390604401602060405180830381600087803b158015610c3157600080fd5b505af1158015610c45573d6000803e3d6000fd5b505050506040513d601f19601f82011682018060405250810190610c699190612d95565b610ca65760405162461bcd60e51b815260206004820152600e60248201526d105c1c1c9bdd994819985a5b195960921b60448201526064016105f3565b606d54604051630ea598cb60e41b8152600481018390526001600160a01b039091169063ea598cb090602401600060405180830381600087803b158015610cec57600080fd5b505af1158015610d00573d6000803e3d6000fd5b505050505050505050565b6001600160a01b0381166000908152606e60205260409020545b919050565b60408051600080825260a08201835260208201818152928201819052606082018190526080820152610b36918491849161092f565b600080610d6b83610d0b565b606d546040516301189a9960e21b8152600481018390529192506001600160a01b0316906304626a649060240160206040518083038186803b158015610db057600080fd5b505afa158015610dc4573d6000803e3d6000fd5b505050506040513d601f19601f820116820180604052508101906109289190612dee565b6060607280546104f290613016565b600082158015906109285750826007610e1160648561306c565b60648110610e2f57634e487b7160e01b600052603260045260246000fd5b0154149392505050565b336000908152606f602090815260408083206001600160a01b038616845290915281205482811015610ebb5760405162461bcd60e51b815260206004820152602560248201527f45524332303a2064656372656173656420616c6c6f77616e63652062656c6f77604482015264207a65726f60d81b60648201526084016105f3565b610ec83385858403610fe2565b5060019392505050565b6000610582338484611cda565b60408051600080825260a08201835260208201818152928201819052606082018190526080820152610b369184918491610b3a565b60078160648110610f2457600080fd5b0154905081565b60408051600080825260a08201835260208201818152928201819052606082018190526080820152610b36918491849161058b565b606d546040516307be638960e51b8152600160048201526000916001600160a01b03169063f7cc71209060240160206040518083038186803b158015610fa557600080fd5b505afa158015610fb9573d6000803e3d6000fd5b505050506040513d601f19601f82011682018060405250810190610fdd9190612dee565b905090565b6001600160a01b0383166110445760405162461bcd60e51b8152602060048201526024808201527f45524332303a20617070726f76652066726f6d20746865207a65726f206164646044820152637265737360e01b60648201526084016105f3565b6001600160a01b0382166110a55760405162461bcd60e51b815260206004820152602260248201527f45524332303a20617070726f766520746f20746865207a65726f206164647265604482015261737360f01b60648201526084016105f3565b6001600160a01b038381166000818152606f602090815260408083209487168084529482529182902085905590518481527f8c5be1e5ebec7d5bd14f71427d1e84f3dd0314c0f7b2291e5b200ac8c7c3b925910160405180910390a3505050565b6111158360a001518383611fc0565b611150836080015160405160200161112d9190612f43565b60405160208183030381529060405280516020909101206001600160f81b031690565b8360600151146111a25760405162461bcd60e51b815260206004820152601c60248201527f496e636f72726563742065787465726e616c206461746120686173680000000060448201526064016105f3565b8251600160f81b116111f65760405162461bcd60e51b815260206004820152601960248201527f416d6f756e742076616c7565206f7574206f662072616e67650000000000000060448201526064016105f3565b600160f81b83602001511061124d5760405162461bcd60e51b815260206004820152601760248201527f446562742076616c7565206f7574206f662072616e676500000000000000000060448201526064016105f3565b608083015151835110156112a35760405162461bcd60e51b815260206004820152601c60248201527f416d6f756e742073686f756c64206265203e3d207468616e206665650000000060448201526064016105f3565b6112ab610f60565b836040015110156112ce5760405162461bcd60e51b81526004016105f390612ee7565b60015484516040805160c08082018352875182526020888101519083015287830151828401526060808901519083015260a0808901805190940151608084015292510151918101919091526001600160a01b0390921691631e8e1e139190611335906120eb565b6040518363ffffffff1660e01b8152600401611352929190612e7e565b60206040518083038186803b15801561136a57600080fd5b505afa15801561137e573d6000803e3d6000fd5b505050506040513d601f19601f820116820180604052508101906113a29190612d95565b6113ee5760405162461bcd60e51b815260206004820152601860248201527f496e76616c6964207769746864726177616c2070726f6f66000000000000000060448201526064016105f3565b6002546020808601516040805160608101825260a0880180515182528051850151948201949094529251810151908301526001600160a01b0390921691631e8e1e139161143a9061218a565b6040518363ffffffff1660e01b8152600401611457929190612e7e565b60206040518083038186803b15801561146f57600080fd5b505afa158015611483573d6000803e3d6000fd5b505050506040513d601f19601f820116820180604052508101906114a79190612d95565b6114ee5760405162461bcd60e51b815260206004820152601860248201527724b73b30b634b21034b7383aba103937b7ba10383937b7b360411b60448201526064016105f3565b600354604080860151815160a08082018452878101805151835280516060908101516020850152815160809081015196850196909652815190920151918301919091525160c00151928101929092526001600160a01b0390921691631e8e1e13916115589061221f565b6040518363ffffffff1660e01b8152600401611575929190612e7e565b60206040518083038186803b15801561158d57600080fd5b505afa1580156115a1573d6000803e3d6000fd5b505050506040513d601f19601f820116820180604052508101906115c59190612d95565b61160d5760405162461bcd60e51b815260206004820152601960248201527824b73b30b634b21037baba383aba103937b7ba10383937b7b360391b60448201526064016105f3565b61163c61161861084b565b60a0850151511461162d578160200151611637565b8360a00151606001515b6122b5565b60a0808401805160209081015160009081526005825260409020805460ff191660019081179091559151928301519201516080860151606001516006547fbd4a5ca11c6f082fd6d00dc9d1dced6ab22490039bc36154bfa748bf2bf7435594936116a591612fd3565b6040516116b59493929190612e4e565b60405180910390a150505050565b60006109288284612fd3565b6040516001600160a01b03831660248201526044810182905261173290849063a9059cbb60e01b906064015b60408051601f198184030181529190526020810180516001600160e01b03166001600160e01b0319909316929092179091526122fb565b505050565b6117468360a001518383611fc0565b61175e836080015160405160200161112d9190612f28565b8360600151146117b05760405162461bcd60e51b815260206004820152601c60248201527f496e636f72726563742065787465726e616c206461746120686173680000000060448201526064016105f3565b6117b8610f60565b836040015110156117db5760405162461bcd60e51b81526004016105f390612ee7565b60005484516040805160c08082018352875182526020888101519083015287830151828401526060808901519083015260a0808901805190940151608084015292510151918101919091526001600160a01b0390921691631e8e1e139190611842906120eb565b6040518363ffffffff1660e01b815260040161185f929190612e7e565b60206040518083038186803b15801561187757600080fd5b505afa15801561188b573d6000803e3d6000fd5b505050506040513d601f19601f820116820180604052508101906118af9190612d95565b6118f35760405162461bcd60e51b815260206004820152601560248201527424b73b30b634b2103232b837b9b4ba10383937b7b360591b60448201526064016105f3565b6002546020808601516040805160608101825260a0880180515182528051850151948201949094529251810151908301526001600160a01b0390921691631e8e1e139161193f9061218a565b6040518363ffffffff1660e01b815260040161195c929190612e7e565b60206040518083038186803b15801561197457600080fd5b505afa158015611988573d6000803e3d6000fd5b505050506040513d601f19601f820116820180604052508101906119ac9190612d95565b6119f35760405162461bcd60e51b815260206004820152601860248201527724b73b30b634b21034b7383aba103937b7ba10383937b7b360411b60448201526064016105f3565b600354604080860151815160a08082018452878101805151835280516060908101516020850152815160809081015196850196909652815190920151918301919091525160c00151928101929092526001600160a01b0390921691631e8e1e1391611a5d9061221f565b6040518363ffffffff1660e01b8152600401611a7a929190612e7e565b60206040518083038186803b158015611a9257600080fd5b505afa158015611aa6573d6000803e3d6000fd5b505050506040513d601f19601f82011682018060405250810190611aca9190612d95565b611b125760405162461bcd60e51b815260206004820152601960248201527824b73b30b634b21037baba383aba103937b7ba10383937b7b360391b60448201526064016105f3565b60a08301516020908101516000908152600590915260409020805460ff19166001179055611b4161161861084b565b7fbd4a5ca11c6f082fd6d00dc9d1dced6ab22490039bc36154bfa748bf2bf743558360a0015160a001518460a001516020015185608001516000015160016006546116a59190612fd3565b6001600160a01b038216611bec5760405162461bcd60e51b815260206004820152602160248201527f45524332303a206275726e2066726f6d20746865207a65726f206164647265736044820152607360f81b60648201526084016105f3565b6001600160a01b0382166000908152606e602052604090205481811015611c605760405162461bcd60e51b815260206004820152602260248201527f45524332303a206275726e20616d6f756e7420657863656564732062616c616e604482015261636560f01b60648201526084016105f3565b6001600160a01b0383166000908152606e60205260408120838303905560708054849290611c8f908490612fd3565b90915550506040518281526000906001600160a01b038516907fddf252ad1be2c89b69c2b068fc378daa952ba7f163c4a11628f55a4df523b3ef9060200160405180910390a3611732565b6001600160a01b038316611d3e5760405162461bcd60e51b815260206004820152602560248201527f45524332303a207472616e736665722066726f6d20746865207a65726f206164604482015264647265737360d81b60648201526084016105f3565b6001600160a01b038216611da05760405162461bcd60e51b815260206004820152602360248201527f45524332303a207472616e7366657220746f20746865207a65726f206164647260448201526265737360e81b60648201526084016105f3565b6001600160a01b0383166000908152606e602052604090205481811015611e185760405162461bcd60e51b815260206004820152602660248201527f45524332303a207472616e7366657220616d6f756e7420657863656564732062604482015265616c616e636560d01b60648201526084016105f3565b6001600160a01b038085166000908152606e6020526040808220858503905591851681529081208054849290611e4f908490612fbb565b92505081905550826001600160a01b0316846001600160a01b03167fddf252ad1be2c89b69c2b068fc378daa952ba7f163c4a11628f55a4df523b3ef84604051611e9b91815260200190565b60405180910390a3610845565b6001600160a01b038216611efe5760405162461bcd60e51b815260206004820152601f60248201527f45524332303a206d696e7420746f20746865207a65726f20616464726573730060448201526064016105f3565b8060706000828254611f109190612fbb565b90915550506001600160a01b0382166000908152606e602052604081208054839290611f3d908490612fbb565b90915550506040518181526001600160a01b038316906000907fddf252ad1be2c89b69c2b068fc378daa952ba7f163c4a11628f55a4df523b3ef9060200160405180910390a3610b36565b6040516001600160a01b03808516602483015283166044820152606481018290526108459085906323b872dd60e01b906084016116fb565b60208084015160009081526005909152604090205460ff161561201e5760405162461bcd60e51b81526020600482015260166024820152754f75746461746564206163636f756e7420737461746560501b60448201526064016105f3565b61202661084b565b8351146120965761203f83600001518460800151610df7565b6120825760405162461bcd60e51b8152602060048201526014602482015273125b9d985b1a59081858d8dbdd5b9d081c9bdbdd60621b60448201526064016105f3565b61209182828560a001516123cd565b611732565b6006548360800151146117325760405162461bcd60e51b815260206004820152601e60248201527f496e636f7272656374206163636f756e7420696e7365727420696e646578000060448201526064016105f3565b60408051600680825260e08201909252606091600091906020820160c080368337019050509050600660005b818110156121815784816006811061213f57634e487b7160e01b600052603260045260246000fd5b602002015183828151811061216457634e487b7160e01b600052603260045260246000fd5b60209081029190910101528061217981613051565b915050612117565b50909392505050565b6040805160038082526080820190925260609160009190602082018480368337019050509050600360005b81811015612181578481600381106121dd57634e487b7160e01b600052603260045260246000fd5b602002015183828151811061220257634e487b7160e01b600052603260045260246000fd5b60209081029190910101528061221781613051565b9150506121b5565b60408051600580825260c08201909252606091600091906020820160a080368337019050509050600560005b818110156121815784816005811061227357634e487b7160e01b600052603260045260246000fd5b602002015183828151811061229857634e487b7160e01b600052603260045260246000fd5b6020908102919091010152806122ad81613051565b91505061224b565b80600760646006600081546122c990613051565b91829055506122d8919061306c565b606481106122f657634e487b7160e01b600052603260045260246000fd5b015550565b6000612350826040518060400160405280602081526020017f5361666545524332303a206c6f772d6c6576656c2063616c6c206661696c6564815250856001600160a01b03166126239092919063ffffffff16565b805190915015611732578080602001905181019061236e9190612d95565b6117325760405162461bcd60e51b815260206004820152602a60248201527f5361666545524332303a204552433230206f7065726174696f6e20646964206e6044820152691bdd081cdd58d8d9595960b21b60648201526084016105f3565b600083511161241e5760405162461bcd60e51b815260206004820152601c60248201527f4f75746461746564206163636f756e74206d65726b6c6520726f6f740000000060448201526064016105f3565b61242661084b565b8251146124755760405162461bcd60e51b815260206004820181905260248201527f4f75746461746564207472656520757064617465206d65726b6c6520726f6f7460448201526064016105f3565b808260400151146124c85760405162461bcd60e51b815260206004820152601d60248201527f496e636f727265637420636f6d6d69746d656e7420696e73657274656400000060448201526064016105f3565b60065482606001511461251d5760405162461bcd60e51b815260206004820152601e60248201527f496e636f7272656374206163636f756e7420696e7365727420696e646578000060448201526064016105f3565b6004546040805160808101825284518152602080860151908201528482015191810191909152606080850151908201526001600160a01b0390911690631e8e1e1390859061256a9061263a565b6040518363ffffffff1660e01b8152600401612587929190612e7e565b60206040518083038186803b15801561259f57600080fd5b505afa1580156125b3573d6000803e3d6000fd5b505050506040513d601f19601f820116820180604052508101906125d79190612d95565b6117325760405162461bcd60e51b815260206004820152601960248201527f496e76616c69642074726565207570646174652070726f6f660000000000000060448201526064016105f3565b606061263284846000856126d0565b949350505050565b60408051600480825260a082019092526060916000919060208201608080368337019050509050600460005b818110156121815784816004811061268e57634e487b7160e01b600052603260045260246000fd5b60200201518382815181106126b357634e487b7160e01b600052603260045260246000fd5b6020908102919091010152806126c881613051565b915050612666565b6060824710156127315760405162461bcd60e51b815260206004820152602660248201527f416464726573733a20696e73756666696369656e742062616c616e636520666f6044820152651c8818d85b1b60d21b60648201526084016105f3565b843b61277f5760405162461bcd60e51b815260206004820152601d60248201527f416464726573733a2063616c6c20746f206e6f6e2d636f6e747261637400000060448201526064016105f3565b600080866001600160a01b0316858760405161279b9190612e32565b60006040518083038185875af1925050503d80600081146127d8576040519150601f19603f3d011682016040523d82523d6000602084013e6127dd565b606091505b50915091506127ed8282866127f8565b979650505050505050565b60608315612807575081610928565b8251156128175782518084602001fd5b8160405162461bcd60e51b81526004016105f39190612ed4565b80356001600160a01b0381168114610d2557600080fd5b600082601f830112612858578081fd5b6128626060612f8a565b8083835b60038110156128915761287c878335880161289c565b84526020938401939190910190600101612866565b509095945050505050565b600082601f8301126128ac578081fd5b813567ffffffffffffffff8111156128c6576128c66130a2565b6128d9601f8201601f1916602001612f8a565b8181528460208386010111156128ed578283fd5b816020850160208301379081016020019190915292915050565b600060e08284031215612918578081fd5b61292260e0612f8a565b9050813581526020820135602082015260408201356040820152606082013560608201526080820135608082015260a082013560a082015260c082013560c082015292915050565b6000610180828403121561297c578081fd5b61298660c0612f8a565b905081358152602082013560208201526040820135604082015260608201356060820152608082013567ffffffffffffffff808211156129c557600080fd5b90830190602082860312156129d957600080fd5b6129e36020612f8a565b8235828111156129f257600080fd5b6129fe8782860161289c565b825250608084015250612a1690508360a08401612907565b60a082015292915050565b600060808284031215612a32578081fd5b612a3c6080612f8a565b90508135815260208201356020820152604082013560408201526060820135606082015292915050565b60006101808284031215612a78578081fd5b612a8260c0612f8a565b905081358152602082013560208201526040820135604082015260608201356060820152608082013567ffffffffffffffff80821115612ac157600080fd5b9083019060808286031215612ad557600080fd5b612adf6080612f8a565b82358152612aef60208401612831565b6020820152612b0060408401612831565b6040820152606083013582811115612b1757600080fd5b612b238782860161289c565b606083015250608084015250612a1690508360a08401612907565b600060208284031215612b4f578081fd5b61092882612831565b60008060408385031215612b6a578081fd5b612b7383612831565b9150612b8160208401612831565b90509250929050565b600080600060608486031215612b9e578081fd5b612ba784612831565b9250612bb560208501612831565b9150604084013590509250925092565b60008060408385031215612bd7578182fd5b612be083612831565b946020939093013593505050565b60008060408385031215612c00578182fd5b823567ffffffffffffffff80821115612c17578384fd5b612c2386838701612848565b93506020850135915080821115612c38578283fd5b50612c458582860161296a565b9150509250929050565b60008060008060e08587031215612c64578182fd5b843567ffffffffffffffff80821115612c7b578384fd5b612c8788838901612848565b95506020870135915080821115612c9c578384fd5b612ca88883890161296a565b94506040870135915080821115612cbd578384fd5b50612cca8782880161289c565b925050612cda8660608701612a21565b905092959194509250565b60008060408385031215612cf7578182fd5b823567ffffffffffffffff80821115612d0e578384fd5b612d1a86838701612848565b93506020850135915080821115612d2f578283fd5b50612c4585828601612a66565b60008060008060e08587031215612d51578182fd5b843567ffffffffffffffff80821115612d68578384fd5b612d7488838901612848565b95506020870135915080821115612d89578384fd5b612ca888838901612a66565b600060208284031215612da6578081fd5b81518015158114610928578182fd5b600060208284031215612dc6578081fd5b5035919050565b60008060408385031215612ddf578182fd5b50508035926020909101359150565b600060208284031215612dff578081fd5b5051919050565b60008151808452612e1e816020860160208601612fea565b601f01601f19169290920160200192915050565b60008251612e44818460208701612fea565b9190910192915050565b600085825284602083015260806040830152612e6d6080830185612e06565b905082606083015295945050505050565b600060408252612e916040830185612e06565b828103602084810191909152845180835285820192820190845b81811015612ec757845183529383019391830191600101612eab565b5090979650505050505050565b6000602082526109286020830184612e06565b60208082526021908201527f556e6465726c79696e672070657220756e6974206973206f76657273746174656040820152601960fa1b606082015260800190565b60006020825282516020808401526126326040840182612e06565b60006020825282516020830152602083015160018060a01b0380821660408501528060408601511660608501525050606083015160808084015261263260a0840182612e06565b604051601f8201601f1916810167ffffffffffffffff81118282101715612fb357612fb36130a2565b604052919050565b60008219821115612fce57612fce61308c565b500190565b600082821015612fe557612fe561308c565b500390565b60005b83811015613005578181015183820152602001612fed565b838111156108455750506000910152565b600181811c9082168061302a57607f821691505b6020821081141561304b57634e487b7160e01b600052602260045260246000fd5b50919050565b60006000198214156130655761306561308c565b5060010190565b60008261308757634e487b7160e01b81526012600452602481fd5b500690565b634e487b7160e01b600052601160045260246000fd5b634e487b7160e01b600052604160045260246000fdfea26469706673582212209eb64126165ce167bfecb8979760df8c6b21a3f620903490b1e693c51b1d3d2c64736f6c63430008030033",
  "immutableReferences": {},
  "source": "// SPDX-License-Identifier: MIT\n\npragma solidity ^0.8.0;\n\nimport \"@openzeppelin/contracts/token/ERC20/utils/SafeERC20.sol\";\nimport \"@openzeppelin/contracts/token/ERC20/IERC20.sol\";\nimport \"@openzeppelin/contracts/token/ERC20/ERC20.sol\";\nimport \"@openzeppelin/contracts/utils/math/SafeMath.sol\";\n\nimport \"./PoofLendable.sol\";\nimport \"./../interfaces/IVerifier.sol\";\nimport \"./../interfaces/IWERC20.sol\";\n\ncontract PoofMintableLendable is PoofLendable, ERC20 {\n  using SafeERC20 for IERC20;\n  using SafeMath for uint256;\n\n  constructor(\n    string memory _tokenName,\n    string memory _tokenSymbol,\n    IWERC20 _debtToken,\n    IVerifier[5] memory _verifiers,\n    bytes32 _accountRoot\n  ) ERC20(_tokenName, _tokenSymbol) PoofLendable(_debtToken, _verifiers, _accountRoot) {}\n\n  function burn(bytes[3] memory _proofs, DepositArgs memory _args) external {\n    burn(_proofs, _args, new bytes(0), TreeUpdateArgs(0, 0, 0, 0));\n  }\n\n  function burn(\n    bytes[3] memory _proofs,\n    DepositArgs memory _args,\n    bytes memory _treeUpdateProof,\n    TreeUpdateArgs memory _treeUpdateArgs\n  ) public {\n    beforeDeposit(_proofs, _args, _treeUpdateProof, _treeUpdateArgs);\n    require(_args.amount == 0, \"Cannot use amount for burning\");\n    _burn(msg.sender, _args.debt);\n  }\n\n  function mint(bytes[3] memory _proofs, WithdrawArgs memory _args) external {\n    mint(_proofs, _args, new bytes(0), TreeUpdateArgs(0, 0, 0, 0));\n  }\n\n  function mint(\n    bytes[3] memory _proofs,\n    WithdrawArgs memory _args,\n    bytes memory _treeUpdateProof,\n    TreeUpdateArgs memory _treeUpdateArgs\n  ) public {\n    beforeWithdraw(_proofs, _args, _treeUpdateProof, _treeUpdateArgs);\n    require(_args.amount == _args.extData.fee, \"Amount can only be used for fee\");\n    uint256 underlyingFeeAmount = debtToken.debtToUnderlying(_args.extData.fee);\n    debtToken.unwrap(_args.amount);\n\n    if (_args.debt > 0) {\n      _mint(_args.extData.recipient, _args.debt);\n    }\n    if (underlyingFeeAmount > 0) {\n      underlyingToken.safeTransfer(_args.extData.relayer, underlyingFeeAmount);\n    }\n  }\n\n  function underlyingBalanceOf(address owner) external view returns (uint256) {\n    uint256 balanceOf = balanceOf(owner);\n    return debtToken.debtToUnderlying(balanceOf);\n  }\n}\n\n",
  "sourcePath": "/home/home/poof-v2-core/contracts/erc20/PoofMintableLendable.sol",
  "compiler": {
    "name": "solc",
    "version": "0.8.3+commit.8d00100c.Emscripten.clang"
  },
  "schemaVersion": "3.4.3",
  "updatedAt": "2021-10-19T17:15:26.982Z",
  "networkType": "ethereum",
  "devdoc": {
    "kind": "dev",
    "methods": {
      "allowance(address,address)": {
        "details": "See {IERC20-allowance}."
      },
      "approve(address,uint256)": {
        "details": "See {IERC20-approve}. Requirements: - `spender` cannot be the zero address."
      },
      "balanceOf(address)": {
        "details": "See {IERC20-balanceOf}."
      },
      "decimals()": {
        "details": "Returns the number of decimals used to get its user representation. For example, if `decimals` equals `2`, a balance of `505` tokens should be displayed to a user as `5.05` (`505 / 10 ** 2`). Tokens usually opt for a value of 18, imitating the relationship between Ether and Wei. This is the value {ERC20} uses, unless this function is overridden; NOTE: This information is only used for _display_ purposes: it in no way affects any of the arithmetic of the contract, including {IERC20-balanceOf} and {IERC20-transfer}."
      },
      "decreaseAllowance(address,uint256)": {
        "details": "Atomically decreases the allowance granted to `spender` by the caller. This is an alternative to {approve} that can be used as a mitigation for problems described in {IERC20-approve}. Emits an {Approval} event indicating the updated allowance. Requirements: - `spender` cannot be the zero address. - `spender` must have allowance for the caller of at least `subtractedValue`."
      },
      "getLastAccountRoot()": {
        "details": "Returns the last root"
      },
      "increaseAllowance(address,uint256)": {
        "details": "Atomically increases the allowance granted to `spender` by the caller. This is an alternative to {approve} that can be used as a mitigation for problems described in {IERC20-approve}. Emits an {Approval} event indicating the updated allowance. Requirements: - `spender` cannot be the zero address."
      },
      "isKnownAccountRoot(bytes32,uint256)": {
        "details": "Whether the root is present in the root history"
      },
      "name()": {
        "details": "Returns the name of the token."
      },
      "symbol()": {
        "details": "Returns the symbol of the token, usually a shorter version of the name."
      },
      "totalSupply()": {
        "details": "See {IERC20-totalSupply}."
      },
      "transfer(address,uint256)": {
        "details": "See {IERC20-transfer}. Requirements: - `recipient` cannot be the zero address. - the caller must have a balance of at least `amount`."
      },
      "transferFrom(address,address,uint256)": {
        "details": "See {IERC20-transferFrom}. Emits an {Approval} event indicating the updated allowance. This is not required by the EIP. See the note at the beginning of {ERC20}. Requirements: - `sender` and `recipient` cannot be the zero address. - `sender` must have a balance of at least `amount`. - the caller must have allowance for ``sender``'s tokens of at least `amount`."
      }
    },
    "version": 1
  },
  "userdoc": {
    "kind": "user",
    "methods": {},
    "version": 1
  }
}