{
  "contractName": "PoofMintableLendable",
  "abi": [
    {
      "inputs": [
        {
          "internalType": "string",
          "name": "_tokenName",
          "type": "string"
        },
        {
          "internalType": "string",
          "name": "_tokenSymbol",
          "type": "string"
        },
        {
          "internalType": "contract IWERC20",
          "name": "_debtToken",
          "type": "address"
        },
        {
          "internalType": "contract IVerifier[3]",
          "name": "_verifiers",
          "type": "address[3]"
        },
        {
          "internalType": "bytes32",
          "name": "_accountRoot",
          "type": "bytes32"
        }
      ],
      "stateMutability": "nonpayable",
      "type": "constructor"
    },
    {
      "anonymous": false,
      "inputs": [
        {
          "indexed": true,
          "internalType": "address",
          "name": "owner",
          "type": "address"
        },
        {
          "indexed": true,
          "internalType": "address",
          "name": "spender",
          "type": "address"
        },
        {
          "indexed": false,
          "internalType": "uint256",
          "name": "value",
          "type": "uint256"
        }
      ],
      "name": "Approval",
      "type": "event"
    },
    {
      "anonymous": false,
      "inputs": [
        {
          "indexed": false,
          "internalType": "bytes32",
          "name": "commitment",
          "type": "bytes32"
        },
        {
          "indexed": false,
          "internalType": "bytes32",
          "name": "nullifier",
          "type": "bytes32"
        },
        {
          "indexed": false,
          "internalType": "bytes",
          "name": "encryptedAccount",
          "type": "bytes"
        },
        {
          "indexed": false,
          "internalType": "uint256",
          "name": "index",
          "type": "uint256"
        }
      ],
      "name": "NewAccount",
      "type": "event"
    },
    {
      "anonymous": false,
      "inputs": [
        {
          "indexed": true,
          "internalType": "address",
          "name": "from",
          "type": "address"
        },
        {
          "indexed": true,
          "internalType": "address",
          "name": "to",
          "type": "address"
        },
        {
          "indexed": false,
          "internalType": "uint256",
          "name": "value",
          "type": "uint256"
        }
      ],
      "name": "Transfer",
      "type": "event"
    },
    {
      "inputs": [],
      "name": "ACCOUNT_ROOT_HISTORY_SIZE",
      "outputs": [
        {
          "internalType": "uint256",
          "name": "",
          "type": "uint256"
        }
      ],
      "stateMutability": "view",
      "type": "function"
    },
    {
      "inputs": [],
      "name": "accountCount",
      "outputs": [
        {
          "internalType": "uint256",
          "name": "",
          "type": "uint256"
        }
      ],
      "stateMutability": "view",
      "type": "function"
    },
    {
      "inputs": [
        {
          "internalType": "bytes32",
          "name": "",
          "type": "bytes32"
        }
      ],
      "name": "accountNullifiers",
      "outputs": [
        {
          "internalType": "bool",
          "name": "",
          "type": "bool"
        }
      ],
      "stateMutability": "view",
      "type": "function"
    },
    {
      "inputs": [
        {
          "internalType": "uint256",
          "name": "",
          "type": "uint256"
        }
      ],
      "name": "accountRoots",
      "outputs": [
        {
          "internalType": "bytes32",
          "name": "",
          "type": "bytes32"
        }
      ],
      "stateMutability": "view",
      "type": "function"
    },
    {
      "inputs": [
        {
          "internalType": "address",
          "name": "owner",
          "type": "address"
        },
        {
          "internalType": "address",
          "name": "spender",
          "type": "address"
        }
      ],
      "name": "allowance",
      "outputs": [
        {
          "internalType": "uint256",
          "name": "",
          "type": "uint256"
        }
      ],
      "stateMutability": "view",
      "type": "function"
    },
    {
      "inputs": [
        {
          "internalType": "address",
          "name": "spender",
          "type": "address"
        },
        {
          "internalType": "uint256",
          "name": "amount",
          "type": "uint256"
        }
      ],
      "name": "approve",
      "outputs": [
        {
          "internalType": "bool",
          "name": "",
          "type": "bool"
        }
      ],
      "stateMutability": "nonpayable",
      "type": "function"
    },
    {
      "inputs": [
        {
          "internalType": "address",
          "name": "account",
          "type": "address"
        }
      ],
      "name": "balanceOf",
      "outputs": [
        {
          "internalType": "uint256",
          "name": "",
          "type": "uint256"
        }
      ],
      "stateMutability": "view",
      "type": "function"
    },
    {
      "inputs": [],
      "name": "debtToken",
      "outputs": [
        {
          "internalType": "contract IWERC20",
          "name": "",
          "type": "address"
        }
      ],
      "stateMutability": "view",
      "type": "function"
    },
    {
      "inputs": [],
      "name": "decimals",
      "outputs": [
        {
          "internalType": "uint8",
          "name": "",
          "type": "uint8"
        }
      ],
      "stateMutability": "view",
      "type": "function"
    },
    {
      "inputs": [
        {
          "internalType": "address",
          "name": "spender",
          "type": "address"
        },
        {
          "internalType": "uint256",
          "name": "subtractedValue",
          "type": "uint256"
        }
      ],
      "name": "decreaseAllowance",
      "outputs": [
        {
          "internalType": "bool",
          "name": "",
          "type": "bool"
        }
      ],
      "stateMutability": "nonpayable",
      "type": "function"
    },
    {
      "inputs": [
        {
          "internalType": "bytes",
          "name": "_proof",
          "type": "bytes"
        },
        {
          "components": [
            {
              "internalType": "uint256",
              "name": "amount",
              "type": "uint256"
            },
            {
              "internalType": "bytes32",
              "name": "extDataHash",
              "type": "bytes32"
            },
            {
              "components": [
                {
                  "internalType": "bytes",
                  "name": "encryptedAccount",
                  "type": "bytes"
                },
                {
                  "internalType": "enum Poof.Operation",
                  "name": "operation",
                  "type": "uint8"
                }
              ],
              "internalType": "struct Poof.DepositExtData",
              "name": "extData",
              "type": "tuple"
            },
            {
              "components": [
                {
                  "internalType": "bytes32",
                  "name": "inputRoot",
                  "type": "bytes32"
                },
                {
                  "internalType": "bytes32",
                  "name": "inputNullifierHash",
                  "type": "bytes32"
                },
                {
                  "internalType": "bytes32",
                  "name": "outputRoot",
                  "type": "bytes32"
                },
                {
                  "internalType": "uint256",
                  "name": "outputPathIndices",
                  "type": "uint256"
                },
                {
                  "internalType": "bytes32",
                  "name": "outputCommitment",
                  "type": "bytes32"
                }
              ],
              "internalType": "struct Poof.AccountUpdate",
              "name": "account",
              "type": "tuple"
            }
          ],
          "internalType": "struct Poof.DepositArgs",
          "name": "_args",
          "type": "tuple"
        },
        {
          "internalType": "bytes",
          "name": "_treeUpdateProof",
          "type": "bytes"
        },
        {
          "components": [
            {
              "internalType": "bytes32",
              "name": "oldRoot",
              "type": "bytes32"
            },
            {
              "internalType": "bytes32",
              "name": "newRoot",
              "type": "bytes32"
            },
            {
              "internalType": "bytes32",
              "name": "leaf",
              "type": "bytes32"
            },
            {
              "internalType": "uint256",
              "name": "pathIndices",
              "type": "uint256"
            }
          ],
          "internalType": "struct Poof.TreeUpdateArgs",
          "name": "_treeUpdateArgs",
          "type": "tuple"
        }
      ],
      "name": "deposit",
      "outputs": [],
      "stateMutability": "nonpayable",
      "type": "function"
    },
    {
      "inputs": [
        {
          "internalType": "bytes",
          "name": "_proof",
          "type": "bytes"
        },
        {
          "components": [
            {
              "internalType": "uint256",
              "name": "amount",
              "type": "uint256"
            },
            {
              "internalType": "bytes32",
              "name": "extDataHash",
              "type": "bytes32"
            },
            {
              "components": [
                {
                  "internalType": "bytes",
                  "name": "encryptedAccount",
                  "type": "bytes"
                },
                {
                  "internalType": "enum Poof.Operation",
                  "name": "operation",
                  "type": "uint8"
                }
              ],
              "internalType": "struct Poof.DepositExtData",
              "name": "extData",
              "type": "tuple"
            },
            {
              "components": [
                {
                  "internalType": "bytes32",
                  "name": "inputRoot",
                  "type": "bytes32"
                },
                {
                  "internalType": "bytes32",
                  "name": "inputNullifierHash",
                  "type": "bytes32"
                },
                {
                  "internalType": "bytes32",
                  "name": "outputRoot",
                  "type": "bytes32"
                },
                {
                  "internalType": "uint256",
                  "name": "outputPathIndices",
                  "type": "uint256"
                },
                {
                  "internalType": "bytes32",
                  "name": "outputCommitment",
                  "type": "bytes32"
                }
              ],
              "internalType": "struct Poof.AccountUpdate",
              "name": "account",
              "type": "tuple"
            }
          ],
          "internalType": "struct Poof.DepositArgs",
          "name": "_args",
          "type": "tuple"
        }
      ],
      "name": "deposit",
      "outputs": [],
      "stateMutability": "nonpayable",
      "type": "function"
    },
    {
      "inputs": [],
      "name": "depositVerifier",
      "outputs": [
        {
          "internalType": "contract IVerifier",
          "name": "",
          "type": "address"
        }
      ],
      "stateMutability": "view",
      "type": "function"
    },
    {
      "inputs": [],
      "name": "getLastAccountRoot",
      "outputs": [
        {
          "internalType": "bytes32",
          "name": "",
          "type": "bytes32"
        }
      ],
      "stateMutability": "view",
      "type": "function"
    },
    {
      "inputs": [
        {
          "internalType": "address",
          "name": "spender",
          "type": "address"
        },
        {
          "internalType": "uint256",
          "name": "addedValue",
          "type": "uint256"
        }
      ],
      "name": "increaseAllowance",
      "outputs": [
        {
          "internalType": "bool",
          "name": "",
          "type": "bool"
        }
      ],
      "stateMutability": "nonpayable",
      "type": "function"
    },
    {
      "inputs": [
        {
          "internalType": "bytes32",
          "name": "_root",
          "type": "bytes32"
        },
        {
          "internalType": "uint256",
          "name": "_index",
          "type": "uint256"
        }
      ],
      "name": "isKnownAccountRoot",
      "outputs": [
        {
          "internalType": "bool",
          "name": "",
          "type": "bool"
        }
      ],
      "stateMutability": "view",
      "type": "function"
    },
    {
      "inputs": [],
      "name": "name",
      "outputs": [
        {
          "internalType": "string",
          "name": "",
          "type": "string"
        }
      ],
      "stateMutability": "view",
      "type": "function"
    },
    {
      "inputs": [],
      "name": "symbol",
      "outputs": [
        {
          "internalType": "string",
          "name": "",
          "type": "string"
        }
      ],
      "stateMutability": "view",
      "type": "function"
    },
    {
      "inputs": [],
      "name": "token",
      "outputs": [
        {
          "internalType": "contract IERC20",
          "name": "",
          "type": "address"
        }
      ],
      "stateMutability": "view",
      "type": "function"
    },
    {
      "inputs": [],
      "name": "totalSupply",
      "outputs": [
        {
          "internalType": "uint256",
          "name": "",
          "type": "uint256"
        }
      ],
      "stateMutability": "view",
      "type": "function"
    },
    {
      "inputs": [
        {
          "internalType": "bytes",
          "name": "_fromProof",
          "type": "bytes"
        },
        {
          "components": [
            {
              "internalType": "uint256",
              "name": "amount",
              "type": "uint256"
            },
            {
              "internalType": "bytes32",
              "name": "extDataHash",
              "type": "bytes32"
            },
            {
              "components": [
                {
                  "internalType": "uint256",
                  "name": "fee",
                  "type": "uint256"
                },
                {
                  "internalType": "address",
                  "name": "relayer",
                  "type": "address"
                },
                {
                  "internalType": "bytes32",
                  "name": "depositProofHash",
                  "type": "bytes32"
                },
                {
                  "internalType": "bytes",
                  "name": "encryptedAccount",
                  "type": "bytes"
                }
              ],
              "internalType": "struct Poof.TransferExtData",
              "name": "extData",
              "type": "tuple"
            },
            {
              "components": [
                {
                  "internalType": "bytes32",
                  "name": "inputRoot",
                  "type": "bytes32"
                },
                {
                  "internalType": "bytes32",
                  "name": "inputNullifierHash",
                  "type": "bytes32"
                },
                {
                  "internalType": "bytes32",
                  "name": "outputRoot",
                  "type": "bytes32"
                },
                {
                  "internalType": "uint256",
                  "name": "outputPathIndices",
                  "type": "uint256"
                },
                {
                  "internalType": "bytes32",
                  "name": "outputCommitment",
                  "type": "bytes32"
                }
              ],
              "internalType": "struct Poof.AccountUpdate",
              "name": "account",
              "type": "tuple"
            }
          ],
          "internalType": "struct Poof.TransferArgs",
          "name": "_fromArgs",
          "type": "tuple"
        },
        {
          "internalType": "bytes",
          "name": "_toProof",
          "type": "bytes"
        },
        {
          "components": [
            {
              "internalType": "uint256",
              "name": "amount",
              "type": "uint256"
            },
            {
              "internalType": "bytes32",
              "name": "extDataHash",
              "type": "bytes32"
            },
            {
              "components": [
                {
                  "internalType": "bytes",
                  "name": "encryptedAccount",
                  "type": "bytes"
                },
                {
                  "internalType": "enum Poof.Operation",
                  "name": "operation",
                  "type": "uint8"
                }
              ],
              "internalType": "struct Poof.DepositExtData",
              "name": "extData",
              "type": "tuple"
            },
            {
              "components": [
                {
                  "internalType": "bytes32",
                  "name": "inputRoot",
                  "type": "bytes32"
                },
                {
                  "internalType": "bytes32",
                  "name": "inputNullifierHash",
                  "type": "bytes32"
                },
                {
                  "internalType": "bytes32",
                  "name": "outputRoot",
                  "type": "bytes32"
                },
                {
                  "internalType": "uint256",
                  "name": "outputPathIndices",
                  "type": "uint256"
                },
                {
                  "internalType": "bytes32",
                  "name": "outputCommitment",
                  "type": "bytes32"
                }
              ],
              "internalType": "struct Poof.AccountUpdate",
              "name": "account",
              "type": "tuple"
            }
          ],
          "internalType": "struct Poof.DepositArgs",
          "name": "_toArgs",
          "type": "tuple"
        },
        {
          "internalType": "bytes",
          "name": "_fromTreeUpdateProof",
          "type": "bytes"
        },
        {
          "components": [
            {
              "internalType": "bytes32",
              "name": "oldRoot",
              "type": "bytes32"
            },
            {
              "internalType": "bytes32",
              "name": "newRoot",
              "type": "bytes32"
            },
            {
              "internalType": "bytes32",
              "name": "leaf",
              "type": "bytes32"
            },
            {
              "internalType": "uint256",
              "name": "pathIndices",
              "type": "uint256"
            }
          ],
          "internalType": "struct Poof.TreeUpdateArgs",
          "name": "_fromTreeUpdateArgs",
          "type": "tuple"
        },
        {
          "internalType": "bytes",
          "name": "_toTreeUpdateProof",
          "type": "bytes"
        },
        {
          "components": [
            {
              "internalType": "bytes32",
              "name": "oldRoot",
              "type": "bytes32"
            },
            {
              "internalType": "bytes32",
              "name": "newRoot",
              "type": "bytes32"
            },
            {
              "internalType": "bytes32",
              "name": "leaf",
              "type": "bytes32"
            },
            {
              "internalType": "uint256",
              "name": "pathIndices",
              "type": "uint256"
            }
          ],
          "internalType": "struct Poof.TreeUpdateArgs",
          "name": "_toTreeUpdateArgs",
          "type": "tuple"
        }
      ],
      "name": "transfer",
      "outputs": [],
      "stateMutability": "nonpayable",
      "type": "function"
    },
    {
      "inputs": [
        {
          "internalType": "address",
          "name": "recipient",
          "type": "address"
        },
        {
          "internalType": "uint256",
          "name": "amount",
          "type": "uint256"
        }
      ],
      "name": "transfer",
      "outputs": [
        {
          "internalType": "bool",
          "name": "",
          "type": "bool"
        }
      ],
      "stateMutability": "nonpayable",
      "type": "function"
    },
    {
      "inputs": [
        {
          "internalType": "address",
          "name": "sender",
          "type": "address"
        },
        {
          "internalType": "address",
          "name": "recipient",
          "type": "address"
        },
        {
          "internalType": "uint256",
          "name": "amount",
          "type": "uint256"
        }
      ],
      "name": "transferFrom",
      "outputs": [
        {
          "internalType": "bool",
          "name": "",
          "type": "bool"
        }
      ],
      "stateMutability": "nonpayable",
      "type": "function"
    },
    {
      "inputs": [],
      "name": "treeUpdateVerifier",
      "outputs": [
        {
          "internalType": "contract IVerifier",
          "name": "",
          "type": "address"
        }
      ],
      "stateMutability": "view",
      "type": "function"
    },
    {
      "inputs": [],
      "name": "underlyingToken",
      "outputs": [
        {
          "internalType": "contract IERC20",
          "name": "",
          "type": "address"
        }
      ],
      "stateMutability": "view",
      "type": "function"
    },
    {
      "inputs": [
        {
          "internalType": "bytes",
          "name": "_proof",
          "type": "bytes"
        },
        {
          "components": [
            {
              "internalType": "uint256",
              "name": "amount",
              "type": "uint256"
            },
            {
              "internalType": "bytes32",
              "name": "extDataHash",
              "type": "bytes32"
            },
            {
              "components": [
                {
                  "internalType": "uint256",
                  "name": "fee",
                  "type": "uint256"
                },
                {
                  "internalType": "address",
                  "name": "recipient",
                  "type": "address"
                },
                {
                  "internalType": "address",
                  "name": "relayer",
                  "type": "address"
                },
                {
                  "internalType": "bytes",
                  "name": "encryptedAccount",
                  "type": "bytes"
                },
                {
                  "internalType": "enum Poof.Operation",
                  "name": "operation",
                  "type": "uint8"
                }
              ],
              "internalType": "struct Poof.WithdrawExtData",
              "name": "extData",
              "type": "tuple"
            },
            {
              "components": [
                {
                  "internalType": "bytes32",
                  "name": "inputRoot",
                  "type": "bytes32"
                },
                {
                  "internalType": "bytes32",
                  "name": "inputNullifierHash",
                  "type": "bytes32"
                },
                {
                  "internalType": "bytes32",
                  "name": "outputRoot",
                  "type": "bytes32"
                },
                {
                  "internalType": "uint256",
                  "name": "outputPathIndices",
                  "type": "uint256"
                },
                {
                  "internalType": "bytes32",
                  "name": "outputCommitment",
                  "type": "bytes32"
                }
              ],
              "internalType": "struct Poof.AccountUpdate",
              "name": "account",
              "type": "tuple"
            }
          ],
          "internalType": "struct Poof.WithdrawArgs",
          "name": "_args",
          "type": "tuple"
        }
      ],
      "name": "withdraw",
      "outputs": [],
      "stateMutability": "nonpayable",
      "type": "function"
    },
    {
      "inputs": [
        {
          "internalType": "bytes",
          "name": "_proof",
          "type": "bytes"
        },
        {
          "components": [
            {
              "internalType": "uint256",
              "name": "amount",
              "type": "uint256"
            },
            {
              "internalType": "bytes32",
              "name": "extDataHash",
              "type": "bytes32"
            },
            {
              "components": [
                {
                  "internalType": "uint256",
                  "name": "fee",
                  "type": "uint256"
                },
                {
                  "internalType": "address",
                  "name": "recipient",
                  "type": "address"
                },
                {
                  "internalType": "address",
                  "name": "relayer",
                  "type": "address"
                },
                {
                  "internalType": "bytes",
                  "name": "encryptedAccount",
                  "type": "bytes"
                },
                {
                  "internalType": "enum Poof.Operation",
                  "name": "operation",
                  "type": "uint8"
                }
              ],
              "internalType": "struct Poof.WithdrawExtData",
              "name": "extData",
              "type": "tuple"
            },
            {
              "components": [
                {
                  "internalType": "bytes32",
                  "name": "inputRoot",
                  "type": "bytes32"
                },
                {
                  "internalType": "bytes32",
                  "name": "inputNullifierHash",
                  "type": "bytes32"
                },
                {
                  "internalType": "bytes32",
                  "name": "outputRoot",
                  "type": "bytes32"
                },
                {
                  "internalType": "uint256",
                  "name": "outputPathIndices",
                  "type": "uint256"
                },
                {
                  "internalType": "bytes32",
                  "name": "outputCommitment",
                  "type": "bytes32"
                }
              ],
              "internalType": "struct Poof.AccountUpdate",
              "name": "account",
              "type": "tuple"
            }
          ],
          "internalType": "struct Poof.WithdrawArgs",
          "name": "_args",
          "type": "tuple"
        },
        {
          "internalType": "bytes",
          "name": "_treeUpdateProof",
          "type": "bytes"
        },
        {
          "components": [
            {
              "internalType": "bytes32",
              "name": "oldRoot",
              "type": "bytes32"
            },
            {
              "internalType": "bytes32",
              "name": "newRoot",
              "type": "bytes32"
            },
            {
              "internalType": "bytes32",
              "name": "leaf",
              "type": "bytes32"
            },
            {
              "internalType": "uint256",
              "name": "pathIndices",
              "type": "uint256"
            }
          ],
          "internalType": "struct Poof.TreeUpdateArgs",
          "name": "_treeUpdateArgs",
          "type": "tuple"
        }
      ],
      "name": "withdraw",
      "outputs": [],
      "stateMutability": "nonpayable",
      "type": "function"
    },
    {
      "inputs": [],
      "name": "withdrawVerifier",
      "outputs": [
        {
          "internalType": "contract IVerifier",
          "name": "",
          "type": "address"
        }
      ],
      "stateMutability": "view",
      "type": "function"
    },
    {
      "inputs": [
        {
          "internalType": "bytes",
          "name": "_proof",
          "type": "bytes"
        },
        {
          "components": [
            {
              "internalType": "uint256",
              "name": "amount",
              "type": "uint256"
            },
            {
              "internalType": "bytes32",
              "name": "extDataHash",
              "type": "bytes32"
            },
            {
              "components": [
                {
                  "internalType": "bytes",
                  "name": "encryptedAccount",
                  "type": "bytes"
                },
                {
                  "internalType": "enum Poof.Operation",
                  "name": "operation",
                  "type": "uint8"
                }
              ],
              "internalType": "struct Poof.DepositExtData",
              "name": "extData",
              "type": "tuple"
            },
            {
              "components": [
                {
                  "internalType": "bytes32",
                  "name": "inputRoot",
                  "type": "bytes32"
                },
                {
                  "internalType": "bytes32",
                  "name": "inputNullifierHash",
                  "type": "bytes32"
                },
                {
                  "internalType": "bytes32",
                  "name": "outputRoot",
                  "type": "bytes32"
                },
                {
                  "internalType": "uint256",
                  "name": "outputPathIndices",
                  "type": "uint256"
                },
                {
                  "internalType": "bytes32",
                  "name": "outputCommitment",
                  "type": "bytes32"
                }
              ],
              "internalType": "struct Poof.AccountUpdate",
              "name": "account",
              "type": "tuple"
            }
          ],
          "internalType": "struct Poof.DepositArgs",
          "name": "_args",
          "type": "tuple"
        }
      ],
      "name": "burn",
      "outputs": [],
      "stateMutability": "nonpayable",
      "type": "function"
    },
    {
      "inputs": [
        {
          "internalType": "bytes",
          "name": "_proof",
          "type": "bytes"
        },
        {
          "components": [
            {
              "internalType": "uint256",
              "name": "amount",
              "type": "uint256"
            },
            {
              "internalType": "bytes32",
              "name": "extDataHash",
              "type": "bytes32"
            },
            {
              "components": [
                {
                  "internalType": "bytes",
                  "name": "encryptedAccount",
                  "type": "bytes"
                },
                {
                  "internalType": "enum Poof.Operation",
                  "name": "operation",
                  "type": "uint8"
                }
              ],
              "internalType": "struct Poof.DepositExtData",
              "name": "extData",
              "type": "tuple"
            },
            {
              "components": [
                {
                  "internalType": "bytes32",
                  "name": "inputRoot",
                  "type": "bytes32"
                },
                {
                  "internalType": "bytes32",
                  "name": "inputNullifierHash",
                  "type": "bytes32"
                },
                {
                  "internalType": "bytes32",
                  "name": "outputRoot",
                  "type": "bytes32"
                },
                {
                  "internalType": "uint256",
                  "name": "outputPathIndices",
                  "type": "uint256"
                },
                {
                  "internalType": "bytes32",
                  "name": "outputCommitment",
                  "type": "bytes32"
                }
              ],
              "internalType": "struct Poof.AccountUpdate",
              "name": "account",
              "type": "tuple"
            }
          ],
          "internalType": "struct Poof.DepositArgs",
          "name": "_args",
          "type": "tuple"
        },
        {
          "internalType": "bytes",
          "name": "_treeUpdateProof",
          "type": "bytes"
        },
        {
          "components": [
            {
              "internalType": "bytes32",
              "name": "oldRoot",
              "type": "bytes32"
            },
            {
              "internalType": "bytes32",
              "name": "newRoot",
              "type": "bytes32"
            },
            {
              "internalType": "bytes32",
              "name": "leaf",
              "type": "bytes32"
            },
            {
              "internalType": "uint256",
              "name": "pathIndices",
              "type": "uint256"
            }
          ],
          "internalType": "struct Poof.TreeUpdateArgs",
          "name": "_treeUpdateArgs",
          "type": "tuple"
        }
      ],
      "name": "burn",
      "outputs": [],
      "stateMutability": "nonpayable",
      "type": "function"
    },
    {
      "inputs": [
        {
          "internalType": "bytes",
          "name": "_proof",
          "type": "bytes"
        },
        {
          "components": [
            {
              "internalType": "uint256",
              "name": "amount",
              "type": "uint256"
            },
            {
              "internalType": "bytes32",
              "name": "extDataHash",
              "type": "bytes32"
            },
            {
              "components": [
                {
                  "internalType": "uint256",
                  "name": "fee",
                  "type": "uint256"
                },
                {
                  "internalType": "address",
                  "name": "recipient",
                  "type": "address"
                },
                {
                  "internalType": "address",
                  "name": "relayer",
                  "type": "address"
                },
                {
                  "internalType": "bytes",
                  "name": "encryptedAccount",
                  "type": "bytes"
                },
                {
                  "internalType": "enum Poof.Operation",
                  "name": "operation",
                  "type": "uint8"
                }
              ],
              "internalType": "struct Poof.WithdrawExtData",
              "name": "extData",
              "type": "tuple"
            },
            {
              "components": [
                {
                  "internalType": "bytes32",
                  "name": "inputRoot",
                  "type": "bytes32"
                },
                {
                  "internalType": "bytes32",
                  "name": "inputNullifierHash",
                  "type": "bytes32"
                },
                {
                  "internalType": "bytes32",
                  "name": "outputRoot",
                  "type": "bytes32"
                },
                {
                  "internalType": "uint256",
                  "name": "outputPathIndices",
                  "type": "uint256"
                },
                {
                  "internalType": "bytes32",
                  "name": "outputCommitment",
                  "type": "bytes32"
                }
              ],
              "internalType": "struct Poof.AccountUpdate",
              "name": "account",
              "type": "tuple"
            }
          ],
          "internalType": "struct Poof.WithdrawArgs",
          "name": "_args",
          "type": "tuple"
        },
        {
          "internalType": "bytes",
          "name": "_treeUpdateProof",
          "type": "bytes"
        },
        {
          "components": [
            {
              "internalType": "bytes32",
              "name": "oldRoot",
              "type": "bytes32"
            },
            {
              "internalType": "bytes32",
              "name": "newRoot",
              "type": "bytes32"
            },
            {
              "internalType": "bytes32",
              "name": "leaf",
              "type": "bytes32"
            },
            {
              "internalType": "uint256",
              "name": "pathIndices",
              "type": "uint256"
            }
          ],
          "internalType": "struct Poof.TreeUpdateArgs",
          "name": "_treeUpdateArgs",
          "type": "tuple"
        }
      ],
      "name": "mint",
      "outputs": [],
      "stateMutability": "nonpayable",
      "type": "function"
    },
    {
      "inputs": [
        {
          "internalType": "bytes",
          "name": "_proof",
          "type": "bytes"
        },
        {
          "components": [
            {
              "internalType": "uint256",
              "name": "amount",
              "type": "uint256"
            },
            {
              "internalType": "bytes32",
              "name": "extDataHash",
              "type": "bytes32"
            },
            {
              "components": [
                {
                  "internalType": "uint256",
                  "name": "fee",
                  "type": "uint256"
                },
                {
                  "internalType": "address",
                  "name": "recipient",
                  "type": "address"
                },
                {
                  "internalType": "address",
                  "name": "relayer",
                  "type": "address"
                },
                {
                  "internalType": "bytes",
                  "name": "encryptedAccount",
                  "type": "bytes"
                },
                {
                  "internalType": "enum Poof.Operation",
                  "name": "operation",
                  "type": "uint8"
                }
              ],
              "internalType": "struct Poof.WithdrawExtData",
              "name": "extData",
              "type": "tuple"
            },
            {
              "components": [
                {
                  "internalType": "bytes32",
                  "name": "inputRoot",
                  "type": "bytes32"
                },
                {
                  "internalType": "bytes32",
                  "name": "inputNullifierHash",
                  "type": "bytes32"
                },
                {
                  "internalType": "bytes32",
                  "name": "outputRoot",
                  "type": "bytes32"
                },
                {
                  "internalType": "uint256",
                  "name": "outputPathIndices",
                  "type": "uint256"
                },
                {
                  "internalType": "bytes32",
                  "name": "outputCommitment",
                  "type": "bytes32"
                }
              ],
              "internalType": "struct Poof.AccountUpdate",
              "name": "account",
              "type": "tuple"
            }
          ],
          "internalType": "struct Poof.WithdrawArgs",
          "name": "_args",
          "type": "tuple"
        }
      ],
      "name": "mint",
      "outputs": [],
      "stateMutability": "nonpayable",
      "type": "function"
    },
    {
      "inputs": [
        {
          "internalType": "address",
          "name": "owner",
          "type": "address"
        }
      ],
      "name": "underlyingBalanceOf",
      "outputs": [
        {
          "internalType": "uint256",
          "name": "",
          "type": "uint256"
        }
      ],
      "stateMutability": "view",
      "type": "function"
    }
  ],
  "bytecode": "0x60806040523480156200001157600080fd5b5060405162003734380380620037348339810160408190526200003491620002d5565b600080546001600160a01b03199081166001600160a01b0386811691821790935560068490558451600180548416918516919091179055602080860151600280548516918616919091179055604080870151600380549095169516949094179092558251632495a59960e01b81529251889388938893889388939192632495a5999260048181019391829003018186803b158015620000d257600080fd5b505afa158015620000e7573d6000803e3d6000fd5b505050506040513d601f19601f820116820180604052508101906200010d9190620002af565b606a80546001600160a01b039283166001600160a01b031991821617909155606b805495909216941693909317909255505081516200015490606f90602085019062000178565b5080516200016a90607090602084019062000178565b50505050505050506200045d565b8280546200018690620003f1565b90600052602060002090601f016020900481019282620001aa5760008555620001f5565b82601f10620001c557805160ff1916838001178555620001f5565b82800160010185558215620001f5579182015b82811115620001f5578251825591602001919060010190620001d8565b506200020392915062000207565b5090565b5b8082111562000203576000815560010162000208565b600082601f8301126200022f578081fd5b81516001600160401b038111156200024b576200024b6200042e565b602062000261601f8301601f19168201620003be565b828152858284870101111562000275578384fd5b835b838110156200029457858101830151828201840152820162000277565b83811115620002a557848385840101525b5095945050505050565b600060208284031215620002c1578081fd5b8151620002ce8162000444565b9392505050565b600080600080600060e08688031215620002ed578081fd5b85516001600160401b038082111562000304578283fd5b6200031289838a016200021e565b965060209150818801518181111562000329578384fd5b620003378a828b016200021e565b9650505060408701516200034b8162000444565b9350607f870188136200035c578182fd5b620003686060620003be565b806060890160c08a018b8111156200037e578586fd5b855b6003811015620003aa578251620003978162000444565b8552938501939185019160010162000380565b5051989b979a509598509695945050505050565b604051601f8201601f191681016001600160401b0381118282101715620003e957620003e96200042e565b604052919050565b600181811c908216806200040657607f821691505b602082108114156200042857634e487b7160e01b600052602260045260246000fd5b50919050565b634e487b7160e01b600052604160045260246000fd5b6001600160a01b03811681146200045a57600080fd5b50565b6132c7806200046d6000396000f3fe608060405234801561001057600080fd5b50600436106101fb5760003560e01c80637cf32a9f1161011a578063a9059cbb116100ad578063e4af29fc1161007c578063e4af29fc1461045d578063e4b6894014610466578063f5dd24ea14610479578063f8d898981461048c578063fc0c546a1461049f576101fb565b8063a9059cbb146103eb578063c6a4b053146103fe578063d3cc306514610411578063dd62ed3e14610424576101fb565b806395a1199e116100e957806395a1199e146103aa57806395d89b41146103bd57806397f098d7146103c5578063a457c2d7146103d8576101fb565b80637cf32a9f1461035e57806383cc2f5714610371578063864eb16414610384578063935a8b8414610397576101fb565b8063313ce5671161019257806342a660b01161016157806342a660b01461030d5780634a20de581461033057806352ef8e961461034357806370a082311461034b576101fb565b8063313ce567146102c5578063336028eb146102d45780633459d699146102e757806339509351146102fa576101fb565b80632236505c116101ce5780632236505c1461025f57806323b872dd146102745780632495a5991461028757806326120c88146102b2576101fb565b806306fdde0314610200578063095ea7b31461021e5780631311b6e81461024157806318160ddd14610257575b600080fd5b6102086104b2565b6040516102159190612fb7565b60405180910390f35b61023161022c366004612bc7565b610544565b6040519015158152602001610215565b61024961055a565b604051908152602001610215565b606e54610249565b61027261026d366004612e55565b610592565b005b610231610282366004612b8c565b61061b565b606a5461029a906001600160a01b031681565b6040516001600160a01b039091168152602001610215565b60015461029a906001600160a01b031681565b60405160128152602001610215565b6102726102e2366004612eac565b6106c7565b6102726102f5366004612c49565b6107c3565b610231610308366004612bc7565b61083f565b61023161031b366004612c10565b60046020526000908152604090205460ff1681565b60035461029a906001600160a01b031681565b610249606481565b610249610359366004612b40565b61087b565b61027261036c366004612d40565b61089a565b61027261037f366004612caa565b610f1f565b60025461029a906001600160a01b031681565b6102496103a5366004612b40565b610f3f565b6102726103b8366004612caa565b610fc8565b61020861115d565b6102316103d3366004612c28565b61116c565b6102316103e6366004612bc7565b6111ae565b6102316103f9366004612bc7565b611247565b61024961040c366004612c10565b611254565b61027261041f366004612eac565b61126b565b610249610432366004612b5a565b6001600160a01b039182166000908152606d6020908152604080832093909416825291909152205490565b61024960055481565b610272610474366004612c49565b6114ae565b610272610487366004612e55565b61152a565b606b5461029a906001600160a01b031681565b60005461029a906001600160a01b031681565b6060606f80546104c1906131ae565b80601f01602080910402602001604051908101604052809291908181526020018280546104ed906131ae565b801561053a5780601f1061050f5761010080835404028352916020019161053a565b820191906000526020600020905b81548152906001019060200180831161051d57829003601f168201915b5050505050905090565b60006105513384846115a6565b50600192915050565b60006006606460055461056d9190613204565b6064811061058b57634e487b7160e01b600052603260045260246000fd5b0154905090565b600181604001516080015160038111156105bc57634e487b7160e01b600052602160045260246000fd5b146105e25760405162461bcd60e51b81526004016105d990613020565b60405180910390fd5b60408051600080825260a08201835260208201818152928201819052606082018190526080820152610617918491849161126b565b5050565b60006106288484846116ca565b6001600160a01b0384166000908152606d60209081526040808320338452909152902054828110156106ad5760405162461bcd60e51b815260206004820152602860248201527f45524332303a207472616e7366657220616d6f756e74206578636565647320616044820152676c6c6f77616e636560c01b60648201526084016105d9565b6106ba85338584036115a6565b60019150505b9392505050565b6106d384848484611898565b60006107038460400151600001516040518060600160405280602181526020016132516021913986519190611b87565b9050801561071d5761071d84604001516020015182611bb3565b604084015151156107bc57600054604085810151808201519051915163a9059cbb60e01b81526001600160a01b03918216600482015260248101929092529091169063a9059cbb90604401602060405180830381600087803b15801561078257600080fd5b505af1158015610796573d6000803e3d6000fd5b505050506040513d601f19601f820116820180604052508101906107ba9190612bf0565b505b5050505050565b600381604001516020015160038111156107ed57634e487b7160e01b600052602160045260246000fd5b1461080a5760405162461bcd60e51b81526004016105d990613020565b60408051600080825260a082018352602082018181529282018190526060820181905260808201526106179184918491610f1f565b336000818152606d602090815260408083206001600160a01b03871684529091528120549091610551918590610876908690613153565b6115a6565b6001600160a01b0381166000908152606c60205260409020545b919050565b845160408801515188516108ae919061316b565b146108f05760405162461bcd60e51b81526020600482015260126024820152712a3930b739b332b91034b9903ab73330b4b960711b60448201526064016105d9565b610927866040516020016109049190612fb7565b60405160208183030381529060405280516020909101206001600160f81b031690565b876040015160400151146109965760405162461bcd60e51b815260206004820152603060248201527f2766726f6d272070726f6f66206861736820646f6573206e6f74206d6174636860448201526f0404ee8de4e40e0e4dedecc40d0c2e6d60831b60648201526084016105d9565b600085604001516020015160038111156109c057634e487b7160e01b600052602160045260246000fd5b146109dd5760405162461bcd60e51b81526004016105d990613020565b6109ec85606001518383611c93565b610a048560400151604051602001610904919061304d565b856020015114610a605760405162461bcd60e51b815260206004820152602160248201527f496e636f72726563742027746f272065787465726e616c2064617461206861736044820152600d60fb1b60648201526084016105d9565b6001546040805160e08101825287518152602080890151818301526060808a01805151848601528051909201518184015281519093015160808084019190915281519093015160a0830152519091015160c08201526001600160a01b0390911690631e8e1e13908890610ad290611dc3565b6040518363ffffffff1660e01b8152600401610aef929190612fca565b60206040518083038186803b158015610b0757600080fd5b505afa158015610b1b573d6000803e3d6000fd5b505050506040513d601f19601f82011682018060405250810190610b3f9190612bf0565b610b835760405162461bcd60e51b815260206004820152601560248201527424b73b30b634b2103232b837b9b4ba10383937b7b360591b60448201526064016105d9565b60608501516020908101516000908152600490915260409020805460ff19166001179055610bd6610bb261055a565b60608701515114610bc7578160200151610bd1565b8560600151604001515b611e60565b6000805160206132728339815191528560600151608001518660600151602001518760400151600001516001600554610c0f919061316b565b604051610c1f9493929190612f87565b60405180910390a1610c3687606001518585611c93565b610c4e87604001516040516020016109049190613085565b876020015114610cac5760405162461bcd60e51b815260206004820152602360248201527f496e636f7272656374202766726f6d272065787465726e616c206461746120686044820152620c2e6d60eb1b60648201526084016105d9565b6002546040805160e081018252895181526020808b0151818301526060808c01805151848601528051909201518184015281519093015160808084019190915281519093015160a0830152519091015160c08201526001600160a01b0390911690631e8e1e13908a90610d1e90611dc3565b6040518363ffffffff1660e01b8152600401610d3b929190612fca565b60206040518083038186803b158015610d5357600080fd5b505afa158015610d67573d6000803e3d6000fd5b505050506040513d601f19601f82011682018060405250810190610d8b9190612bf0565b610dd25760405162461bcd60e51b815260206004820152601860248201527724b73b30b634b2103bb4ba34323930bbb0b610383937b7b360411b60448201526064016105d9565b60408701515115610e725760005460408881015160208101519051915163a9059cbb60e01b81526001600160a01b03918216600482015260248101929092529091169063a9059cbb90604401602060405180830381600087803b158015610e3857600080fd5b505af1158015610e4c573d6000803e3d6000fd5b505050506040513d601f19601f82011682018060405250810190610e709190612bf0565b505b60608701516020908101516000908152600490915260409020805460ff19166001179055610ec4610ea161055a565b60608901515114610eb6578360200151610bd1565b876060015160400151611e60565b6000805160206132728339815191528760600151608001518860600151602001518960400151606001516001600554610efd919061316b565b604051610f0d9493929190612f87565b60405180910390a15050505050505050565b610f2b84848484611ea6565b610f393384600001516120aa565b50505050565b600080610f4b8361087b565b606b546040516301189a9960e21b8152600481018390529192506001600160a01b0316906304626a649060240160206040518083038186803b158015610f9057600080fd5b505afa158015610fa4573d6000803e3d6000fd5b505050506040513d601f19601f820116820180604052508101906106c09190612f05565b610fd484848484611ea6565b606b5483516040516301189a9960e21b815260048101919091526000916001600160a01b0316906304626a649060240160206040518083038186803b15801561101c57600080fd5b505afa158015611030573d6000803e3d6000fd5b505050506040513d601f19601f820116820180604052508101906110549190612f05565b606a5490915061106f906001600160a01b03163330846121f8565b606a54606b5460405163095ea7b360e01b81526001600160a01b0391821660048201526024810184905291169063095ea7b390604401602060405180830381600087803b1580156110bf57600080fd5b505af11580156110d3573d6000803e3d6000fd5b505050506040513d601f19601f820116820180604052508101906110f79190612bf0565b50606b54604051630ea598cb60e41b8152600481018390526001600160a01b039091169063ea598cb090602401600060405180830381600087803b15801561113e57600080fd5b505af1158015611152573d6000803e3d6000fd5b505050505050505050565b6060607080546104c1906131ae565b600082158015906106c05750826006611186606485613204565b606481106111a457634e487b7160e01b600052603260045260246000fd5b0154149392505050565b336000908152606d602090815260408083206001600160a01b0386168452909152812054828110156112305760405162461bcd60e51b815260206004820152602560248201527f45524332303a2064656372656173656420616c6c6f77616e63652062656c6f77604482015264207a65726f60d81b60648201526084016105d9565b61123d33858584036115a6565b5060019392505050565b60006105513384846116ca565b6006816064811061126457600080fd5b0154905081565b61127784848484611898565b604083015151835110156112d75760405162461bcd60e51b815260206004820152602160248201527f4665652063616e6e6f742062652067726561746572207468616e20616d6f756e6044820152601d60fa1b60648201526084016105d9565b606b5460408401515184516000926001600160a01b0316916304626a64916112fe91612263565b6040518263ffffffff1660e01b815260040161131c91815260200190565b60206040518083038186803b15801561133457600080fd5b505afa158015611348573d6000803e3d6000fd5b505050506040513d601f19601f8201168201806040525081019061136c9190612f05565b606b546040808701515190516301189a9960e21b81529293506000926001600160a01b03909216916304626a64916113aa9160040190815260200190565b60206040518083038186803b1580156113c257600080fd5b505afa1580156113d6573d6000803e3d6000fd5b505050506040513d601f19601f820116820180604052508101906113fa9190612f05565b606b548651604051636f074d1f60e11b815260048101919091529192506001600160a01b03169063de0e9a3e90602401600060405180830381600087803b15801561144457600080fd5b505af1158015611458573d6000803e3d6000fd5b50505050600082111561148757604085015160200151606a54611487916001600160a01b03909116908461226f565b80156107ba576040808601510151606a546107ba916001600160a01b03909116908361226f565b600081604001516020015160038111156114d857634e487b7160e01b600052602160045260246000fd5b146114f55760405162461bcd60e51b81526004016105d990613020565b60408051600080825260a082018352602082018181529282018190526060820181905260808201526106179184918491610fc8565b6002816040015160800151600381111561155457634e487b7160e01b600052602160045260246000fd5b146115715760405162461bcd60e51b81526004016105d990613020565b60408051600080825260a0820183526020820181815292820181905260608201819052608082015261061791849184916106c7565b6001600160a01b0383166116085760405162461bcd60e51b8152602060048201526024808201527f45524332303a20617070726f76652066726f6d20746865207a65726f206164646044820152637265737360e01b60648201526084016105d9565b6001600160a01b0382166116695760405162461bcd60e51b815260206004820152602260248201527f45524332303a20617070726f766520746f20746865207a65726f206164647265604482015261737360f01b60648201526084016105d9565b6001600160a01b038381166000818152606d602090815260408083209487168084529482529182902085905590518481527f8c5be1e5ebec7d5bd14f71427d1e84f3dd0314c0f7b2291e5b200ac8c7c3b925910160405180910390a3505050565b6001600160a01b03831661172e5760405162461bcd60e51b815260206004820152602560248201527f45524332303a207472616e736665722066726f6d20746865207a65726f206164604482015264647265737360d81b60648201526084016105d9565b6001600160a01b0382166117905760405162461bcd60e51b815260206004820152602360248201527f45524332303a207472616e7366657220746f20746865207a65726f206164647260448201526265737360e81b60648201526084016105d9565b6001600160a01b0383166000908152606c6020526040902054818110156118085760405162461bcd60e51b815260206004820152602660248201527f45524332303a207472616e7366657220616d6f756e7420657863656564732062604482015265616c616e636560d01b60648201526084016105d9565b6001600160a01b038085166000908152606c602052604080822085850390559185168152908120805484929061183f908490613153565b92505081905550826001600160a01b0316846001600160a01b03167fddf252ad1be2c89b69c2b068fc378daa952ba7f163c4a11628f55a4df523b3ef8460405161188b91815260200190565b60405180910390a3610f39565b6118a783606001518383611c93565b6118bf836040015160405160200161090491906130c6565b8360200151146119115760405162461bcd60e51b815260206004820152601c60248201527f496e636f72726563742065787465726e616c206461746120686173680000000060448201526064016105d9565b8251600160f81b116119655760405162461bcd60e51b815260206004820152601960248201527f416d6f756e742076616c7565206f7574206f662072616e67650000000000000060448201526064016105d9565b604083015151835110156119bb5760405162461bcd60e51b815260206004820152601c60248201527f416d6f756e742073686f756c64206265203e3d207468616e206665650000000060448201526064016105d9565b6002546040805160e08101825285518152602080870151818301526060808801805151848601528051909201518184015281519093015160808084019190915281519093015160a0830152519091015160c08201526001600160a01b0390911690631e8e1e13908690611a2d90611dc3565b6040518363ffffffff1660e01b8152600401611a4a929190612fca565b60206040518083038186803b158015611a6257600080fd5b505afa158015611a76573d6000803e3d6000fd5b505050506040513d601f19601f82011682018060405250810190611a9a9190612bf0565b611ae15760405162461bcd60e51b815260206004820152601860248201527724b73b30b634b2103bb4ba34323930bbb0b610383937b7b360411b60448201526064016105d9565b611b0f611aec61055a565b60608501515114611b01578160200151610bd1565b836060015160400151611e60565b60608084018051602090810151600090815260048252604090819020805460ff19166001908117909155925160808101519201519087015190930151600554600080516020613272833981519152949293611b699161316b565b604051611b799493929190612f87565b60405180910390a150505050565b60008184841115611bab5760405162461bcd60e51b81526004016105d99190612fb7565b505050900390565b6001600160a01b038216611c095760405162461bcd60e51b815260206004820152601f60248201527f45524332303a206d696e7420746f20746865207a65726f20616464726573730060448201526064016105d9565b80606e6000828254611c1b9190613153565b90915550506001600160a01b0382166000908152606c602052604081208054839290611c48908490613153565b90915550506040518181526001600160a01b038316906000907fddf252ad1be2c89b69c2b068fc378daa952ba7f163c4a11628f55a4df523b3ef9060200160405180910390a3610617565b60208084015160009081526004909152604090205460ff1615611cf15760405162461bcd60e51b81526020600482015260166024820152754f75746461746564206163636f756e7420737461746560501b60448201526064016105d9565b611cf961055a565b835114611d6957611d128360000151846060015161116c565b611d555760405162461bcd60e51b8152602060048201526014602482015273125b9d985b1a59081858d8dbdd5b9d081c9bdbdd60621b60448201526064016105d9565b611d648282856080015161229f565b611dbe565b600554836060015114611dbe5760405162461bcd60e51b815260206004820152601e60248201527f496e636f7272656374206163636f756e7420696e7365727420696e646578000060448201526064016105d9565b505050565b6040805160078082526101008201909252606091600091906020820160e08036833701905050905060005b6007811015611e5957838160078110611e1757634e487b7160e01b600052603260045260246000fd5b6020020151828281518110611e3c57634e487b7160e01b600052603260045260246000fd5b602090810291909101015280611e51816131e9565b915050611dee565b5092915050565b8060066064600560008154611e74906131e9565b9182905550611e839190613204565b60648110611ea157634e487b7160e01b600052603260045260246000fd5b015550565b611eb583606001518383611c93565b611ecd8360400151604051602001610904919061304d565b836020015114611f1f5760405162461bcd60e51b815260206004820152601c60248201527f496e636f72726563742065787465726e616c206461746120686173680000000060448201526064016105d9565b6001546040805160e08101825285518152602080870151818301526060808801805151848601528051909201518184015281519093015160808084019190915281519093015160a0830152519091015160c08201526001600160a01b0390911690631e8e1e13908690611f9190611dc3565b6040518363ffffffff1660e01b8152600401611fae929190612fca565b60206040518083038186803b158015611fc657600080fd5b505afa158015611fda573d6000803e3d6000fd5b505050506040513d601f19601f82011682018060405250810190611ffe9190612bf0565b6120425760405162461bcd60e51b815260206004820152601560248201527424b73b30b634b2103232b837b9b4ba10383937b7b360591b60448201526064016105d9565b60608301516020908101516000908152600490915260409020805460ff19166001179055612071611aec61055a565b6000805160206132728339815191528360600151608001518460600151602001518560400151600001516001600554611b69919061316b565b6001600160a01b03821661210a5760405162461bcd60e51b815260206004820152602160248201527f45524332303a206275726e2066726f6d20746865207a65726f206164647265736044820152607360f81b60648201526084016105d9565b6001600160a01b0382166000908152606c60205260409020548181101561217e5760405162461bcd60e51b815260206004820152602260248201527f45524332303a206275726e20616d6f756e7420657863656564732062616c616e604482015261636560f01b60648201526084016105d9565b6001600160a01b0383166000908152606c602052604081208383039055606e80548492906121ad90849061316b565b90915550506040518281526000906001600160a01b038516907fddf252ad1be2c89b69c2b068fc378daa952ba7f163c4a11628f55a4df523b3ef9060200160405180910390a3611dbe565b6040516001600160a01b0380851660248301528316604482015260648101829052610f399085906323b872dd60e01b906084015b60408051601f198184030181529190526020810180516001600160e01b03166001600160e01b0319909316929092179091526124f5565b60006106c0828461316b565b6040516001600160a01b038316602482015260448101829052611dbe90849063a9059cbb60e01b9060640161222c565b60008351116122f05760405162461bcd60e51b815260206004820152601c60248201527f4f75746461746564206163636f756e74206d65726b6c6520726f6f740000000060448201526064016105d9565b6122f861055a565b8251146123475760405162461bcd60e51b815260206004820181905260248201527f4f75746461746564207472656520757064617465206d65726b6c6520726f6f7460448201526064016105d9565b8082604001511461239a5760405162461bcd60e51b815260206004820152601d60248201527f496e636f727265637420636f6d6d69746d656e7420696e73657274656400000060448201526064016105d9565b6005548260600151146123ef5760405162461bcd60e51b815260206004820152601e60248201527f496e636f7272656374206163636f756e7420696e7365727420696e646578000060448201526064016105d9565b6003546040805160808101825284518152602080860151908201528482015191810191909152606080850151908201526001600160a01b0390911690631e8e1e1390859061243c906125c7565b6040518363ffffffff1660e01b8152600401612459929190612fca565b60206040518083038186803b15801561247157600080fd5b505afa158015612485573d6000803e3d6000fd5b505050506040513d601f19601f820116820180604052508101906124a99190612bf0565b611dbe5760405162461bcd60e51b815260206004820152601960248201527f496e76616c69642074726565207570646174652070726f6f660000000000000060448201526064016105d9565b600061254a826040518060400160405280602081526020017f5361666545524332303a206c6f772d6c6576656c2063616c6c206661696c6564815250856001600160a01b031661265c9092919063ffffffff16565b805190915015611dbe57808060200190518101906125689190612bf0565b611dbe5760405162461bcd60e51b815260206004820152602a60248201527f5361666545524332303a204552433230206f7065726174696f6e20646964206e6044820152691bdd081cdd58d8d9595960b21b60648201526084016105d9565b60408051600480825260a08201909252606091600091906020820160808036833701905050905060005b6004811015611e595783816004811061261a57634e487b7160e01b600052603260045260246000fd5b602002015182828151811061263f57634e487b7160e01b600052603260045260246000fd5b602090810291909101015280612654816131e9565b9150506125f1565b606061266b8484600085612673565b949350505050565b6060824710156126d45760405162461bcd60e51b815260206004820152602660248201527f416464726573733a20696e73756666696369656e742062616c616e636520666f6044820152651c8818d85b1b60d21b60648201526084016105d9565b843b6127225760405162461bcd60e51b815260206004820152601d60248201527f416464726573733a2063616c6c20746f206e6f6e2d636f6e747261637400000060448201526064016105d9565b600080866001600160a01b0316858760405161273e9190612f6b565b60006040518083038185875af1925050503d806000811461277b576040519150601f19603f3d011682016040523d82523d6000602084013e612780565b606091505b509150915061279082828661279b565b979650505050505050565b606083156127aa5750816106c0565b8251156127ba5782518084602001fd5b8160405162461bcd60e51b81526004016105d99190612fb7565b80356001600160a01b038116811461089557600080fd5b600082601f8301126127fb578081fd5b813567ffffffffffffffff8111156128155761281561323a565b612828601f8201601f1916602001613122565b81815284602083860101111561283c578283fd5b816020850160208301379081016020019190915292915050565b80356004811061089557600080fd5b600060a08284031215612876578081fd5b61288060a0613122565b9050813581526020820135602082015260408201356040820152606082013560608201526080820135608082015292915050565b600061010082840312156128c6578081fd5b6128d06080613122565b90508135815260208201356020820152604082013567ffffffffffffffff808211156128fb57600080fd5b908301906040828603121561290f57600080fd5b6129196040613122565b82358281111561292857600080fd5b612934878286016127eb565b82525061294360208401612856565b602082015260408401525061295d90508360608401612865565b606082015292915050565b6000610100828403121561297a578081fd5b6129846080613122565b90508135815260208201356020820152604082013567ffffffffffffffff808211156129af57600080fd5b90830190608082860312156129c357600080fd5b6129cd6080613122565b823581526129dd602084016127d4565b6020820152604083013560408201526060830135828111156129fe57600080fd5b612a0a878286016127eb565b60608301525080604085015250505061295d8360608401612865565b600060808284031215612a37578081fd5b612a416080613122565b90508135815260208201356020820152604082013560408201526060820135606082015292915050565b60006101008284031215612a7d578081fd5b612a876080613122565b90508135815260208201356020820152604082013567ffffffffffffffff80821115612ab257600080fd5b9083019060a08286031215612ac657600080fd5b612ad060a0613122565b82358152612ae0602084016127d4565b6020820152612af1604084016127d4565b6040820152606083013582811115612b0857600080fd5b612b14878286016127eb565b606083015250612b2660808401612856565b608082015260408401525061295d90508360608401612865565b600060208284031215612b51578081fd5b6106c0826127d4565b60008060408385031215612b6c578081fd5b612b75836127d4565b9150612b83602084016127d4565b90509250929050565b600080600060608486031215612ba0578081fd5b612ba9846127d4565b9250612bb7602085016127d4565b9150604084013590509250925092565b60008060408385031215612bd9578182fd5b612be2836127d4565b946020939093013593505050565b600060208284031215612c01578081fd5b815180151581146106c0578182fd5b600060208284031215612c21578081fd5b5035919050565b60008060408385031215612c3a578182fd5b50508035926020909101359150565b60008060408385031215612c5b578182fd5b823567ffffffffffffffff80821115612c72578384fd5b612c7e868387016127eb565b93506020850135915080821115612c93578283fd5b50612ca0858286016128b4565b9150509250929050565b60008060008060e08587031215612cbf578182fd5b843567ffffffffffffffff80821115612cd6578384fd5b612ce2888389016127eb565b95506020870135915080821115612cf7578384fd5b612d03888389016128b4565b94506040870135915080821115612d18578384fd5b50612d25878288016127eb565b925050612d358660608701612a26565b905092959194509250565b6000806000806000806000806101c0898b031215612d5c578586fd5b883567ffffffffffffffff80821115612d73578788fd5b612d7f8c838d016127eb565b995060208b0135915080821115612d94578788fd5b612da08c838d01612968565b985060408b0135915080821115612db5578788fd5b612dc18c838d016127eb565b975060608b0135915080821115612dd6578586fd5b612de28c838d016128b4565b965060808b0135915080821115612df7578586fd5b612e038c838d016127eb565b9550612e128c60a08d01612a26565b94506101208b0135915080821115612e28578384fd5b50612e358b828c016127eb565b925050612e468a6101408b01612a26565b90509295985092959890939650565b60008060408385031215612e67578182fd5b823567ffffffffffffffff80821115612e7e578384fd5b612e8a868387016127eb565b93506020850135915080821115612e9f578283fd5b50612ca085828601612a6b565b60008060008060e08587031215612ec1578182fd5b843567ffffffffffffffff80821115612ed8578384fd5b612ee4888389016127eb565b95506020870135915080821115612ef9578384fd5b612d0388838901612a6b565b600060208284031215612f16578081fd5b5051919050565b60008151808452612f35816020860160208601613182565b601f01601f19169290920160200192915050565b60048110612f6757634e487b7160e01b600052602160045260246000fd5b9052565b60008251612f7d818460208701613182565b9190910192915050565b600085825284602083015260806040830152612fa66080830185612f1d565b905082606083015295945050505050565b6000602082526106c06020830184612f1d565b600060408252612fdd6040830185612f1d565b828103602084810191909152845180835285820192820190845b8181101561301357845183529383019391830191600101612ff7565b5090979650505050505050565b60208082526013908201527224b731b7b93932b1ba1037b832b930ba34b7b760691b604082015260600190565b6000602082528251604060208401526130696060840182612f1d565b9050602084015161307d6040850182612f49565b509392505050565b6000602082528251602083015260018060a01b03602084015116604083015260408301516060830152606083015160808084015261266b60a0840182612f1d565b60006020825282516020830152602083015160018060a01b0380821660408501528060408601511660608501525050606083015160a0608084015261310e60c0840182612f1d565b9050608084015161307d60a0850182612f49565b604051601f8201601f1916810167ffffffffffffffff8111828210171561314b5761314b61323a565b604052919050565b6000821982111561316657613166613224565b500190565b60008282101561317d5761317d613224565b500390565b60005b8381101561319d578181015183820152602001613185565b83811115610f395750506000910152565b600181811c908216806131c257607f821691505b602082108114156131e357634e487b7160e01b600052602260045260246000fd5b50919050565b60006000198214156131fd576131fd613224565b5060010190565b60008261321f57634e487b7160e01b81526012600452602481fd5b500690565b634e487b7160e01b600052601160045260246000fd5b634e487b7160e01b600052604160045260246000fdfe416d6f756e742073686f756c642062652067726561746572207468616e20666565bd4a5ca11c6f082fd6d00dc9d1dced6ab22490039bc36154bfa748bf2bf74355a264697066735822122018381aec475e9584f1a56a192a37fd0e96e95d38017d3c8d7f96e4f04279256864736f6c63430008030033",
  "immutableReferences": {},
  "source": "// SPDX-License-Identifier: MIT\n\npragma solidity ^0.8.0;\n\nimport \"@openzeppelin/contracts/token/ERC20/utils/SafeERC20.sol\";\nimport \"@openzeppelin/contracts/token/ERC20/IERC20.sol\";\nimport \"@openzeppelin/contracts/token/ERC20/ERC20.sol\";\nimport \"@openzeppelin/contracts/utils/math/SafeMath.sol\";\n\nimport \"./PoofLendable.sol\";\nimport \"./interfaces/IVerifier.sol\";\nimport \"./interfaces/IWERC20.sol\";\n\ncontract PoofMintableLendable is PoofLendable, ERC20 {\n  using SafeMath for uint256;\n  using SafeERC20 for IERC20;\n\n  constructor(\n    string memory _tokenName,\n    string memory _tokenSymbol,\n    IWERC20 _debtToken,\n    IVerifier[3] memory _verifiers,\n    bytes32 _accountRoot\n  ) ERC20(_tokenName, _tokenSymbol) PoofLendable(_debtToken, _verifiers, _accountRoot) {}\n\n  function burn(bytes memory _proof, DepositArgs memory _args) public {\n    // Check operation here to ensure that the proof is not used for depositing\n    require(_args.extData.operation == Operation.BURN, \"Incorrect operation\");\n    burn(_proof, _args, new bytes(0), TreeUpdateArgs(0, 0, 0, 0));\n  }\n\n  function burn(\n    bytes memory _proof,\n    DepositArgs memory _args,\n    bytes memory _treeUpdateProof,\n    TreeUpdateArgs memory _treeUpdateArgs\n  ) public {\n    beforeDeposit(_proof, _args, _treeUpdateProof, _treeUpdateArgs);\n    _burn(msg.sender, _args.amount);\n  }\n\n  function mint(bytes memory _proof, WithdrawArgs memory _args) public {\n    // Check operation here to ensure that the proof is not used for withdrawing\n    require(_args.extData.operation == Operation.MINT, \"Incorrect operation\");\n    mint(_proof, _args, new bytes(0), TreeUpdateArgs(0, 0, 0, 0));\n  }\n\n  function mint(\n    bytes memory _proof,\n    WithdrawArgs memory _args,\n    bytes memory _treeUpdateProof,\n    TreeUpdateArgs memory _treeUpdateArgs\n  ) public {\n    beforeWithdraw(_proof, _args, _treeUpdateProof, _treeUpdateArgs);\n    uint256 amount = _args.amount.sub(_args.extData.fee, \"Amount should be greater than fee\");\n    if (amount > 0) {\n      _mint(_args.extData.recipient, amount);\n    }\n    if (_args.extData.fee > 0) {\n      token.transfer(_args.extData.relayer, _args.extData.fee);\n    }\n  }\n\n  function underlyingBalanceOf(address owner) public view returns (uint256) {\n    uint256 balanceOf = balanceOf(owner);\n    return debtToken.debtToUnderlying(balanceOf);\n  }\n}\n\n",
  "sourcePath": "/home/home/poof-v2-core/contracts/PoofMintableLendable.sol",
  "compiler": {
    "name": "solc",
    "version": "0.8.3+commit.8d00100c.Emscripten.clang"
  },
  "schemaVersion": "3.4.3",
  "updatedAt": "2021-09-18T15:01:51.507Z",
  "devdoc": {
    "kind": "dev",
    "methods": {
      "allowance(address,address)": {
        "details": "See {IERC20-allowance}."
      },
      "approve(address,uint256)": {
        "details": "See {IERC20-approve}. Requirements: - `spender` cannot be the zero address."
      },
      "balanceOf(address)": {
        "details": "See {IERC20-balanceOf}."
      },
      "decimals()": {
        "details": "Returns the number of decimals used to get its user representation. For example, if `decimals` equals `2`, a balance of `505` tokens should be displayed to a user as `5.05` (`505 / 10 ** 2`). Tokens usually opt for a value of 18, imitating the relationship between Ether and Wei. This is the value {ERC20} uses, unless this function is overridden; NOTE: This information is only used for _display_ purposes: it in no way affects any of the arithmetic of the contract, including {IERC20-balanceOf} and {IERC20-transfer}."
      },
      "decreaseAllowance(address,uint256)": {
        "details": "Atomically decreases the allowance granted to `spender` by the caller. This is an alternative to {approve} that can be used as a mitigation for problems described in {IERC20-approve}. Emits an {Approval} event indicating the updated allowance. Requirements: - `spender` cannot be the zero address. - `spender` must have allowance for the caller of at least `subtractedValue`."
      },
      "getLastAccountRoot()": {
        "details": "Returns the last root"
      },
      "increaseAllowance(address,uint256)": {
        "details": "Atomically increases the allowance granted to `spender` by the caller. This is an alternative to {approve} that can be used as a mitigation for problems described in {IERC20-approve}. Emits an {Approval} event indicating the updated allowance. Requirements: - `spender` cannot be the zero address."
      },
      "isKnownAccountRoot(bytes32,uint256)": {
        "details": "Whether the root is present in the root history"
      },
      "name()": {
        "details": "Returns the name of the token."
      },
      "symbol()": {
        "details": "Returns the symbol of the token, usually a shorter version of the name."
      },
      "totalSupply()": {
        "details": "See {IERC20-totalSupply}."
      },
      "transfer(address,uint256)": {
        "details": "See {IERC20-transfer}. Requirements: - `recipient` cannot be the zero address. - the caller must have a balance of at least `amount`."
      },
      "transferFrom(address,address,uint256)": {
        "details": "See {IERC20-transferFrom}. Emits an {Approval} event indicating the updated allowance. This is not required by the EIP. See the note at the beginning of {ERC20}. Requirements: - `sender` and `recipient` cannot be the zero address. - `sender` must have a balance of at least `amount`. - the caller must have allowance for ``sender``'s tokens of at least `amount`."
      }
    },
    "version": 1
  },
  "userdoc": {
    "kind": "user",
    "methods": {},
    "version": 1
  }
}