{
  "contractName": "Poof",
  "abi": [
    {
      "inputs": [
        {
          "internalType": "contract IERC20",
          "name": "_token",
          "type": "address"
        },
        {
          "internalType": "address[3]",
          "name": "_verifiers",
          "type": "address[3]"
        },
        {
          "internalType": "bytes32",
          "name": "_accountRoot",
          "type": "bytes32"
        }
      ],
      "stateMutability": "nonpayable",
      "type": "constructor"
    },
    {
      "anonymous": false,
      "inputs": [
        {
          "indexed": false,
          "internalType": "bytes32",
          "name": "commitment",
          "type": "bytes32"
        },
        {
          "indexed": false,
          "internalType": "bytes32",
          "name": "nullifier",
          "type": "bytes32"
        },
        {
          "indexed": false,
          "internalType": "bytes",
          "name": "encryptedAccount",
          "type": "bytes"
        },
        {
          "indexed": false,
          "internalType": "uint256",
          "name": "index",
          "type": "uint256"
        }
      ],
      "name": "NewAccount",
      "type": "event"
    },
    {
      "anonymous": false,
      "inputs": [
        {
          "indexed": true,
          "internalType": "address",
          "name": "previousOwner",
          "type": "address"
        },
        {
          "indexed": true,
          "internalType": "address",
          "name": "newOwner",
          "type": "address"
        }
      ],
      "name": "OwnershipTransferred",
      "type": "event"
    },
    {
      "anonymous": false,
      "inputs": [
        {
          "indexed": false,
          "internalType": "address",
          "name": "deposit",
          "type": "address"
        },
        {
          "indexed": false,
          "internalType": "address",
          "name": "withdraw",
          "type": "address"
        },
        {
          "indexed": false,
          "internalType": "address",
          "name": "treeUpdate",
          "type": "address"
        }
      ],
      "name": "VerifiersUpdated",
      "type": "event"
    },
    {
      "inputs": [],
      "name": "ACCOUNT_ROOT_HISTORY_SIZE",
      "outputs": [
        {
          "internalType": "uint256",
          "name": "",
          "type": "uint256"
        }
      ],
      "stateMutability": "view",
      "type": "function",
      "constant": true
    },
    {
      "inputs": [],
      "name": "accountCount",
      "outputs": [
        {
          "internalType": "uint256",
          "name": "",
          "type": "uint256"
        }
      ],
      "stateMutability": "view",
      "type": "function",
      "constant": true
    },
    {
      "inputs": [
        {
          "internalType": "bytes32",
          "name": "",
          "type": "bytes32"
        }
      ],
      "name": "accountNullifiers",
      "outputs": [
        {
          "internalType": "bool",
          "name": "",
          "type": "bool"
        }
      ],
      "stateMutability": "view",
      "type": "function",
      "constant": true
    },
    {
      "inputs": [
        {
          "internalType": "uint256",
          "name": "",
          "type": "uint256"
        }
      ],
      "name": "accountRoots",
      "outputs": [
        {
          "internalType": "bytes32",
          "name": "",
          "type": "bytes32"
        }
      ],
      "stateMutability": "view",
      "type": "function",
      "constant": true
    },
    {
      "inputs": [],
      "name": "depositVerifier",
      "outputs": [
        {
          "internalType": "contract IVerifier",
          "name": "",
          "type": "address"
        }
      ],
      "stateMutability": "view",
      "type": "function",
      "constant": true
    },
    {
      "inputs": [],
      "name": "owner",
      "outputs": [
        {
          "internalType": "address",
          "name": "",
          "type": "address"
        }
      ],
      "stateMutability": "view",
      "type": "function",
      "constant": true
    },
    {
      "inputs": [],
      "name": "renounceOwnership",
      "outputs": [],
      "stateMutability": "nonpayable",
      "type": "function"
    },
    {
      "inputs": [],
      "name": "token",
      "outputs": [
        {
          "internalType": "contract IERC20",
          "name": "",
          "type": "address"
        }
      ],
      "stateMutability": "view",
      "type": "function",
      "constant": true
    },
    {
      "inputs": [
        {
          "internalType": "address",
          "name": "newOwner",
          "type": "address"
        }
      ],
      "name": "transferOwnership",
      "outputs": [],
      "stateMutability": "nonpayable",
      "type": "function"
    },
    {
      "inputs": [],
      "name": "treeUpdateVerifier",
      "outputs": [
        {
          "internalType": "contract IVerifier",
          "name": "",
          "type": "address"
        }
      ],
      "stateMutability": "view",
      "type": "function",
      "constant": true
    },
    {
      "inputs": [],
      "name": "withdrawVerifier",
      "outputs": [
        {
          "internalType": "contract IVerifier",
          "name": "",
          "type": "address"
        }
      ],
      "stateMutability": "view",
      "type": "function",
      "constant": true
    },
    {
      "inputs": [
        {
          "internalType": "bytes",
          "name": "_fromProof",
          "type": "bytes"
        },
        {
          "components": [
            {
              "internalType": "uint256",
              "name": "amount",
              "type": "uint256"
            },
            {
              "internalType": "bytes32",
              "name": "extDataHash",
              "type": "bytes32"
            },
            {
              "components": [
                {
                  "internalType": "uint256",
                  "name": "fee",
                  "type": "uint256"
                },
                {
                  "internalType": "address",
                  "name": "relayer",
                  "type": "address"
                },
                {
                  "internalType": "bytes32",
                  "name": "depositProofHash",
                  "type": "bytes32"
                },
                {
                  "internalType": "bytes",
                  "name": "encryptedAccount",
                  "type": "bytes"
                }
              ],
              "internalType": "struct Poof.TransferExtData",
              "name": "extData",
              "type": "tuple"
            },
            {
              "components": [
                {
                  "internalType": "bytes32",
                  "name": "inputRoot",
                  "type": "bytes32"
                },
                {
                  "internalType": "bytes32",
                  "name": "inputNullifierHash",
                  "type": "bytes32"
                },
                {
                  "internalType": "bytes32",
                  "name": "outputRoot",
                  "type": "bytes32"
                },
                {
                  "internalType": "uint256",
                  "name": "outputPathIndices",
                  "type": "uint256"
                },
                {
                  "internalType": "bytes32",
                  "name": "outputCommitment",
                  "type": "bytes32"
                }
              ],
              "internalType": "struct Poof.AccountUpdate",
              "name": "account",
              "type": "tuple"
            }
          ],
          "internalType": "struct Poof.TransferArgs",
          "name": "_fromArgs",
          "type": "tuple"
        },
        {
          "internalType": "bytes",
          "name": "_toProof",
          "type": "bytes"
        },
        {
          "components": [
            {
              "internalType": "uint256",
              "name": "amount",
              "type": "uint256"
            },
            {
              "internalType": "bytes32",
              "name": "extDataHash",
              "type": "bytes32"
            },
            {
              "components": [
                {
                  "internalType": "bytes",
                  "name": "encryptedAccount",
                  "type": "bytes"
                }
              ],
              "internalType": "struct Poof.DepositExtData",
              "name": "extData",
              "type": "tuple"
            },
            {
              "components": [
                {
                  "internalType": "bytes32",
                  "name": "inputRoot",
                  "type": "bytes32"
                },
                {
                  "internalType": "bytes32",
                  "name": "inputNullifierHash",
                  "type": "bytes32"
                },
                {
                  "internalType": "bytes32",
                  "name": "outputRoot",
                  "type": "bytes32"
                },
                {
                  "internalType": "uint256",
                  "name": "outputPathIndices",
                  "type": "uint256"
                },
                {
                  "internalType": "bytes32",
                  "name": "outputCommitment",
                  "type": "bytes32"
                }
              ],
              "internalType": "struct Poof.AccountUpdate",
              "name": "account",
              "type": "tuple"
            }
          ],
          "internalType": "struct Poof.DepositArgs",
          "name": "_toArgs",
          "type": "tuple"
        },
        {
          "internalType": "bytes",
          "name": "_fromTreeUpdateProof",
          "type": "bytes"
        },
        {
          "components": [
            {
              "internalType": "bytes32",
              "name": "oldRoot",
              "type": "bytes32"
            },
            {
              "internalType": "bytes32",
              "name": "newRoot",
              "type": "bytes32"
            },
            {
              "internalType": "bytes32",
              "name": "leaf",
              "type": "bytes32"
            },
            {
              "internalType": "uint256",
              "name": "pathIndices",
              "type": "uint256"
            }
          ],
          "internalType": "struct Poof.TreeUpdateArgs",
          "name": "_fromTreeUpdateArgs",
          "type": "tuple"
        },
        {
          "internalType": "bytes",
          "name": "_toTreeUpdateProof",
          "type": "bytes"
        },
        {
          "components": [
            {
              "internalType": "bytes32",
              "name": "oldRoot",
              "type": "bytes32"
            },
            {
              "internalType": "bytes32",
              "name": "newRoot",
              "type": "bytes32"
            },
            {
              "internalType": "bytes32",
              "name": "leaf",
              "type": "bytes32"
            },
            {
              "internalType": "uint256",
              "name": "pathIndices",
              "type": "uint256"
            }
          ],
          "internalType": "struct Poof.TreeUpdateArgs",
          "name": "_toTreeUpdateArgs",
          "type": "tuple"
        }
      ],
      "name": "transfer",
      "outputs": [],
      "stateMutability": "nonpayable",
      "type": "function"
    },
    {
      "inputs": [
        {
          "internalType": "bytes",
          "name": "_proof",
          "type": "bytes"
        },
        {
          "components": [
            {
              "internalType": "uint256",
              "name": "amount",
              "type": "uint256"
            },
            {
              "internalType": "bytes32",
              "name": "extDataHash",
              "type": "bytes32"
            },
            {
              "components": [
                {
                  "internalType": "bytes",
                  "name": "encryptedAccount",
                  "type": "bytes"
                }
              ],
              "internalType": "struct Poof.DepositExtData",
              "name": "extData",
              "type": "tuple"
            },
            {
              "components": [
                {
                  "internalType": "bytes32",
                  "name": "inputRoot",
                  "type": "bytes32"
                },
                {
                  "internalType": "bytes32",
                  "name": "inputNullifierHash",
                  "type": "bytes32"
                },
                {
                  "internalType": "bytes32",
                  "name": "outputRoot",
                  "type": "bytes32"
                },
                {
                  "internalType": "uint256",
                  "name": "outputPathIndices",
                  "type": "uint256"
                },
                {
                  "internalType": "bytes32",
                  "name": "outputCommitment",
                  "type": "bytes32"
                }
              ],
              "internalType": "struct Poof.AccountUpdate",
              "name": "account",
              "type": "tuple"
            }
          ],
          "internalType": "struct Poof.DepositArgs",
          "name": "_args",
          "type": "tuple"
        },
        {
          "internalType": "bytes",
          "name": "_treeUpdateProof",
          "type": "bytes"
        },
        {
          "components": [
            {
              "internalType": "bytes32",
              "name": "oldRoot",
              "type": "bytes32"
            },
            {
              "internalType": "bytes32",
              "name": "newRoot",
              "type": "bytes32"
            },
            {
              "internalType": "bytes32",
              "name": "leaf",
              "type": "bytes32"
            },
            {
              "internalType": "uint256",
              "name": "pathIndices",
              "type": "uint256"
            }
          ],
          "internalType": "struct Poof.TreeUpdateArgs",
          "name": "_treeUpdateArgs",
          "type": "tuple"
        }
      ],
      "name": "deposit",
      "outputs": [],
      "stateMutability": "nonpayable",
      "type": "function"
    },
    {
      "inputs": [
        {
          "internalType": "bytes",
          "name": "_proof",
          "type": "bytes"
        },
        {
          "components": [
            {
              "internalType": "uint256",
              "name": "amount",
              "type": "uint256"
            },
            {
              "internalType": "bytes32",
              "name": "extDataHash",
              "type": "bytes32"
            },
            {
              "components": [
                {
                  "internalType": "bytes",
                  "name": "encryptedAccount",
                  "type": "bytes"
                }
              ],
              "internalType": "struct Poof.DepositExtData",
              "name": "extData",
              "type": "tuple"
            },
            {
              "components": [
                {
                  "internalType": "bytes32",
                  "name": "inputRoot",
                  "type": "bytes32"
                },
                {
                  "internalType": "bytes32",
                  "name": "inputNullifierHash",
                  "type": "bytes32"
                },
                {
                  "internalType": "bytes32",
                  "name": "outputRoot",
                  "type": "bytes32"
                },
                {
                  "internalType": "uint256",
                  "name": "outputPathIndices",
                  "type": "uint256"
                },
                {
                  "internalType": "bytes32",
                  "name": "outputCommitment",
                  "type": "bytes32"
                }
              ],
              "internalType": "struct Poof.AccountUpdate",
              "name": "account",
              "type": "tuple"
            }
          ],
          "internalType": "struct Poof.DepositArgs",
          "name": "_args",
          "type": "tuple"
        }
      ],
      "name": "deposit",
      "outputs": [],
      "stateMutability": "nonpayable",
      "type": "function"
    },
    {
      "inputs": [
        {
          "internalType": "bytes",
          "name": "_proof",
          "type": "bytes"
        },
        {
          "components": [
            {
              "internalType": "uint256",
              "name": "amount",
              "type": "uint256"
            },
            {
              "internalType": "bytes32",
              "name": "extDataHash",
              "type": "bytes32"
            },
            {
              "components": [
                {
                  "internalType": "uint256",
                  "name": "fee",
                  "type": "uint256"
                },
                {
                  "internalType": "address",
                  "name": "recipient",
                  "type": "address"
                },
                {
                  "internalType": "address",
                  "name": "relayer",
                  "type": "address"
                },
                {
                  "internalType": "bytes",
                  "name": "encryptedAccount",
                  "type": "bytes"
                }
              ],
              "internalType": "struct Poof.WithdrawExtData",
              "name": "extData",
              "type": "tuple"
            },
            {
              "components": [
                {
                  "internalType": "bytes32",
                  "name": "inputRoot",
                  "type": "bytes32"
                },
                {
                  "internalType": "bytes32",
                  "name": "inputNullifierHash",
                  "type": "bytes32"
                },
                {
                  "internalType": "bytes32",
                  "name": "outputRoot",
                  "type": "bytes32"
                },
                {
                  "internalType": "uint256",
                  "name": "outputPathIndices",
                  "type": "uint256"
                },
                {
                  "internalType": "bytes32",
                  "name": "outputCommitment",
                  "type": "bytes32"
                }
              ],
              "internalType": "struct Poof.AccountUpdate",
              "name": "account",
              "type": "tuple"
            }
          ],
          "internalType": "struct Poof.WithdrawArgs",
          "name": "_args",
          "type": "tuple"
        }
      ],
      "name": "withdraw",
      "outputs": [],
      "stateMutability": "nonpayable",
      "type": "function"
    },
    {
      "inputs": [
        {
          "internalType": "bytes",
          "name": "_proof",
          "type": "bytes"
        },
        {
          "components": [
            {
              "internalType": "uint256",
              "name": "amount",
              "type": "uint256"
            },
            {
              "internalType": "bytes32",
              "name": "extDataHash",
              "type": "bytes32"
            },
            {
              "components": [
                {
                  "internalType": "uint256",
                  "name": "fee",
                  "type": "uint256"
                },
                {
                  "internalType": "address",
                  "name": "recipient",
                  "type": "address"
                },
                {
                  "internalType": "address",
                  "name": "relayer",
                  "type": "address"
                },
                {
                  "internalType": "bytes",
                  "name": "encryptedAccount",
                  "type": "bytes"
                }
              ],
              "internalType": "struct Poof.WithdrawExtData",
              "name": "extData",
              "type": "tuple"
            },
            {
              "components": [
                {
                  "internalType": "bytes32",
                  "name": "inputRoot",
                  "type": "bytes32"
                },
                {
                  "internalType": "bytes32",
                  "name": "inputNullifierHash",
                  "type": "bytes32"
                },
                {
                  "internalType": "bytes32",
                  "name": "outputRoot",
                  "type": "bytes32"
                },
                {
                  "internalType": "uint256",
                  "name": "outputPathIndices",
                  "type": "uint256"
                },
                {
                  "internalType": "bytes32",
                  "name": "outputCommitment",
                  "type": "bytes32"
                }
              ],
              "internalType": "struct Poof.AccountUpdate",
              "name": "account",
              "type": "tuple"
            }
          ],
          "internalType": "struct Poof.WithdrawArgs",
          "name": "_args",
          "type": "tuple"
        },
        {
          "internalType": "bytes",
          "name": "_treeUpdateProof",
          "type": "bytes"
        },
        {
          "components": [
            {
              "internalType": "bytes32",
              "name": "oldRoot",
              "type": "bytes32"
            },
            {
              "internalType": "bytes32",
              "name": "newRoot",
              "type": "bytes32"
            },
            {
              "internalType": "bytes32",
              "name": "leaf",
              "type": "bytes32"
            },
            {
              "internalType": "uint256",
              "name": "pathIndices",
              "type": "uint256"
            }
          ],
          "internalType": "struct Poof.TreeUpdateArgs",
          "name": "_treeUpdateArgs",
          "type": "tuple"
        }
      ],
      "name": "withdraw",
      "outputs": [],
      "stateMutability": "nonpayable",
      "type": "function"
    },
    {
      "inputs": [
        {
          "internalType": "contract IVerifier[3]",
          "name": "_verifiers",
          "type": "address[3]"
        }
      ],
      "name": "setVerifiers",
      "outputs": [],
      "stateMutability": "nonpayable",
      "type": "function"
    },
    {
      "inputs": [
        {
          "internalType": "bytes32",
          "name": "_root",
          "type": "bytes32"
        },
        {
          "internalType": "uint256",
          "name": "_index",
          "type": "uint256"
        }
      ],
      "name": "isKnownAccountRoot",
      "outputs": [
        {
          "internalType": "bool",
          "name": "",
          "type": "bool"
        }
      ],
      "stateMutability": "view",
      "type": "function",
      "constant": true
    },
    {
      "inputs": [],
      "name": "getLastAccountRoot",
      "outputs": [
        {
          "internalType": "bytes32",
          "name": "",
          "type": "bytes32"
        }
      ],
      "stateMutability": "view",
      "type": "function",
      "constant": true
    }
  ],
  "bytecode": "0x60806040523480156200001157600080fd5b50604051620026233803806200262383398101604081905262000034916200018c565b6200003f336200009f565b600180546001600160a01b0319166001600160a01b038581169190911790915560078290556040805160608101825284518316815260208086015184169082015284820151909216908201526200009690620000ef565b5050506200026a565b600080546001600160a01b038381166001600160a01b0319831681178455604051919092169283917f8be0079c531659141344cd1fd0a4f28419497f9722a3daafe3b4186f6b6457e09190a35050565b8051600280546001600160a01b039283166001600160a01b031991821681179092556020808501516003805491861691841682179055604080870151600480549190971694168417909555845193845290830152918101919091527fcdb44c0a599b75813fe4a4593f032c7cfd38aa9e6461ba99a31aba3540b502109060600160405180910390a150565b8051620001878162000251565b919050565b600080600060a08486031215620001a1578283fd5b8351620001ae8162000251565b92506020603f85018613620001c1578283fd5b604051606081016001600160401b0381118282101715620001e657620001e66200023b565b604052808683016080880189811115620001fe578687fd5b865b6003811015620002285762000215836200017a565b8452928501929185019160010162000200565b5051969992985095965090945050505050565b634e487b7160e01b600052604160045260246000fd5b6001600160a01b03811681146200026757600080fd5b50565b6123a9806200027a6000396000f3fe608060405234801561001057600080fd5b50600436106101215760003560e01c8063864eb164116100ad578063c6a4b05311610071578063c6a4b0531461025a578063e4af29fc1461026d578063f1b4899714610276578063f2fde38b14610289578063fc0c546a1461029c57610121565b8063864eb164146101fd5780638da5cb5b1461021057806397f098d714610221578063c2c2677514610234578063c45d1fc41461024757610121565b80634a20de58116100f45780634a20de58146101b457806352ef8e96146101c7578063715018a6146101cf57806377c55be5146101d75780637d9af914146101ea57610121565b8063098757fe146101265780631311b6e81461013b57806326120c881461015657806342a660b014610181575b600080fd5b610139610134366004611e43565b6102af565b005b61014361052c565b6040519081526020015b60405180910390f35b600254610169906001600160a01b031681565b6040516001600160a01b03909116815260200161014d565b6101a461018f366004611da9565b60056020526000908152604090205460ff1681565b604051901515815260200161014d565b600454610169906001600160a01b031681565b610143606481565b610139610564565b6101396101e5366004611d63565b61059a565b6101396101f8366004611fee565b6105f5565b600354610169906001600160a01b031681565b6000546001600160a01b0316610169565b6101a461022f366004611dc1565b61062e565b610139610242366004612045565b610671565b610139610255366004611ed9565b610a72565b610143610268366004611da9565b61108c565b61014360065481565b610139610284366004611de2565b6110a3565b610139610297366004611d49565b6110d8565b600154610169906001600160a01b031681565b6102be83606001518383611170565b6102ea83604001516040516020016102d691906121b4565b6040516020818303038152906040526112a0565b8360200151146103415760405162461bcd60e51b815260206004820152601c60248201527f496e636f72726563742065787465726e616c206461746120686173680000000060448201526064015b60405180910390fd5b825160015461035f916001600160a01b0390911690339030906112b6565b6002546040805160e08101825285518152602080870151818301526060808801805151848601528051909201518184015281519093015160808084019190915281519093015160a0830152519091015160c08201526001600160a01b0390911690631e8e1e139086906103d190611316565b6040518363ffffffff1660e01b81526004016103ee929190612129565b60206040518083038186803b15801561040657600080fd5b505afa15801561041a573d6000803e3d6000fd5b505050506040513d601f19601f8201168201806040525081019061043e9190611d89565b6104825760405162461bcd60e51b815260206004820152601560248201527424b73b30b634b2103232b837b9b4ba10383937b7b360591b6044820152606401610338565b60608301516020908101516000908152600590915260409020805460ff191660011790556104d56104b161052c565b606085015151146104c65781602001516104d0565b8360600151604001515b6113b3565b600080516020612354833981519152836060015160800151846060015160200151856040015160000151600160065461050e9190612288565b60405161051e94939291906120e6565b60405180910390a150505050565b60006007606460065461053f91906122e6565b6064811061055d57634e487b7160e01b600052603260045260246000fd5b0154905090565b6000546001600160a01b0316331461058e5760405162461bcd60e51b81526004016103389061217f565b61059860006113f9565b565b6000546001600160a01b031633146105c45760405162461bcd60e51b81526004016103389061217f565b6040805160608181019092526105f29183906003908390839080828437600092019190915250611449915050565b50565b60408051600080825260a0820183526020820181815292820181905260608201819052608082015261062a9184918491610671565b5050565b6000821580159061066a57508260076106486064856122e6565b6064811061066657634e487b7160e01b600052603260045260246000fd5b0154145b9392505050565b61068083606001518383611170565b61069883604001516040516020016102d69190612210565b8360200151146106ea5760405162461bcd60e51b815260206004820152601c60248201527f496e636f72726563742065787465726e616c20646174612068617368000000006044820152606401610338565b8251600160f81b1161073e5760405162461bcd60e51b815260206004820152601960248201527f416d6f756e742076616c7565206f7574206f662072616e6765000000000000006044820152606401610338565b6003546040805160e08101825285518152602080870151818301526060808801805151848601528051909201518184015281519093015160808084019190915281519093015160a0830152519091015160c08201526001600160a01b0390911690631e8e1e139086906107b090611316565b6040518363ffffffff1660e01b81526004016107cd929190612129565b60206040518083038186803b1580156107e557600080fd5b505afa1580156107f9573d6000803e3d6000fd5b505050506040513d601f19601f8201168201806040525081019061081d9190611d89565b6108645760405162461bcd60e51b815260206004820152601860248201527724b73b30b634b2103bb4ba34323930bbb0b610383937b7b360411b6044820152606401610338565b600061089484604001516000015160405180606001604052806021815260200161233360219139865191906114d4565b9050801561092c5760015460408581015160200151905163a9059cbb60e01b81526001600160a01b0391821660048201526024810184905291169063a9059cbb90604401602060405180830381600087803b1580156108f257600080fd5b505af1158015610906573d6000803e3d6000fd5b505050506040513d601f19601f8201168201806040525081019061092a9190611d89565b505b604084015151156109cb57600154604085810151808201519051915163a9059cbb60e01b81526001600160a01b03918216600482015260248101929092529091169063a9059cbb90604401602060405180830381600087803b15801561099157600080fd5b505af11580156109a5573d6000803e3d6000fd5b505050506040513d601f19601f820116820180604052508101906109c99190611d89565b505b6109f96109d661052c565b606086015151146109eb5782602001516104d0565b8460600151604001516113b3565b60608085018051602090810151600090815260058252604090819020805460ff19166001908117909155925160808101519201519088015190930151600654600080516020612354833981519152949293610a5391612288565b604051610a6394939291906120e6565b60405180910390a15050505050565b84516040880151518851610a869190612288565b14610ac85760405162461bcd60e51b81526020600482015260126024820152712a3930b739b332b91034b9903ab73330b4b960711b6044820152606401610338565b610adc866040516020016102d69190612116565b87604001516040015114610b4b5760405162461bcd60e51b815260206004820152603060248201527f2766726f6d272070726f6f66206861736820646f6573206e6f74206d6174636860448201526f0404ee8de4e40e0e4dedecc40d0c2e6d60831b6064820152608401610338565b610b5a85606001518383611170565b610b7285604001516040516020016102d691906121b4565b856020015114610bce5760405162461bcd60e51b815260206004820152602160248201527f496e636f72726563742027746f272065787465726e616c2064617461206861736044820152600d60fb1b6064820152608401610338565b6002546040805160e08101825287518152602080890151818301526060808a01805151848601528051909201518184015281519093015160808084019190915281519093015160a0830152519091015160c08201526001600160a01b0390911690631e8e1e13908890610c4090611316565b6040518363ffffffff1660e01b8152600401610c5d929190612129565b60206040518083038186803b158015610c7557600080fd5b505afa158015610c89573d6000803e3d6000fd5b505050506040513d601f19601f82011682018060405250810190610cad9190611d89565b610cf15760405162461bcd60e51b815260206004820152601560248201527424b73b30b634b2103232b837b9b4ba10383937b7b360591b6044820152606401610338565b60608501516020908101516000908152600590915260409020805460ff19166001179055610d43610d2061052c565b60608701515114610d355781602001516104d0565b8560600151604001516113b3565b6000805160206123548339815191528560600151608001518660600151602001518760400151600001516001600654610d7c9190612288565b604051610d8c94939291906120e6565b60405180910390a1610da387606001518585611170565b610dbb87604001516040516020016102d691906121cf565b876020015114610e195760405162461bcd60e51b815260206004820152602360248201527f496e636f7272656374202766726f6d272065787465726e616c206461746120686044820152620c2e6d60eb1b6064820152608401610338565b6003546040805160e081018252895181526020808b0151818301526060808c01805151848601528051909201518184015281519093015160808084019190915281519093015160a0830152519091015160c08201526001600160a01b0390911690631e8e1e13908a90610e8b90611316565b6040518363ffffffff1660e01b8152600401610ea8929190612129565b60206040518083038186803b158015610ec057600080fd5b505afa158015610ed4573d6000803e3d6000fd5b505050506040513d601f19601f82011682018060405250810190610ef89190611d89565b610f3f5760405162461bcd60e51b815260206004820152601860248201527724b73b30b634b2103bb4ba34323930bbb0b610383937b7b360411b6044820152606401610338565b60408701515115610fdf5760015460408881015160208101519051915163a9059cbb60e01b81526001600160a01b03918216600482015260248101929092529091169063a9059cbb90604401602060405180830381600087803b158015610fa557600080fd5b505af1158015610fb9573d6000803e3d6000fd5b505050506040513d601f19601f82011682018060405250810190610fdd9190611d89565b505b60608701516020908101516000908152600590915260409020805460ff1916600117905561103161100e61052c565b606089015151146110235783602001516104d0565b8760600151604001516113b3565b600080516020612354833981519152876060015160800151886060015160200151896040015160600151600160065461106a9190612288565b60405161107a94939291906120e6565b60405180910390a15050505050505050565b6007816064811061109c57600080fd5b0154905081565b60408051600080825260a0820183526020820181815292820181905260608201819052608082015261062a91849184916102af565b6000546001600160a01b031633146111025760405162461bcd60e51b81526004016103389061217f565b6001600160a01b0381166111675760405162461bcd60e51b815260206004820152602660248201527f4f776e61626c653a206e6577206f776e657220697320746865207a65726f206160448201526564647265737360d01b6064820152608401610338565b6105f2816113f9565b60208084015160009081526005909152604090205460ff16156111ce5760405162461bcd60e51b81526020600482015260166024820152754f75746461746564206163636f756e7420737461746560501b6044820152606401610338565b6111d661052c565b835114611246576111ef8360000151846060015161062e565b6112325760405162461bcd60e51b8152602060048201526014602482015273125b9d985b1a59081858d8dbdd5b9d081c9bdbdd60621b6044820152606401610338565b61124182828560800151611500565b61129b565b60065483606001511461129b5760405162461bcd60e51b815260206004820152601e60248201527f496e636f7272656374206163636f756e7420696e7365727420696e64657800006044820152606401610338565b505050565b805160208201206001600160f81b03165b919050565b604080516001600160a01b0385811660248301528416604482015260648082018490528251808303909101815260849091019091526020810180516001600160e01b03166323b872dd60e01b179052611310908590611756565b50505050565b6040805160078082526101008201909252606091600091906020820160e08036833701905050905060005b60078110156113ac5783816007811061136a57634e487b7160e01b600052603260045260246000fd5b602002015182828151811061138f57634e487b7160e01b600052603260045260246000fd5b6020908102919091010152806113a4816122cb565b915050611341565b5092915050565b80600760646006600081546113c7906122cb565b91829055506113d691906122e6565b606481106113f457634e487b7160e01b600052603260045260246000fd5b015550565b600080546001600160a01b038381166001600160a01b0319831681178455604051919092169283917f8be0079c531659141344cd1fd0a4f28419497f9722a3daafe3b4186f6b6457e09190a35050565b8051600280546001600160a01b039283166001600160a01b031991821681179092556020808501516003805491861691841682179055604080870151600480549190971694168417909555845193845290830152918101919091527fcdb44c0a599b75813fe4a4593f032c7cfd38aa9e6461ba99a31aba3540b502109060600160405180910390a150565b600081848411156114f85760405162461bcd60e51b81526004016103389190612116565b505050900390565b60008351116115515760405162461bcd60e51b815260206004820152601c60248201527f4f75746461746564206163636f756e74206d65726b6c6520726f6f74000000006044820152606401610338565b61155961052c565b8251146115a85760405162461bcd60e51b815260206004820181905260248201527f4f75746461746564207472656520757064617465206d65726b6c6520726f6f746044820152606401610338565b808260400151146115fb5760405162461bcd60e51b815260206004820152601d60248201527f496e636f727265637420636f6d6d69746d656e7420696e7365727465640000006044820152606401610338565b6006548260600151146116505760405162461bcd60e51b815260206004820152601e60248201527f496e636f7272656374206163636f756e7420696e7365727420696e64657800006044820152606401610338565b6004546040805160808101825284518152602080860151908201528482015191810191909152606080850151908201526001600160a01b0390911690631e8e1e1390859061169d90611828565b6040518363ffffffff1660e01b81526004016116ba929190612129565b60206040518083038186803b1580156116d257600080fd5b505afa1580156116e6573d6000803e3d6000fd5b505050506040513d601f19601f8201168201806040525081019061170a9190611d89565b61129b5760405162461bcd60e51b815260206004820152601960248201527f496e76616c69642074726565207570646174652070726f6f66000000000000006044820152606401610338565b60006117ab826040518060400160405280602081526020017f5361666545524332303a206c6f772d6c6576656c2063616c6c206661696c6564815250856001600160a01b03166118bd9092919063ffffffff16565b80519091501561129b57808060200190518101906117c99190611d89565b61129b5760405162461bcd60e51b815260206004820152602a60248201527f5361666545524332303a204552433230206f7065726174696f6e20646964206e6044820152691bdd081cdd58d8d9595960b21b6064820152608401610338565b60408051600480825260a08201909252606091600091906020820160808036833701905050905060005b60048110156113ac5783816004811061187b57634e487b7160e01b600052603260045260246000fd5b60200201518282815181106118a057634e487b7160e01b600052603260045260246000fd5b6020908102919091010152806118b5816122cb565b915050611852565b60606118cc84846000856118d4565b949350505050565b6060824710156119355760405162461bcd60e51b815260206004820152602660248201527f416464726573733a20696e73756666696369656e742062616c616e636520666f6044820152651c8818d85b1b60d21b6064820152608401610338565b843b6119835760405162461bcd60e51b815260206004820152601d60248201527f416464726573733a2063616c6c20746f206e6f6e2d636f6e74726163740000006044820152606401610338565b600080866001600160a01b0316858760405161199f91906120ca565b60006040518083038185875af1925050503d80600081146119dc576040519150601f19603f3d011682016040523d82523d6000602084013e6119e1565b606091505b50915091506119f18282866119fc565b979650505050505050565b60608315611a0b57508161066a565b825115611a1b5782518084602001fd5b8160405162461bcd60e51b81526004016103389190612116565b80356001600160a01b03811681146112b157600080fd5b600082601f830112611a5c578081fd5b813567ffffffffffffffff811115611a7657611a7661231c565b611a89601f8201601f1916602001612257565b818152846020838601011115611a9d578283fd5b816020850160208301379081016020019190915292915050565b600060a08284031215611ac8578081fd5b611ad260a0612257565b9050813581526020820135602082015260408201356040820152606082013560608201526080820135608082015292915050565b60006101008284031215611b18578081fd5b611b226080612257565b90508135815260208201356020820152604082013567ffffffffffffffff80821115611b4d57600080fd5b9083019060208286031215611b6157600080fd5b611b6b6020612257565b823582811115611b7a57600080fd5b611b8687828601611a4c565b825250604084015250611b9e90508360608401611ab7565b606082015292915050565b60006101008284031215611bbb578081fd5b611bc56080612257565b90508135815260208201356020820152604082013567ffffffffffffffff80821115611bf057600080fd5b9083019060808286031215611c0457600080fd5b611c0e6080612257565b82358152611c1e60208401611a35565b602082015260408301356040820152606083013582811115611c3f57600080fd5b611c4b87828601611a4c565b606083015250806040850152505050611b9e8360608401611ab7565b600060808284031215611c78578081fd5b611c826080612257565b90508135815260208201356020820152604082013560408201526060820135606082015292915050565b60006101008284031215611cbe578081fd5b611cc86080612257565b90508135815260208201356020820152604082013567ffffffffffffffff80821115611cf357600080fd5b9083019060808286031215611d0757600080fd5b611d116080612257565b82358152611d2160208401611a35565b6020820152611d3260408401611a35565b6040820152606083013582811115611c3f57600080fd5b600060208284031215611d5a578081fd5b61066a82611a35565b600060608284031215611d74578081fd5b82606083011115611d83578081fd5b50919050565b600060208284031215611d9a578081fd5b8151801515811461066a578182fd5b600060208284031215611dba578081fd5b5035919050565b60008060408385031215611dd3578081fd5b50508035926020909101359150565b60008060408385031215611df4578182fd5b823567ffffffffffffffff80821115611e0b578384fd5b611e1786838701611a4c565b93506020850135915080821115611e2c578283fd5b50611e3985828601611b06565b9150509250929050565b60008060008060e08587031215611e58578182fd5b843567ffffffffffffffff80821115611e6f578384fd5b611e7b88838901611a4c565b95506020870135915080821115611e90578384fd5b611e9c88838901611b06565b94506040870135915080821115611eb1578384fd5b50611ebe87828801611a4c565b925050611ece8660608701611c67565b905092959194509250565b6000806000806000806000806101c0898b031215611ef5578586fd5b883567ffffffffffffffff80821115611f0c578788fd5b611f188c838d01611a4c565b995060208b0135915080821115611f2d578788fd5b611f398c838d01611ba9565b985060408b0135915080821115611f4e578788fd5b611f5a8c838d01611a4c565b975060608b0135915080821115611f6f578586fd5b611f7b8c838d01611b06565b965060808b0135915080821115611f90578586fd5b611f9c8c838d01611a4c565b9550611fab8c60a08d01611c67565b94506101208b0135915080821115611fc1578384fd5b50611fce8b828c01611a4c565b925050611fdf8a6101408b01611c67565b90509295985092959890939650565b60008060408385031215612000578182fd5b823567ffffffffffffffff80821115612017578384fd5b61202386838701611a4c565b93506020850135915080821115612038578283fd5b50611e3985828601611cac565b60008060008060e0858703121561205a578182fd5b843567ffffffffffffffff80821115612071578384fd5b61207d88838901611a4c565b95506020870135915080821115612092578384fd5b611e9c88838901611cac565b600081518084526120b681602086016020860161229f565b601f01601f19169290920160200192915050565b600082516120dc81846020870161229f565b9190910192915050565b600085825284602083015260806040830152612105608083018561209e565b905082606083015295945050505050565b60006020825261066a602083018461209e565b60006040825261213c604083018561209e565b828103602084810191909152845180835285820192820190845b8181101561217257845183529383019391830191600101612156565b5090979650505050505050565b6020808252818101527f4f776e61626c653a2063616c6c6572206973206e6f7420746865206f776e6572604082015260600190565b60006020825282516020808401526118cc604084018261209e565b6000602082528251602083015260018060a01b0360208401511660408301526040830151606083015260608301516080808401526118cc60a084018261209e565b60006020825282516020830152602083015160018060a01b038082166040850152806040860151166060850152505060608301516080808401526118cc60a084018261209e565b604051601f8201601f1916810167ffffffffffffffff811182821017156122805761228061231c565b604052919050565b60008282101561229a5761229a612306565b500390565b60005b838110156122ba5781810151838201526020016122a2565b838111156113105750506000910152565b60006000198214156122df576122df612306565b5060010190565b60008261230157634e487b7160e01b81526012600452602481fd5b500690565b634e487b7160e01b600052601160045260246000fd5b634e487b7160e01b600052604160045260246000fdfe416d6f756e742073686f756c642062652067726561746572207468616e20666565bd4a5ca11c6f082fd6d00dc9d1dced6ab22490039bc36154bfa748bf2bf74355a26469706673582212201b43b6abaa821ece66e1343d7e39e45099d8c6dcb3a54b071ea87de44e32a06464736f6c63430008030033",
  "immutableReferences": {},
  "source": "// SPDX-License-Identifier: MIT\n\npragma solidity ^0.8.0;\n\nimport \"@openzeppelin/contracts/access/Ownable.sol\";\nimport \"@openzeppelin/contracts/token/ERC20/utils/SafeERC20.sol\";\nimport \"@openzeppelin/contracts/token/ERC20/IERC20.sol\";\nimport \"@openzeppelin/contracts/utils/math/SafeMath.sol\";\n\nimport \"./interfaces/IVerifier.sol\";\n\ncontract Poof is Ownable {\n  using SafeMath for uint256;\n  using SafeERC20 for IERC20;\n\n  IERC20 public token;\n\n  IVerifier public depositVerifier;\n  IVerifier public withdrawVerifier;\n  IVerifier public treeUpdateVerifier;\n\n  mapping(bytes32 => bool) public accountNullifiers;\n\n  uint256 public accountCount;\n  uint256 public constant ACCOUNT_ROOT_HISTORY_SIZE = 100;\n  bytes32[ACCOUNT_ROOT_HISTORY_SIZE] public accountRoots;\n\n  event NewAccount(bytes32 commitment, bytes32 nullifier, bytes encryptedAccount, uint256 index);\n  event VerifiersUpdated(address deposit, address withdraw, address treeUpdate);\n\n  struct TreeUpdateArgs {\n    bytes32 oldRoot;\n    bytes32 newRoot;\n    bytes32 leaf;\n    uint256 pathIndices;\n  }\n\n  struct AccountUpdate {\n    bytes32 inputRoot;\n    bytes32 inputNullifierHash;\n    bytes32 outputRoot;\n    uint256 outputPathIndices;\n    bytes32 outputCommitment;\n  }\n\n  struct DepositExtData {\n    bytes encryptedAccount;\n  }\n\n  struct DepositArgs {\n    uint256 amount;\n    bytes32 extDataHash;\n    DepositExtData extData;\n    AccountUpdate account;\n  }\n\n  struct TransferExtData {\n    uint256 fee;\n    address relayer;\n    bytes32 depositProofHash;\n    bytes encryptedAccount;\n  }\n\n  struct TransferArgs {\n    uint256 amount;\n    bytes32 extDataHash;\n    TransferExtData extData;\n    AccountUpdate account;\n  }\n\n  struct WithdrawExtData {\n    uint256 fee;\n    address recipient;\n    address relayer;\n    bytes encryptedAccount;\n  }\n\n  struct WithdrawArgs {\n    uint256 amount;\n    bytes32 extDataHash;\n    WithdrawExtData extData;\n    AccountUpdate account;\n  }\n\n  constructor(\n    IERC20 _token,\n    address[3] memory _verifiers,\n    bytes32 _accountRoot\n  ) {\n    token = _token;\n    accountRoots[0] = _accountRoot;\n    // prettier-ignore\n    _setVerifiers([\n      IVerifier(_verifiers[0]),\n      IVerifier(_verifiers[1]),\n      IVerifier(_verifiers[2])\n    ]);\n  }\n\n  function toDynamicArray(uint256[4] memory arr) internal pure returns (uint256[] memory) {\n    uint256[] memory res = new uint256[](4);\n    for (uint i = 0; i < arr.length; i++) {\n      res[i] = arr[i];\n    }\n    return res;\n  }\n\n  function toDynamicArray(uint256[7] memory arr) internal pure returns (uint256[] memory) {\n    uint256[] memory res = new uint256[](7);\n    for (uint i = 0; i < arr.length; i++) {\n      res[i] = arr[i];\n    }\n    return res;\n  }\n\n  function transfer(\n    bytes memory _fromProof,\n    TransferArgs memory _fromArgs,\n    bytes memory _toProof,\n    DepositArgs memory _toArgs,\n    bytes memory _fromTreeUpdateProof,\n    TreeUpdateArgs memory _fromTreeUpdateArgs,\n    bytes memory _toTreeUpdateProof,\n    TreeUpdateArgs memory _toTreeUpdateArgs\n  ) public {\n    require(_fromArgs.amount - _fromArgs.extData.fee == _toArgs.amount, \"Transfer is unfair\");\n    require(_fromArgs.extData.depositProofHash == keccak248(abi.encode(_toProof)), \"'from' proof hash does not match 'to' proof hash\");\n\n    // Validate and update the `to` account\n    validateAccountUpdate(_toArgs.account, _toTreeUpdateProof, _toTreeUpdateArgs);\n    require(_toArgs.extDataHash == keccak248(abi.encode(_toArgs.extData)), \"Incorrect 'to' external data hash\");\n    require(\n      depositVerifier.verifyProof(\n        _toProof,\n        toDynamicArray([\n          uint256(_toArgs.amount),\n          uint256(_toArgs.extDataHash),\n          uint256(_toArgs.account.inputRoot),\n          uint256(_toArgs.account.inputNullifierHash),\n          uint256(_toArgs.account.outputRoot),\n          uint256(_toArgs.account.outputPathIndices),\n          uint256(_toArgs.account.outputCommitment)\n        ])\n      ),\n      \"Invalid deposit proof\"\n    );\n\n    accountNullifiers[_toArgs.account.inputNullifierHash] = true;\n    insertAccountRoot(_toArgs.account.inputRoot == getLastAccountRoot() ? _toArgs.account.outputRoot : _toTreeUpdateArgs.newRoot);\n\n    emit NewAccount(\n      _toArgs.account.outputCommitment,\n      _toArgs.account.inputNullifierHash,\n      _toArgs.extData.encryptedAccount,\n      accountCount - 1\n    );\n\n    // Validate and update the `from` account\n    validateAccountUpdate(_fromArgs.account, _fromTreeUpdateProof, _fromTreeUpdateArgs);\n    require(_fromArgs.extDataHash == keccak248(abi.encode(_fromArgs.extData)), \"Incorrect 'from' external data hash\");\n    require(\n      withdrawVerifier.verifyProof(\n        _fromProof,\n        toDynamicArray([\n          uint256(_fromArgs.amount),\n          uint256(_fromArgs.extDataHash),\n          uint256(_fromArgs.account.inputRoot),\n          uint256(_fromArgs.account.inputNullifierHash),\n          uint256(_fromArgs.account.outputRoot),\n          uint256(_fromArgs.account.outputPathIndices),\n          uint256(_fromArgs.account.outputCommitment)\n        ])\n      ),\n      \"Invalid withdrawal proof\"\n    );\n\n    if (_fromArgs.extData.fee > 0) {\n      token.transfer(_fromArgs.extData.relayer, _fromArgs.extData.fee);\n    }\n\n    accountNullifiers[_fromArgs.account.inputNullifierHash] = true;\n    insertAccountRoot(_fromArgs.account.inputRoot == getLastAccountRoot() ? _fromArgs.account.outputRoot : _fromTreeUpdateArgs.newRoot);\n\n    emit NewAccount(\n      _fromArgs.account.outputCommitment,\n      _fromArgs.account.inputNullifierHash,\n      _fromArgs.extData.encryptedAccount,\n      accountCount - 1\n    );\n  }\n\n  function deposit(bytes memory _proof, DepositArgs memory _args) public {\n    deposit(_proof, _args, new bytes(0), TreeUpdateArgs(0, 0, 0, 0));\n  }\n\n  function deposit(\n    bytes memory _proof,\n    DepositArgs memory _args,\n    bytes memory _treeUpdateProof,\n    TreeUpdateArgs memory _treeUpdateArgs\n  ) public {\n    validateAccountUpdate(_args.account, _treeUpdateProof, _treeUpdateArgs);\n    require(_args.extDataHash == keccak248(abi.encode(_args.extData)), \"Incorrect external data hash\");\n    token.safeTransferFrom(msg.sender, address(this), _args.amount);\n    require(\n      depositVerifier.verifyProof(\n        _proof,\n        toDynamicArray([\n          uint256(_args.amount),\n          uint256(_args.extDataHash),\n          uint256(_args.account.inputRoot),\n          uint256(_args.account.inputNullifierHash),\n          uint256(_args.account.outputRoot),\n          uint256(_args.account.outputPathIndices),\n          uint256(_args.account.outputCommitment)\n        ])\n      ),\n      \"Invalid deposit proof\"\n    );\n\n    accountNullifiers[_args.account.inputNullifierHash] = true;\n    insertAccountRoot(_args.account.inputRoot == getLastAccountRoot() ? _args.account.outputRoot : _treeUpdateArgs.newRoot);\n\n    emit NewAccount(\n      _args.account.outputCommitment,\n      _args.account.inputNullifierHash,\n      _args.extData.encryptedAccount,\n      accountCount - 1\n    );\n  }\n\n  function withdraw(bytes memory _proof, WithdrawArgs memory _args) public {\n    withdraw(_proof, _args, new bytes(0), TreeUpdateArgs(0, 0, 0, 0));\n  }\n\n  function withdraw(\n    bytes memory _proof,\n    WithdrawArgs memory _args,\n    bytes memory _treeUpdateProof,\n    TreeUpdateArgs memory _treeUpdateArgs\n  ) public {\n    validateAccountUpdate(_args.account, _treeUpdateProof, _treeUpdateArgs);\n    require(_args.extDataHash == keccak248(abi.encode(_args.extData)), \"Incorrect external data hash\");\n    require(_args.amount < 2**248, \"Amount value out of range\");\n    require(\n      withdrawVerifier.verifyProof(\n        _proof,\n        toDynamicArray([\n          uint256(_args.amount),\n          uint256(_args.extDataHash),\n          uint256(_args.account.inputRoot),\n          uint256(_args.account.inputNullifierHash),\n          uint256(_args.account.outputRoot),\n          uint256(_args.account.outputPathIndices),\n          uint256(_args.account.outputCommitment)\n        ])\n      ),\n      \"Invalid withdrawal proof\"\n    );\n\n    uint256 amount = _args.amount.sub(_args.extData.fee, \"Amount should be greater than fee\");\n    if (amount > 0) {\n      token.transfer(_args.extData.recipient, amount);\n    }\n    if (_args.extData.fee > 0) {\n      token.transfer(_args.extData.relayer, _args.extData.fee);\n    }\n\n    insertAccountRoot(_args.account.inputRoot == getLastAccountRoot() ? _args.account.outputRoot : _treeUpdateArgs.newRoot);\n    accountNullifiers[_args.account.inputNullifierHash] = true;\n\n    emit NewAccount(\n      _args.account.outputCommitment,\n      _args.account.inputNullifierHash,\n      _args.extData.encryptedAccount,\n      accountCount - 1\n    );\n  }\n\n  function setVerifiers(IVerifier[3] calldata _verifiers) external onlyOwner {\n    _setVerifiers(_verifiers);\n  }\n\n  // ------VIEW-------\n\n  /**\n    @dev Whether the root is present in the root history\n    */\n  function isKnownAccountRoot(bytes32 _root, uint256 _index) public view returns (bool) {\n    return _root != 0 && accountRoots[_index % ACCOUNT_ROOT_HISTORY_SIZE] == _root;\n  }\n\n  /**\n    @dev Returns the last root\n    */\n  function getLastAccountRoot() public view returns (bytes32) {\n    return accountRoots[accountCount % ACCOUNT_ROOT_HISTORY_SIZE];\n  }\n\n  // -----INTERNAL-------\n\n  function keccak248(bytes memory _data) internal pure returns (bytes32) {\n    return keccak256(_data) & 0x00ffffffffffffffffffffffffffffffffffffffffffffffffffffffffffffff;\n  }\n\n  function validateTreeUpdate(\n    bytes memory _proof,\n    TreeUpdateArgs memory _args,\n    bytes32 _commitment\n  ) internal view {\n    require(_proof.length > 0, \"Outdated account merkle root\");\n    require(_args.oldRoot == getLastAccountRoot(), \"Outdated tree update merkle root\");\n    require(_args.leaf == _commitment, \"Incorrect commitment inserted\");\n    require(_args.pathIndices == accountCount, \"Incorrect account insert index\");\n    require(\n      treeUpdateVerifier.verifyProof(\n        _proof,\n        toDynamicArray([uint256(_args.oldRoot), uint256(_args.newRoot), uint256(_args.leaf), uint256(_args.pathIndices)])\n      ),\n      \"Invalid tree update proof\"\n    );\n  }\n\n  function validateAccountUpdate(\n    AccountUpdate memory _account,\n    bytes memory _treeUpdateProof,\n    TreeUpdateArgs memory _treeUpdateArgs\n  ) internal view {\n    // Has to be a new nullifier hash\n    require(!accountNullifiers[_account.inputNullifierHash], \"Outdated account state\");\n    if (_account.inputRoot != getLastAccountRoot()) {\n      // _account.outputPathIndices (= last tree leaf index) is always equal to root index in the history mapping\n      // because we always generate a new root for each new leaf\n      require(isKnownAccountRoot(_account.inputRoot, _account.outputPathIndices), \"Invalid account root\");\n      validateTreeUpdate(_treeUpdateProof, _treeUpdateArgs, _account.outputCommitment);\n    } else {\n      require(_account.outputPathIndices == accountCount, \"Incorrect account insert index\");\n    }\n  }\n\n  function insertAccountRoot(bytes32 _root) internal {\n    accountRoots[++accountCount % ACCOUNT_ROOT_HISTORY_SIZE] = _root;\n  }\n\n  function _setVerifiers(IVerifier[3] memory _verifiers) internal {\n    depositVerifier = _verifiers[0];\n    withdrawVerifier = _verifiers[1];\n    treeUpdateVerifier = _verifiers[2];\n    emit VerifiersUpdated(address(_verifiers[0]), address(_verifiers[1]), address(_verifiers[2]));\n  }\n}\n",
  "sourcePath": "/home/home/poof-v2-core/contracts/Poof.sol",
  "compiler": {
    "name": "solc",
    "version": "0.8.3+commit.8d00100c.Emscripten.clang"
  },
  "schemaVersion": "3.4.3",
  "updatedAt": "2021-09-16T15:27:17.486Z",
  "networkType": "ethereum",
  "devdoc": {
    "kind": "dev",
    "methods": {
      "getLastAccountRoot()": {
        "details": "Returns the last root"
      },
      "isKnownAccountRoot(bytes32,uint256)": {
        "details": "Whether the root is present in the root history"
      },
      "owner()": {
        "details": "Returns the address of the current owner."
      },
      "renounceOwnership()": {
        "details": "Leaves the contract without owner. It will not be possible to call `onlyOwner` functions anymore. Can only be called by the current owner. NOTE: Renouncing ownership will leave the contract without an owner, thereby removing any functionality that is only available to the owner."
      },
      "transferOwnership(address)": {
        "details": "Transfers ownership of the contract to a new account (`newOwner`). Can only be called by the current owner."
      }
    },
    "version": 1
  },
  "userdoc": {
    "kind": "user",
    "methods": {},
    "version": 1
  }
}